{
  "_format": "hh3-artifact-1",
  "contractName": "MnemoLineageSplitter",
  "sourceName": "contracts/MnemoLineageSplitter.sol",
  "abi": [
    {
      "inputs": [
        {
          "internalType": "address",
          "name": "_agentNFT",
          "type": "address"
        },
        {
          "internalType": "address",
          "name": "_treasury",
          "type": "address"
        }
      ],
      "stateMutability": "nonpayable",
      "type": "constructor"
    },
    {
      "inputs": [],
      "name": "NothingToClaim",
      "type": "error"
    },
    {
      "inputs": [
        {
          "internalType": "address",
          "name": "owner",
          "type": "address"
        }
      ],
      "name": "OwnableInvalidOwner",
      "type": "error"
    },
    {
      "inputs": [
        {
          "internalType": "address",
          "name": "account",
          "type": "address"
        }
      ],
      "name": "OwnableUnauthorizedAccount",
      "type": "error"
    },
    {
      "inputs": [],
      "name": "ReentrancyGuardReentrantCall",
      "type": "error"
    },
    {
      "inputs": [],
      "name": "TransferFailed",
      "type": "error"
    },
    {
      "inputs": [],
      "name": "ZeroAddress",
      "type": "error"
    },
    {
      "inputs": [],
      "name": "ZeroPayment",
      "type": "error"
    },
    {
      "anonymous": false,
      "inputs": [
        {
          "indexed": true,
          "internalType": "address",
          "name": "recipient",
          "type": "address"
        },
        {
          "indexed": false,
          "internalType": "uint256",
          "name": "amount",
          "type": "uint256"
        }
      ],
      "name": "Claimed",
      "type": "event"
    },
    {
      "anonymous": false,
      "inputs": [
        {
          "indexed": true,
          "internalType": "uint256",
          "name": "tokenId",
          "type": "uint256"
        },
        {
          "indexed": true,
          "internalType": "address",
          "name": "payer",
          "type": "address"
        },
        {
          "indexed": false,
          "internalType": "uint256",
          "name": "amount",
          "type": "uint256"
        }
      ],
      "name": "InvocationPaid",
      "type": "event"
    },
    {
      "anonymous": false,
      "inputs": [
        {
          "indexed": true,
          "internalType": "address",
          "name": "previousOwner",
          "type": "address"
        },
        {
          "indexed": true,
          "internalType": "address",
          "name": "newOwner",
          "type": "address"
        }
      ],
      "name": "OwnershipTransferred",
      "type": "event"
    },
    {
      "anonymous": false,
      "inputs": [
        {
          "indexed": true,
          "internalType": "uint256",
          "name": "tokenId",
          "type": "uint256"
        },
        {
          "indexed": true,
          "internalType": "address",
          "name": "recipient",
          "type": "address"
        },
        {
          "indexed": false,
          "internalType": "uint8",
          "name": "generation",
          "type": "uint8"
        },
        {
          "indexed": false,
          "internalType": "uint256",
          "name": "amount",
          "type": "uint256"
        }
      ],
      "name": "RoyaltyCredited",
      "type": "event"
    },
    {
      "anonymous": false,
      "inputs": [
        {
          "indexed": false,
          "internalType": "address",
          "name": "oldTreasury",
          "type": "address"
        },
        {
          "indexed": false,
          "internalType": "address",
          "name": "newTreasury",
          "type": "address"
        }
      ],
      "name": "TreasuryUpdated",
      "type": "event"
    },
    {
      "inputs": [],
      "name": "BASIS_POINTS",
      "outputs": [
        {
          "internalType": "uint16",
          "name": "",
          "type": "uint16"
        }
      ],
      "stateMutability": "view",
      "type": "function"
    },
    {
      "inputs": [],
      "name": "SHARE_GRANDS",
      "outputs": [
        {
          "internalType": "uint16",
          "name": "",
          "type": "uint16"
        }
      ],
      "stateMutability": "view",
      "type": "function"
    },
    {
      "inputs": [],
      "name": "SHARE_OWNER",
      "outputs": [
        {
          "internalType": "uint16",
          "name": "",
          "type": "uint16"
        }
      ],
      "stateMutability": "view",
      "type": "function"
    },
    {
      "inputs": [],
      "name": "SHARE_PARENTS",
      "outputs": [
        {
          "internalType": "uint16",
          "name": "",
          "type": "uint16"
        }
      ],
      "stateMutability": "view",
      "type": "function"
    },
    {
      "inputs": [],
      "name": "SHARE_TREASURY",
      "outputs": [
        {
          "internalType": "uint16",
          "name": "",
          "type": "uint16"
        }
      ],
      "stateMutability": "view",
      "type": "function"
    },
    {
      "inputs": [],
      "name": "agentNFT",
      "outputs": [
        {
          "internalType": "contract IMnemoAgentNFT",
          "name": "",
          "type": "address"
        }
      ],
      "stateMutability": "view",
      "type": "function"
    },
    {
      "inputs": [],
      "name": "claim",
      "outputs": [],
      "stateMutability": "nonpayable",
      "type": "function"
    },
    {
      "inputs": [
        {
          "internalType": "address",
          "name": "",
          "type": "address"
        }
      ],
      "name": "claimable",
      "outputs": [
        {
          "internalType": "uint256",
          "name": "",
          "type": "uint256"
        }
      ],
      "stateMutability": "view",
      "type": "function"
    },
    {
      "inputs": [],
      "name": "owner",
      "outputs": [
        {
          "internalType": "address",
          "name": "",
          "type": "address"
        }
      ],
      "stateMutability": "view",
      "type": "function"
    },
    {
      "inputs": [
        {
          "internalType": "uint256",
          "name": "tokenId",
          "type": "uint256"
        }
      ],
      "name": "payInvocation",
      "outputs": [],
      "stateMutability": "payable",
      "type": "function"
    },
    {
      "inputs": [
        {
          "internalType": "uint256",
          "name": "tokenId",
          "type": "uint256"
        },
        {
          "internalType": "uint256",
          "name": "amount",
          "type": "uint256"
        }
      ],
      "name": "previewSplit",
      "outputs": [
        {
          "internalType": "address",
          "name": "ownerAddr",
          "type": "address"
        },
        {
          "internalType": "address[2]",
          "name": "parents",
          "type": "address[2]"
        },
        {
          "internalType": "address[4]",
          "name": "grandparents",
          "type": "address[4]"
        },
        {
          "internalType": "uint256",
          "name": "ownerAmount",
          "type": "uint256"
        },
        {
          "internalType": "uint256",
          "name": "parentsAmount",
          "type": "uint256"
        },
        {
          "internalType": "uint256",
          "name": "grandsAmount",
          "type": "uint256"
        },
        {
          "internalType": "uint256",
          "name": "treasuryAmount",
          "type": "uint256"
        }
      ],
      "stateMutability": "view",
      "type": "function"
    },
    {
      "inputs": [],
      "name": "renounceOwnership",
      "outputs": [],
      "stateMutability": "nonpayable",
      "type": "function"
    },
    {
      "inputs": [
        {
          "internalType": "address",
          "name": "newTreasury",
          "type": "address"
        }
      ],
      "name": "setTreasury",
      "outputs": [],
      "stateMutability": "nonpayable",
      "type": "function"
    },
    {
      "inputs": [
        {
          "internalType": "address",
          "name": "newOwner",
          "type": "address"
        }
      ],
      "name": "transferOwnership",
      "outputs": [],
      "stateMutability": "nonpayable",
      "type": "function"
    },
    {
      "inputs": [],
      "name": "treasury",
      "outputs": [
        {
          "internalType": "address",
          "name": "",
          "type": "address"
        }
      ],
      "stateMutability": "view",
      "type": "function"
    }
  ],
  "bytecode": "0x60a060405234801561000f575f5ffd5b506040516114f93803806114f983398101604081905261002e9161014e565b60017f9b779b17422d0df92223018b32b4d1fa46e071723d6817e2486d003becc55f0055338061007757604051631e4fbdf760e01b81525f600482015260240160405180910390fd5b610080816100e4565b506001600160a01b038216158061009e57506001600160a01b038116155b156100bc5760405163d92e233d60e01b815260040160405180910390fd5b6001600160a01b03918216608052600180546001600160a01b0319169190921617905561017f565b5f80546001600160a01b038381166001600160a01b0319831681178455604051919092169283917f8be0079c531659141344cd1fd0a4f28419497f9722a3daafe3b4186f6b6457e09190a35050565b80516001600160a01b0381168114610149575f5ffd5b919050565b5f5f6040838503121561015f575f5ffd5b61016883610133565b915061017660208401610133565b90509250929050565b60805161132b6101ce5f395f818160f901528181610601015281816106af0152818161075c0152818161082f01528181610901015281816109be01528181610c890152610e73015261132b5ff3fe6080604052600436106100e4575f3560e01c80637128ca9011610087578063e1f1c4a711610057578063e1f1c4a71461026d578063e54f1c7714610282578063f0f4426014610297578063f2fde38b146102b6575f5ffd5b80637128ca9014610213578063715018a6146102285780638da5cb5b1461023c57806395f6812314610258575f5ffd5b80634e71d92d116100c25780634e71d92d1461018657806361d027b31461019a57806368897cb8146101b957806368bd74e8146101eb575f5ffd5b80633fd773e9146100e8578063402914f51461013857806341a3f2b814610171575b5f5ffd5b3480156100f3575f5ffd5b5061011b7f000000000000000000000000000000000000000000000000000000000000000081565b6040516001600160a01b0390911681526020015b60405180910390f35b348015610143575f5ffd5b5061016361015236600461107f565b60026020525f908152604090205481565b60405190815260200161012f565b61018461017f3660046110a1565b6102d5565b005b348015610191575f5ffd5b506101846104e7565b3480156101a5575f5ffd5b5060015461011b906001600160a01b031681565b3480156101c4575f5ffd5b506101d86101d33660046110b8565b6105ea565b60405161012f97969594939291906110d8565b3480156101f6575f5ffd5b506102006101f481565b60405161ffff909116815260200161012f565b34801561021e575f5ffd5b506102006105dc81565b348015610233575f5ffd5b50610184610ae5565b348015610247575f5ffd5b505f546001600160a01b031661011b565b348015610263575f5ffd5b5061020061138881565b348015610278575f5ffd5b5061020061271081565b34801561028d575f5ffd5b50610200610bb881565b3480156102a2575f5ffd5b506101846102b136600461107f565b610af6565b3480156102c1575f5ffd5b506101846102d036600461107f565b610b8e565b6102dd610bcd565b345f036102fd576040516311e51d5160e31b815260040160405180910390fd5b604051348152339082907fb9b8ba005254d808c25642df596e9ea27205961515576e2e561cb87be6cd02c69060200160405180910390a360408051606081019091525f908061271061035161138834611188565b61035b91906111a5565b815260200161271061036f610bb834611188565b61037991906111a5565b815260200161271061038d6105dc34611188565b61039791906111a5565b90526040805160018082528183019092529192505f9182916020808301908036833701905050905083815f815181106103d2576103d26111d8565b60209081029190910101525f5b60038160ff16101561043c5761041082858360ff1660038110610404576104046111d8565b60200201518784610be8565b61041a90846111ec565b925060028160ff1610156104345761043182610dde565b91505b6001016103df565b505f61044883346111ff565b905080156104ca576001546001600160a01b03165f90815260026020526040812080548392906104799084906111ec565b90915550506001546040805160638152602081018490526001600160a01b039092169187917f543190d778111ee497538d199aacf1bb4c04451e7b56e6468bb148536ad839db910160405180910390a35b505050506104e460015f5160206112d65f395f51905f5255565b50565b6104ef610bcd565b335f908152600260205260408120549081900361051f576040516312d37ee560e31b815260040160405180910390fd5b335f8181526002602052604080822091909155517fd8138f8a3f377c5259ca548e70e4c2de94f129f5a11036a15b69513cba2b426a906105629084815260200190565b60405180910390a26040515f90339083908381818185875af1925050503d805f81146105a9576040519150601f19603f3d011682016040523d82523d5f602084013e6105ae565b606091505b50509050806105d0576040516312171d8360e31b815260040160405180910390fd5b50506105e860015f5160206112d65f395f51905f5255565b565b5f6105f361102f565b6105fb61104d565b5f5f5f5f7f00000000000000000000000000000000000000000000000000000000000000006001600160a01b0316636352211e8a6040518263ffffffff1660e01b815260040161064d91815260200190565b602060405180830381865afa158015610668573d5f5f3e3d5ffd5b505050506040513d601f19601f8201168201806040525081019061068c9190611222565b6040516336ad675160e11b8152600481018b90529097505f906001600160a01b037f00000000000000000000000000000000000000000000000000000000000000001690636d5acea29060240160a060405180830381865afa1580156106f4573d5f5f3e3d5ffd5b505050506040513d601f19601f82011682018060405250810190610718919061123d565b6040805180820190915281518152602080830151908201529091505f5b6002811015610a6a57818160028110610750576107506111d8565b602002015115610a62577f00000000000000000000000000000000000000000000000000000000000000006001600160a01b0316636352211e83836002811061079b5761079b6111d8565b60200201516040518263ffffffff1660e01b81526004016107be91815260200190565b602060405180830381865afa1580156107d9573d5f5f3e3d5ffd5b505050506040513d601f19601f820116820180604052508101906107fd9190611222565b89826002811061080f5761080f6111d8565b60200201906001600160a01b031690816001600160a01b0316815250505f7f00000000000000000000000000000000000000000000000000000000000000006001600160a01b0316636d5acea284846002811061086e5761086e6111d8565b60200201516040518263ffffffff1660e01b815260040161089191815260200190565b60a060405180830381865afa1580156108ac573d5f5f3e3d5ffd5b505050506040513d601f19601f820116820180604052508101906108d0919061123d565b90505f6108de836002611188565b8251909150156109985781516040516331a9108f60e11b815260048101919091527f00000000000000000000000000000000000000000000000000000000000000006001600160a01b031690636352211e90602401602060405180830381865afa15801561094e573d5f5f3e3d5ffd5b505050506040513d601f19601f820116820180604052508101906109729190611222565b8a8260048110610984576109846111d8565b6001600160a01b0390921660209290920201525b602082015115610a5f5760208201516040516331a9108f60e11b815260048101919091527f00000000000000000000000000000000000000000000000000000000000000006001600160a01b031690636352211e90602401602060405180830381865afa158015610a0b573d5f5f3e3d5ffd5b505050506040513d601f19601f82011682018060405250810190610a2f9190611222565b8a610a3b8360016111ec565b60048110610a4b57610a4b6111d8565b6001600160a01b0390921660209290920201525b50505b600101610735565b50612710610a7a6113888c611188565b610a8491906111a5565b9550612710610a95610bb88c611188565b610a9f91906111a5565b9450612710610ab06105dc8c611188565b610aba91906111a5565b9350612710610acb6101f48c611188565b610ad591906111a5565b9250505092959891949750929550565b610aed610f85565b6105e85f610fb1565b610afe610f85565b6001600160a01b038116610b255760405163d92e233d60e01b815260040160405180910390fd5b600154604080516001600160a01b03928316815291831660208301527f4ab5be82436d353e61ca18726e984e561f5c1cc7c6d38b29d2553c790434705a910160405180910390a1600180546001600160a01b0319166001600160a01b0392909216919091179055565b610b96610f85565b6001600160a01b038116610bc457604051631e4fbdf760e01b81525f60048201526024015b60405180910390fd5b6104e481610fb1565b610bd5611000565b60025f5160206112d65f395f51905f5255565b5f80805b8651811015610c2b57868181518110610c0757610c076111d8565b60200260200101515f14610c235781610c1f816112bd565b9250505b600101610bec565b50805f03610c3c575f915050610dd6565b5f610c4782876111a5565b9050805f03610c5a575f92505050610dd6565b5f5b8751811015610dd257878181518110610c7757610c776111d8565b60200260200101515f0315610dca575f7f00000000000000000000000000000000000000000000000000000000000000006001600160a01b0316636352211e8a8481518110610cc857610cc86111d8565b60200260200101516040518263ffffffff1660e01b8152600401610cee91815260200190565b602060405180830381865afa925050508015610d27575060408051601f3d908101601f19168201909252610d2491810190611222565b60015b610d315750610dca565b90506001600160a01b038116610d475750610dca565b6001600160a01b0381165f9081526002602052604081208054859290610d6e9084906111ec565b90915550506040805160ff88168152602081018590526001600160a01b0383169189917f543190d778111ee497538d199aacf1bb4c04451e7b56e6468bb148536ad839db910160405180910390a3610dc683866111ec565b9450505b600101610c5c565b5050505b949350505050565b606081516002610dee9190611188565b67ffffffffffffffff811115610e0657610e066111c4565b604051908082528060200260200182016040528015610e2f578160200160208202803683370190505b5090505f805b8351811015610f7e57838181518110610e5057610e506111d8565b60200260200101515f03610e7057610e696002836111ec565b9150610f76565b5f7f00000000000000000000000000000000000000000000000000000000000000006001600160a01b0316636d5acea2868481518110610eb257610eb26111d8565b60200260200101516040518263ffffffff1660e01b8152600401610ed891815260200190565b60a060405180830381865afa158015610ef3573d5f5f3e3d5ffd5b505050506040513d601f19601f82011682018060405250810190610f17919061123d565b80519091508484610f27816112bd565b955081518110610f3957610f396111d8565b6020026020010181815250508060200151848480610f56906112bd565b955081518110610f6857610f686111d8565b602002602001018181525050505b600101610e35565b5050919050565b5f546001600160a01b031633146105e85760405163118cdaa760e01b8152336004820152602401610bbb565b5f80546001600160a01b038381166001600160a01b0319831681178455604051919092169283917f8be0079c531659141344cd1fd0a4f28419497f9722a3daafe3b4186f6b6457e09190a35050565b5f5160206112d65f395f51905f52546002036105e857604051633ee5aeb560e01b815260040160405180910390fd5b60405180604001604052806002906020820280368337509192915050565b60405180608001604052806004906020820280368337509192915050565b6001600160a01b03811681146104e4575f5ffd5b5f6020828403121561108f575f5ffd5b813561109a8161106b565b9392505050565b5f602082840312156110b1575f5ffd5b5035919050565b5f5f604083850312156110c9575f5ffd5b50508035926020909101359150565b6001600160a01b0388168152610160810160208201885f5b60028110156111185781516001600160a01b03168352602092830192909101906001016110f0565b50505060608201875f5b600481101561114a5781516001600160a01b0316835260209283019290910190600101611122565b5050508560e083015284610100830152836101208301528261014083015298975050505050505050565b634e487b7160e01b5f52601160045260245ffd5b808202811582820484141761119f5761119f611174565b92915050565b5f826111bf57634e487b7160e01b5f52601260045260245ffd5b500490565b634e487b7160e01b5f52604160045260245ffd5b634e487b7160e01b5f52603260045260245ffd5b8082018082111561119f5761119f611174565b8181038181111561119f5761119f611174565b805161121d8161106b565b919050565b5f60208284031215611232575f5ffd5b815161109a8161106b565b5f60a082840312801561124e575f5ffd5b5060405160a0810167ffffffffffffffff8111828210171561127e57634e487b7160e01b5f52604160045260245ffd5b6040908152835182526020808501519083015283810151908201526112a560608401611212565b60608201526080928301519281019290925250919050565b5f600182016112ce576112ce611174565b506001019056fe9b779b17422d0df92223018b32b4d1fa46e071723d6817e2486d003becc55f00a264697066735822122099329789922fd2d68e7a576116b65c9339e6010d8fabe640e22b005828196c5764736f6c634300081c0033",
  "linkReferences": {},
  "deployedLinkReferences": {},
  "immutableReferences": {
    "442": [
      {
        "length": 32,
        "start": 249
      },
      {
        "length": 32,
        "start": 1537
      },
      {
        "length": 32,
        "start": 1711
      },
      {
        "length": 32,
        "start": 1884
      },
      {
        "length": 32,
        "start": 2095
      },
      {
        "length": 32,
        "start": 2305
      },
      {
        "length": 32,
        "start": 2494
      },
      {
        "length": 32,
        "start": 3209
      },
      {
        "length": 32,
        "start": 3699
      }
    ]
  },
  "inputSourceName": "project/contracts/MnemoLineageSplitter.sol",
  "buildInfoId": "solc-0_8_28-78c354bb07525914e966a83b70f8ec69984031ad"
}