{
  "_format": "hh3-artifact-1",
  "contractName": "MnemoAgentNFT",
  "sourceName": "contracts/MnemoAgentNFT.sol",
  "abi": [
    {
      "inputs": [],
      "name": "AccessControlBadConfirmation",
      "type": "error"
    },
    {
      "inputs": [
        {
          "internalType": "address",
          "name": "account",
          "type": "address"
        },
        {
          "internalType": "bytes32",
          "name": "neededRole",
          "type": "bytes32"
        }
      ],
      "name": "AccessControlUnauthorizedAccount",
      "type": "error"
    },
    {
      "inputs": [],
      "name": "InvalidInitialization",
      "type": "error"
    },
    {
      "inputs": [],
      "name": "NotInitializing",
      "type": "error"
    },
    {
      "anonymous": false,
      "inputs": [
        {
          "indexed": true,
          "internalType": "address",
          "name": "_from",
          "type": "address"
        },
        {
          "indexed": true,
          "internalType": "address",
          "name": "_to",
          "type": "address"
        },
        {
          "indexed": true,
          "internalType": "uint256",
          "name": "_tokenId",
          "type": "uint256"
        }
      ],
      "name": "Approval",
      "type": "event"
    },
    {
      "anonymous": false,
      "inputs": [
        {
          "indexed": true,
          "internalType": "address",
          "name": "_owner",
          "type": "address"
        },
        {
          "indexed": true,
          "internalType": "address",
          "name": "_operator",
          "type": "address"
        },
        {
          "indexed": false,
          "internalType": "bool",
          "name": "_approved",
          "type": "bool"
        }
      ],
      "name": "ApprovalForAll",
      "type": "event"
    },
    {
      "anonymous": false,
      "inputs": [
        {
          "indexed": true,
          "internalType": "address",
          "name": "_from",
          "type": "address"
        },
        {
          "indexed": true,
          "internalType": "address",
          "name": "_to",
          "type": "address"
        },
        {
          "indexed": true,
          "internalType": "uint256",
          "name": "_tokenId",
          "type": "uint256"
        }
      ],
      "name": "Authorization",
      "type": "event"
    },
    {
      "anonymous": false,
      "inputs": [
        {
          "indexed": true,
          "internalType": "uint256",
          "name": "childTokenId",
          "type": "uint256"
        },
        {
          "indexed": true,
          "internalType": "uint256",
          "name": "parent1",
          "type": "uint256"
        },
        {
          "indexed": true,
          "internalType": "uint256",
          "name": "parent2",
          "type": "uint256"
        },
        {
          "indexed": false,
          "internalType": "address",
          "name": "breeder",
          "type": "address"
        },
        {
          "indexed": false,
          "internalType": "uint256",
          "name": "generation",
          "type": "uint256"
        }
      ],
      "name": "Bred",
      "type": "event"
    },
    {
      "anonymous": false,
      "inputs": [
        {
          "indexed": true,
          "internalType": "uint256",
          "name": "_tokenId",
          "type": "uint256"
        },
        {
          "indexed": true,
          "internalType": "uint256",
          "name": "_newTokenId",
          "type": "uint256"
        },
        {
          "indexed": false,
          "internalType": "address",
          "name": "_from",
          "type": "address"
        },
        {
          "indexed": false,
          "internalType": "address",
          "name": "_to",
          "type": "address"
        }
      ],
      "name": "Cloned",
      "type": "event"
    },
    {
      "anonymous": false,
      "inputs": [
        {
          "indexed": false,
          "internalType": "uint64",
          "name": "version",
          "type": "uint64"
        }
      ],
      "name": "Initialized",
      "type": "event"
    },
    {
      "anonymous": false,
      "inputs": [
        {
          "indexed": true,
          "internalType": "string",
          "name": "label",
          "type": "string"
        },
        {
          "indexed": false,
          "internalType": "bool",
          "name": "reserved",
          "type": "bool"
        }
      ],
      "name": "LabelReservedSet",
      "type": "event"
    },
    {
      "anonymous": false,
      "inputs": [
        {
          "indexed": true,
          "internalType": "uint256",
          "name": "_tokenId",
          "type": "uint256"
        },
        {
          "indexed": true,
          "internalType": "address",
          "name": "_creator",
          "type": "address"
        },
        {
          "indexed": true,
          "internalType": "address",
          "name": "_owner",
          "type": "address"
        },
        {
          "indexed": false,
          "internalType": "bytes32[]",
          "name": "_dataHashes",
          "type": "bytes32[]"
        },
        {
          "indexed": false,
          "internalType": "string[]",
          "name": "_dataDescriptions",
          "type": "string[]"
        }
      ],
      "name": "Minted",
      "type": "event"
    },
    {
      "anonymous": false,
      "inputs": [
        {
          "indexed": true,
          "internalType": "address",
          "name": "_to",
          "type": "address"
        },
        {
          "indexed": true,
          "internalType": "uint256",
          "name": "_tokenId",
          "type": "uint256"
        },
        {
          "indexed": false,
          "internalType": "bytes16[]",
          "name": "_sealedKeys",
          "type": "bytes16[]"
        }
      ],
      "name": "PublishedSealedKey",
      "type": "event"
    },
    {
      "anonymous": false,
      "inputs": [
        {
          "indexed": true,
          "internalType": "bytes32",
          "name": "role",
          "type": "bytes32"
        },
        {
          "indexed": true,
          "internalType": "bytes32",
          "name": "previousAdminRole",
          "type": "bytes32"
        },
        {
          "indexed": true,
          "internalType": "bytes32",
          "name": "newAdminRole",
          "type": "bytes32"
        }
      ],
      "name": "RoleAdminChanged",
      "type": "event"
    },
    {
      "anonymous": false,
      "inputs": [
        {
          "indexed": true,
          "internalType": "bytes32",
          "name": "role",
          "type": "bytes32"
        },
        {
          "indexed": true,
          "internalType": "address",
          "name": "account",
          "type": "address"
        },
        {
          "indexed": true,
          "internalType": "address",
          "name": "sender",
          "type": "address"
        }
      ],
      "name": "RoleGranted",
      "type": "event"
    },
    {
      "anonymous": false,
      "inputs": [
        {
          "indexed": true,
          "internalType": "bytes32",
          "name": "role",
          "type": "bytes32"
        },
        {
          "indexed": true,
          "internalType": "address",
          "name": "account",
          "type": "address"
        },
        {
          "indexed": true,
          "internalType": "address",
          "name": "sender",
          "type": "address"
        }
      ],
      "name": "RoleRevoked",
      "type": "event"
    },
    {
      "anonymous": false,
      "inputs": [
        {
          "indexed": true,
          "internalType": "uint256",
          "name": "tokenId",
          "type": "uint256"
        },
        {
          "indexed": false,
          "internalType": "string",
          "name": "label",
          "type": "string"
        },
        {
          "indexed": true,
          "internalType": "address",
          "name": "holder",
          "type": "address"
        }
      ],
      "name": "SubnameIssued",
      "type": "event"
    },
    {
      "anonymous": false,
      "inputs": [
        {
          "indexed": false,
          "internalType": "string",
          "name": "label",
          "type": "string"
        },
        {
          "indexed": true,
          "internalType": "address",
          "name": "from",
          "type": "address"
        },
        {
          "indexed": true,
          "internalType": "address",
          "name": "to",
          "type": "address"
        }
      ],
      "name": "SubnameTransferred",
      "type": "event"
    },
    {
      "anonymous": false,
      "inputs": [
        {
          "indexed": true,
          "internalType": "string",
          "name": "label",
          "type": "string"
        },
        {
          "indexed": true,
          "internalType": "string",
          "name": "key",
          "type": "string"
        }
      ],
      "name": "TextRecordCleared",
      "type": "event"
    },
    {
      "anonymous": false,
      "inputs": [
        {
          "indexed": true,
          "internalType": "string",
          "name": "label",
          "type": "string"
        },
        {
          "indexed": true,
          "internalType": "string",
          "name": "key",
          "type": "string"
        },
        {
          "indexed": false,
          "internalType": "string",
          "name": "value",
          "type": "string"
        }
      ],
      "name": "TextRecordSet",
      "type": "event"
    },
    {
      "anonymous": false,
      "inputs": [
        {
          "indexed": false,
          "internalType": "uint256",
          "name": "_tokenId",
          "type": "uint256"
        },
        {
          "indexed": true,
          "internalType": "address",
          "name": "_from",
          "type": "address"
        },
        {
          "indexed": true,
          "internalType": "address",
          "name": "_to",
          "type": "address"
        }
      ],
      "name": "Transferred",
      "type": "event"
    },
    {
      "anonymous": false,
      "inputs": [
        {
          "indexed": true,
          "internalType": "uint256",
          "name": "_tokenId",
          "type": "uint256"
        },
        {
          "indexed": false,
          "internalType": "bytes32[]",
          "name": "_oldDataHashes",
          "type": "bytes32[]"
        },
        {
          "indexed": false,
          "internalType": "bytes32[]",
          "name": "_newDataHashes",
          "type": "bytes32[]"
        }
      ],
      "name": "Updated",
      "type": "event"
    },
    {
      "inputs": [],
      "name": "ADMIN_ROLE",
      "outputs": [
        {
          "internalType": "bytes32",
          "name": "",
          "type": "bytes32"
        }
      ],
      "stateMutability": "view",
      "type": "function"
    },
    {
      "inputs": [],
      "name": "DEFAULT_ADMIN_ROLE",
      "outputs": [
        {
          "internalType": "bytes32",
          "name": "",
          "type": "bytes32"
        }
      ],
      "stateMutability": "view",
      "type": "function"
    },
    {
      "inputs": [],
      "name": "VERSION",
      "outputs": [
        {
          "internalType": "string",
          "name": "",
          "type": "string"
        }
      ],
      "stateMutability": "view",
      "type": "function"
    },
    {
      "inputs": [
        {
          "internalType": "string",
          "name": "label",
          "type": "string"
        }
      ],
      "name": "addressForLabel",
      "outputs": [
        {
          "internalType": "address",
          "name": "",
          "type": "address"
        }
      ],
      "stateMutability": "view",
      "type": "function"
    },
    {
      "inputs": [
        {
          "internalType": "address",
          "name": "to",
          "type": "address"
        },
        {
          "internalType": "uint256",
          "name": "tokenId",
          "type": "uint256"
        }
      ],
      "name": "approve",
      "outputs": [],
      "stateMutability": "nonpayable",
      "type": "function"
    },
    {
      "inputs": [
        {
          "internalType": "uint256",
          "name": "tokenId",
          "type": "uint256"
        },
        {
          "internalType": "address",
          "name": "to",
          "type": "address"
        }
      ],
      "name": "authorizeUsage",
      "outputs": [],
      "stateMutability": "nonpayable",
      "type": "function"
    },
    {
      "inputs": [
        {
          "internalType": "uint256",
          "name": "tokenId",
          "type": "uint256"
        }
      ],
      "name": "authorizedUsersOf",
      "outputs": [
        {
          "internalType": "address[]",
          "name": "",
          "type": "address[]"
        }
      ],
      "stateMutability": "view",
      "type": "function"
    },
    {
      "inputs": [
        {
          "internalType": "uint256",
          "name": "parent1Id",
          "type": "uint256"
        },
        {
          "internalType": "uint256",
          "name": "parent2Id",
          "type": "uint256"
        },
        {
          "internalType": "address",
          "name": "to",
          "type": "address"
        },
        {
          "internalType": "bytes[]",
          "name": "proofs",
          "type": "bytes[]"
        },
        {
          "internalType": "string[]",
          "name": "dataDescriptions",
          "type": "string[]"
        },
        {
          "internalType": "string",
          "name": "label",
          "type": "string"
        }
      ],
      "name": "breed",
      "outputs": [
        {
          "internalType": "uint256",
          "name": "childTokenId",
          "type": "uint256"
        }
      ],
      "stateMutability": "nonpayable",
      "type": "function"
    },
    {
      "inputs": [
        {
          "internalType": "uint256",
          "name": "tokenId",
          "type": "uint256"
        }
      ],
      "name": "childrenOf",
      "outputs": [
        {
          "internalType": "uint256[]",
          "name": "",
          "type": "uint256[]"
        }
      ],
      "stateMutability": "view",
      "type": "function"
    },
    {
      "inputs": [
        {
          "internalType": "address",
          "name": "to",
          "type": "address"
        },
        {
          "internalType": "uint256",
          "name": "tokenId",
          "type": "uint256"
        },
        {
          "internalType": "bytes[]",
          "name": "proofs",
          "type": "bytes[]"
        }
      ],
      "name": "clone",
      "outputs": [
        {
          "internalType": "uint256",
          "name": "",
          "type": "uint256"
        }
      ],
      "stateMutability": "nonpayable",
      "type": "function"
    },
    {
      "inputs": [
        {
          "internalType": "address",
          "name": "from",
          "type": "address"
        },
        {
          "internalType": "address",
          "name": "to",
          "type": "address"
        },
        {
          "internalType": "uint256",
          "name": "tokenId",
          "type": "uint256"
        },
        {
          "internalType": "bytes[]",
          "name": "proofs",
          "type": "bytes[]"
        }
      ],
      "name": "cloneFrom",
      "outputs": [
        {
          "internalType": "uint256",
          "name": "",
          "type": "uint256"
        }
      ],
      "stateMutability": "nonpayable",
      "type": "function"
    },
    {
      "inputs": [
        {
          "internalType": "uint256",
          "name": "tokenId",
          "type": "uint256"
        }
      ],
      "name": "dataDescriptionsOf",
      "outputs": [
        {
          "internalType": "string[]",
          "name": "",
          "type": "string[]"
        }
      ],
      "stateMutability": "view",
      "type": "function"
    },
    {
      "inputs": [
        {
          "internalType": "uint256",
          "name": "tokenId",
          "type": "uint256"
        }
      ],
      "name": "dataHashesOf",
      "outputs": [
        {
          "internalType": "bytes32[]",
          "name": "",
          "type": "bytes32[]"
        }
      ],
      "stateMutability": "view",
      "type": "function"
    },
    {
      "inputs": [
        {
          "internalType": "uint256",
          "name": "tokenId",
          "type": "uint256"
        }
      ],
      "name": "getApproved",
      "outputs": [
        {
          "internalType": "address",
          "name": "operator",
          "type": "address"
        }
      ],
      "stateMutability": "view",
      "type": "function"
    },
    {
      "inputs": [
        {
          "internalType": "bytes32",
          "name": "role",
          "type": "bytes32"
        }
      ],
      "name": "getRoleAdmin",
      "outputs": [
        {
          "internalType": "bytes32",
          "name": "",
          "type": "bytes32"
        }
      ],
      "stateMutability": "view",
      "type": "function"
    },
    {
      "inputs": [
        {
          "internalType": "bytes32",
          "name": "role",
          "type": "bytes32"
        },
        {
          "internalType": "uint256",
          "name": "index",
          "type": "uint256"
        }
      ],
      "name": "getRoleMember",
      "outputs": [
        {
          "internalType": "address",
          "name": "",
          "type": "address"
        }
      ],
      "stateMutability": "view",
      "type": "function"
    },
    {
      "inputs": [
        {
          "internalType": "bytes32",
          "name": "role",
          "type": "bytes32"
        }
      ],
      "name": "getRoleMemberCount",
      "outputs": [
        {
          "internalType": "uint256",
          "name": "",
          "type": "uint256"
        }
      ],
      "stateMutability": "view",
      "type": "function"
    },
    {
      "inputs": [
        {
          "internalType": "bytes32",
          "name": "role",
          "type": "bytes32"
        }
      ],
      "name": "getRoleMembers",
      "outputs": [
        {
          "internalType": "address[]",
          "name": "",
          "type": "address[]"
        }
      ],
      "stateMutability": "view",
      "type": "function"
    },
    {
      "inputs": [
        {
          "internalType": "bytes32",
          "name": "role",
          "type": "bytes32"
        },
        {
          "internalType": "address",
          "name": "account",
          "type": "address"
        }
      ],
      "name": "grantRole",
      "outputs": [],
      "stateMutability": "nonpayable",
      "type": "function"
    },
    {
      "inputs": [
        {
          "internalType": "bytes32",
          "name": "role",
          "type": "bytes32"
        },
        {
          "internalType": "address",
          "name": "account",
          "type": "address"
        }
      ],
      "name": "hasRole",
      "outputs": [
        {
          "internalType": "bool",
          "name": "",
          "type": "bool"
        }
      ],
      "stateMutability": "view",
      "type": "function"
    },
    {
      "inputs": [
        {
          "internalType": "string",
          "name": "",
          "type": "string"
        },
        {
          "internalType": "string",
          "name": "",
          "type": "string"
        },
        {
          "internalType": "address",
          "name": "verifierAddr",
          "type": "address"
        },
        {
          "internalType": "string",
          "name": "chainURL_",
          "type": "string"
        },
        {
          "internalType": "string",
          "name": "indexerURL_",
          "type": "string"
        }
      ],
      "name": "initialize",
      "outputs": [],
      "stateMutability": "nonpayable",
      "type": "function"
    },
    {
      "inputs": [
        {
          "internalType": "address",
          "name": "owner",
          "type": "address"
        },
        {
          "internalType": "address",
          "name": "operator",
          "type": "address"
        }
      ],
      "name": "isApprovedForAll",
      "outputs": [
        {
          "internalType": "bool",
          "name": "",
          "type": "bool"
        }
      ],
      "stateMutability": "view",
      "type": "function"
    },
    {
      "inputs": [
        {
          "internalType": "string",
          "name": "label",
          "type": "string"
        }
      ],
      "name": "isLabelReserved",
      "outputs": [
        {
          "internalType": "bool",
          "name": "",
          "type": "bool"
        }
      ],
      "stateMutability": "view",
      "type": "function"
    },
    {
      "inputs": [
        {
          "internalType": "string",
          "name": "label",
          "type": "string"
        }
      ],
      "name": "isLabelTaken",
      "outputs": [
        {
          "internalType": "bool",
          "name": "",
          "type": "bool"
        }
      ],
      "stateMutability": "view",
      "type": "function"
    },
    {
      "inputs": [
        {
          "internalType": "uint256",
          "name": "tokenId",
          "type": "uint256"
        }
      ],
      "name": "labelForTokenId",
      "outputs": [
        {
          "internalType": "string",
          "name": "",
          "type": "string"
        }
      ],
      "stateMutability": "view",
      "type": "function"
    },
    {
      "inputs": [
        {
          "internalType": "uint256",
          "name": "tokenId",
          "type": "uint256"
        }
      ],
      "name": "lineageOf",
      "outputs": [
        {
          "components": [
            {
              "internalType": "uint256",
              "name": "parent1",
              "type": "uint256"
            },
            {
              "internalType": "uint256",
              "name": "parent2",
              "type": "uint256"
            },
            {
              "internalType": "uint256",
              "name": "generation",
              "type": "uint256"
            },
            {
              "internalType": "address",
              "name": "breeder",
              "type": "address"
            },
            {
              "internalType": "uint256",
              "name": "birthBlock",
              "type": "uint256"
            }
          ],
          "internalType": "struct MnemoAgentNFT.Lineage",
          "name": "",
          "type": "tuple"
        }
      ],
      "stateMutability": "view",
      "type": "function"
    },
    {
      "inputs": [
        {
          "internalType": "bytes[]",
          "name": "proofs",
          "type": "bytes[]"
        },
        {
          "internalType": "string[]",
          "name": "dataDescriptions",
          "type": "string[]"
        },
        {
          "internalType": "address",
          "name": "to",
          "type": "address"
        }
      ],
      "name": "mint",
      "outputs": [
        {
          "internalType": "uint256",
          "name": "tokenId",
          "type": "uint256"
        }
      ],
      "stateMutability": "payable",
      "type": "function"
    },
    {
      "inputs": [
        {
          "internalType": "bytes[]",
          "name": "proofs",
          "type": "bytes[]"
        },
        {
          "internalType": "string[]",
          "name": "dataDescriptions",
          "type": "string[]"
        },
        {
          "internalType": "address",
          "name": "to",
          "type": "address"
        },
        {
          "internalType": "string",
          "name": "label",
          "type": "string"
        }
      ],
      "name": "mintWithSubname",
      "outputs": [
        {
          "internalType": "uint256",
          "name": "tokenId",
          "type": "uint256"
        }
      ],
      "stateMutability": "payable",
      "type": "function"
    },
    {
      "inputs": [],
      "name": "name",
      "outputs": [
        {
          "internalType": "string",
          "name": "",
          "type": "string"
        }
      ],
      "stateMutability": "pure",
      "type": "function"
    },
    {
      "inputs": [],
      "name": "nextTokenId",
      "outputs": [
        {
          "internalType": "uint256",
          "name": "",
          "type": "uint256"
        }
      ],
      "stateMutability": "view",
      "type": "function"
    },
    {
      "inputs": [
        {
          "internalType": "uint256",
          "name": "tokenId",
          "type": "uint256"
        }
      ],
      "name": "ownerOf",
      "outputs": [
        {
          "internalType": "address",
          "name": "",
          "type": "address"
        }
      ],
      "stateMutability": "view",
      "type": "function"
    },
    {
      "inputs": [
        {
          "internalType": "bytes32",
          "name": "role",
          "type": "bytes32"
        },
        {
          "internalType": "address",
          "name": "callerConfirmation",
          "type": "address"
        }
      ],
      "name": "renounceRole",
      "outputs": [],
      "stateMutability": "nonpayable",
      "type": "function"
    },
    {
      "inputs": [
        {
          "internalType": "bytes32",
          "name": "role",
          "type": "bytes32"
        },
        {
          "internalType": "address",
          "name": "account",
          "type": "address"
        }
      ],
      "name": "revokeRole",
      "outputs": [],
      "stateMutability": "nonpayable",
      "type": "function"
    },
    {
      "inputs": [
        {
          "internalType": "address",
          "name": "to",
          "type": "address"
        },
        {
          "internalType": "bool",
          "name": "approved",
          "type": "bool"
        }
      ],
      "name": "setApprovalForAll",
      "outputs": [],
      "stateMutability": "nonpayable",
      "type": "function"
    },
    {
      "inputs": [
        {
          "internalType": "string",
          "name": "label",
          "type": "string"
        },
        {
          "internalType": "bool",
          "name": "reserved",
          "type": "bool"
        }
      ],
      "name": "setReserved",
      "outputs": [],
      "stateMutability": "nonpayable",
      "type": "function"
    },
    {
      "inputs": [
        {
          "internalType": "uint256",
          "name": "tokenId",
          "type": "uint256"
        },
        {
          "internalType": "address",
          "name": "newAddr",
          "type": "address"
        }
      ],
      "name": "setSubnameAddress",
      "outputs": [],
      "stateMutability": "nonpayable",
      "type": "function"
    },
    {
      "inputs": [
        {
          "internalType": "uint256",
          "name": "tokenId",
          "type": "uint256"
        },
        {
          "internalType": "string",
          "name": "key",
          "type": "string"
        },
        {
          "internalType": "string",
          "name": "value",
          "type": "string"
        }
      ],
      "name": "setText",
      "outputs": [],
      "stateMutability": "nonpayable",
      "type": "function"
    },
    {
      "inputs": [
        {
          "internalType": "uint256",
          "name": "tokenId",
          "type": "uint256"
        },
        {
          "internalType": "string[]",
          "name": "keys",
          "type": "string[]"
        },
        {
          "internalType": "string[]",
          "name": "values",
          "type": "string[]"
        }
      ],
      "name": "setTexts",
      "outputs": [],
      "stateMutability": "nonpayable",
      "type": "function"
    },
    {
      "inputs": [
        {
          "internalType": "bytes4",
          "name": "interfaceId",
          "type": "bytes4"
        }
      ],
      "name": "supportsInterface",
      "outputs": [
        {
          "internalType": "bool",
          "name": "",
          "type": "bool"
        }
      ],
      "stateMutability": "view",
      "type": "function"
    },
    {
      "inputs": [],
      "name": "symbol",
      "outputs": [
        {
          "internalType": "string",
          "name": "",
          "type": "string"
        }
      ],
      "stateMutability": "pure",
      "type": "function"
    },
    {
      "inputs": [
        {
          "internalType": "string",
          "name": "label",
          "type": "string"
        },
        {
          "internalType": "string",
          "name": "key",
          "type": "string"
        }
      ],
      "name": "textForLabel",
      "outputs": [
        {
          "internalType": "string",
          "name": "",
          "type": "string"
        }
      ],
      "stateMutability": "view",
      "type": "function"
    },
    {
      "inputs": [
        {
          "internalType": "string",
          "name": "label",
          "type": "string"
        }
      ],
      "name": "tokenIdForLabel",
      "outputs": [
        {
          "internalType": "uint256",
          "name": "",
          "type": "uint256"
        }
      ],
      "stateMutability": "view",
      "type": "function"
    },
    {
      "inputs": [
        {
          "internalType": "uint256",
          "name": "tokenId",
          "type": "uint256"
        }
      ],
      "name": "tokenURI",
      "outputs": [
        {
          "internalType": "string",
          "name": "",
          "type": "string"
        }
      ],
      "stateMutability": "view",
      "type": "function"
    },
    {
      "inputs": [
        {
          "internalType": "address",
          "name": "to",
          "type": "address"
        },
        {
          "internalType": "uint256",
          "name": "tokenId",
          "type": "uint256"
        },
        {
          "internalType": "bytes[]",
          "name": "proofs",
          "type": "bytes[]"
        }
      ],
      "name": "transfer",
      "outputs": [],
      "stateMutability": "nonpayable",
      "type": "function"
    },
    {
      "inputs": [
        {
          "internalType": "address",
          "name": "from",
          "type": "address"
        },
        {
          "internalType": "address",
          "name": "to",
          "type": "address"
        },
        {
          "internalType": "uint256",
          "name": "tokenId",
          "type": "uint256"
        },
        {
          "internalType": "bytes[]",
          "name": "proofs",
          "type": "bytes[]"
        }
      ],
      "name": "transferFrom",
      "outputs": [],
      "stateMutability": "nonpayable",
      "type": "function"
    },
    {
      "inputs": [
        {
          "internalType": "uint256",
          "name": "tokenId",
          "type": "uint256"
        },
        {
          "internalType": "bytes[]",
          "name": "proofs",
          "type": "bytes[]"
        }
      ],
      "name": "update",
      "outputs": [],
      "stateMutability": "nonpayable",
      "type": "function"
    },
    {
      "inputs": [
        {
          "internalType": "string",
          "name": "newChainURL",
          "type": "string"
        },
        {
          "internalType": "string",
          "name": "newIndexerURL",
          "type": "string"
        }
      ],
      "name": "updateURLS",
      "outputs": [],
      "stateMutability": "nonpayable",
      "type": "function"
    },
    {
      "inputs": [
        {
          "internalType": "address",
          "name": "newVerifier",
          "type": "address"
        }
      ],
      "name": "updateVerifier",
      "outputs": [],
      "stateMutability": "nonpayable",
      "type": "function"
    },
    {
      "inputs": [],
      "name": "verifier",
      "outputs": [
        {
          "internalType": "contract IERC7857DataVerifier",
          "name": "",
          "type": "address"
        }
      ],
      "stateMutability": "view",
      "type": "function"
    }
  ],
  "bytecode": "0x6080604052348015600e575f5ffd5b5060156019565b60c9565b7ff0c57e16840df040f15088dc2f81fe391c3923bec73e23a9662efc9c229c6a00805468010000000000000000900460ff161560685760405163f92ee8a960e01b815260040160405180910390fd5b80546001600160401b039081161460c65780546001600160401b0319166001600160401b0390811782556040519081527fc7f505b2f371ae2175ee4913f4499e1f2633a7b5936321eed1cdaeb6115181d29060200160405180910390a15b50565b6154e1806100d65f395ff3fe6080604052600436106102a4575f3560e01c80637a005b361161016f578063b19881b4116100d8578063dfdad7de11610092578063ede1e10b1161006d578063ede1e10b146108c9578063fa83d14e146108e8578063fd0be72214610907578063ffa1ad7414610926575f5ffd5b8063dfdad7de1461086c578063e7ab28d81461088b578063e985e9c5146108aa575f5ffd5b8063b19881b4146107be578063c87b56dd146107d1578063ca15c873146107f0578063cf84eb001461080f578063d3d6e39e1461082e578063d547741f1461084d575f5ffd5b806397fc007c1161012957806397fc007c1461071c578063a217fddf1461073b578063a22cb4651461074e578063a3246ad31461076d578063a50144521461078c578063a83573261461079f575f5ffd5b80637a005b36146106475780637ec8ffc51461067357806383a7fdce146106925780639010d07c146106b157806391d14854146106d057806395d89b41146106ef575f5ffd5b806336568abe116102115780636352211e116101cb5780636352211e146105445780636d5acea2146105635780636f19951c146105c85780637289fdd6146105f457806375794a3c1461061357806375b238fc14610627575f5ffd5b806336568abe1461048a578063389f8754146104a95780633fb24782146104c85780634bf5b0c1146104e757806352f5407314610506578063594400d014610525575f5ffd5b8063145cb9dd11610262578063145cb9dd146103c05780631aeb542f146103df578063248a9ca31461040b5780632ae233d9146104385780632b7ac3f3146104575780632f2ff15d1461046b575f5ffd5b80626198c1146102a857806301ffc9a7146102c957806306fdde03146102fd578063081812fc1461033e578063095ea7b3146103755780630beef18f14610394575b5f5ffd5b3480156102b3575f5ffd5b506102c76102c2366004614298565b610956565b005b3480156102d4575f5ffd5b506102e86102e336600461435f565b610a9b565b60405190151581526020015b60405180910390f35b348015610308575f5ffd5b5060408051808201909152601081526f4d6e656d6f73796e65204167656e747360801b60208201525b6040516102f491906143b4565b348015610349575f5ffd5b5061035d6103583660046143c6565b610ac5565b6040516001600160a01b0390911681526020016102f4565b348015610380575f5ffd5b506102c761038f3660046143dd565b610aec565b34801561039f575f5ffd5b506103b36103ae3660046143c6565b610b92565b6040516102f49190614407565b3480156103cb575f5ffd5b506102c76103da3660046144b1565b610cad565b3480156103ea575f5ffd5b506103fe6103f93660046143c6565b610ccb565b6040516102f4919061451e565b348015610416575f5ffd5b5061042a6104253660046143c6565b610d72565b6040519081526020016102f4565b348015610443575f5ffd5b5061042a6104523660046145a6565b610d92565b348015610462575f5ffd5b5061035d610dcb565b348015610476575f5ffd5b506102c76104853660046145e4565b610de6565b348015610495575f5ffd5b506102c76104a43660046145e4565b610e08565b3480156104b4575f5ffd5b506102c76104c3366004614612565b610e40565b3480156104d3575f5ffd5b506102c76104e2366004614659565b610f40565b3480156104f2575f5ffd5b506103316105013660046146bf565b61119a565b348015610511575f5ffd5b506102c7610520366004614729565b61127a565b348015610530575f5ffd5b5061035d61053f3660046145a6565b611618565b34801561054f575f5ffd5b5061035d61055e3660046143c6565b611658565b34801561056e575f5ffd5b5061058261057d3660046143c6565b6116ab565b6040516102f491908151815260208083015190820152604080830151908201526060808301516001600160a01b0316908201526080918201519181019190915260a00190565b3480156105d3575f5ffd5b506105e76105e23660046143c6565b611757565b6040516102f49190614783565b3480156105ff575f5ffd5b5061042a61060e3660046147ba565b6117d5565b34801561061e575f5ffd5b5061042a611853565b348015610632575f5ffd5b5061042a5f51602061548c5f395f51905f5281565b348015610652575f5ffd5b506106666106613660046143c6565b611865565b6040516102f4919061483f565b34801561067e575f5ffd5b5061042a61068d366004614851565b611901565b34801561069d575f5ffd5b506102c76106ac3660046145e4565b611d47565b3480156106bc575f5ffd5b5061035d6106cb366004614913565b611f1a565b3480156106db575f5ffd5b506102e86106ea3660046145e4565b611f47565b3480156106fa575f5ffd5b506040805180820190915260058152644d4e454d4f60d81b6020820152610331565b348015610727575f5ffd5b506102c7610736366004614933565b611f7d565b348015610746575f5ffd5b5061042a5f81565b348015610759575f5ffd5b506102c761076836600461495b565b611fe8565b348015610778575f5ffd5b506103fe6107873660046143c6565b612061565b61042a61079a366004614987565b612091565b3480156107aa575f5ffd5b506102e86107b93660046145a6565b61226f565b61042a6107cc366004614a08565b6122ac565b3480156107dc575f5ffd5b506103316107eb3660046143c6565b6124d2565b3480156107fb575f5ffd5b5061042a61080a3660046143c6565b61255b565b34801561081a575f5ffd5b506102c7610829366004614ab6565b61257f565b348015610839575f5ffd5b506102e86108483660046145a6565b612628565b348015610858575f5ffd5b506102c76108673660046145e4565b61264a565b348015610877575f5ffd5b506102c76108863660046147ba565b612666565b348015610896575f5ffd5b5061042a6108a53660046144b1565b61267c565b3480156108b5575f5ffd5b506102e86108c4366004614b08565b6127a4565b3480156108d4575f5ffd5b506103316108e33660046143c6565b6127e1565b3480156108f3575f5ffd5b506102c76109023660046145e4565b612882565b348015610912575f5ffd5b506102c7610921366004614b34565b612930565b348015610931575f5ffd5b50610331604051806040016040528060058152602001640312e302e360dc1b81525081565b5f61095f61296f565b805490915060ff600160401b82041615906001600160401b03165f811580156109855750825b90505f826001600160401b031660011480156109a05750303b155b9050811580156109ae575080155b156109cc5760405163f92ee8a960e01b815260040160405180910390fd5b845467ffffffffffffffff1916600117855583156109f657845460ff60401b1916600160401b1785555b610a486040518060400160405280601081526020016f4d6e656d6f73796e65204167656e747360801b815250604051806040016040528060058152602001644d4e454d4f60d81b8152508a8a8a612997565b8315610a8f57845460ff60401b19168555604051600181527fc7f505b2f371ae2175ee4913f4499e1f2633a7b5936321eed1cdaeb6115181d2906020015b60405180910390a15b50505050505050505050565b5f6001600160e01b03198216635a05180f60e01b1480610abf5750610abf82612b2d565b92915050565b5f5f610acf612b61565b5f938452602052505060409020600401546001600160a01b031690565b5f610af5612b61565b5f838152602082905260409020549091506001600160a01b03163314610b365760405162461bcd60e51b8152600401610b2d90614b97565b60405180910390fd5b5f8281526020829052604080822060040180546001600160a01b0319166001600160a01b0387169081179091559051849233917f8c5be1e5ebec7d5bd14f71427d1e84f3dd0314c0f7b2291e5b200ac8c7c3b9259190a4505050565b60605f610b9d612b61565b5f8481526020829052604090208054919250906001600160a01b0316610bd55760405162461bcd60e51b8152600401610b2d90614bba565b80600101805480602002602001604051908101604052809291908181526020015f905b82821015610ca0578382905f5260205f20018054610c1590614be3565b80601f0160208091040260200160405190810160405280929190818152602001828054610c4190614be3565b8015610c8c5780601f10610c6357610100808354040283529160200191610c8c565b820191905f5260205f20905b815481529060010190602001808311610c6f57829003601f168201915b505050505081526020019060010190610bf8565b5050505092505050919050565b610cba8585858585612b85565b610cc48385612d72565b5050505050565b60605f610cd6612b61565b5f8481526020829052604090208054919250906001600160a01b0316610d0e5760405162461bcd60e51b8152600401610b2d90614bba565b80600301805480602002602001604051908101604052809291908181526020018280548015610d6457602002820191905f5260205f20905b81546001600160a01b03168152600190910190602001808311610d46575b505050505092505050919050565b5f9081525f51602061542c5f395f51905f52602052604090206001015490565b5f5f51602061544c5f395f51905f526001018383604051610db4929190614c1b565b908152602001604051809103902054905092915050565b5f610dd4612b61565b600701546001600160a01b0316919050565b610def82610d72565b610df881612e83565b610e028383612e90565b50505050565b6001600160a01b0381163314610e315760405163334bd91960e11b815260040160405180910390fd5b610e3b8282612ed2565b505050565b5f610e49612b61565b5f8581526020829052604090208054919250906001600160a01b03163314610e835760405162461bcd60e51b8152600401610b2d90614b97565b5f610e8f838686612f0b565b90505f82600201805480602002602001604051908101604052809291908181526020018280548015610ede57602002820191905f5260205f20905b815481526020019060010190808311610eca575b50508551939450610efc936002880193506020870192509050614038565b50867f51fa73895ca2bd4c7f525775384b199b6047f069e662b82aa9e1b0998b9c29758284604051610f2f929190614c2a565b60405180910390a250505050505050565b33610f4a86611658565b6001600160a01b031614610f705760405162461bcd60e51b8152600401610b2d90614b97565b5f8581525f51602061546c5f395f51905f526020526040812080545f51602061544c5f395f51905f52929190610fa590614be3565b80601f0160208091040260200160405190810160405280929190818152602001828054610fd190614be3565b801561101c5780601f10610ff35761010080835404028352916020019161101c565b820191905f5260205f20905b815481529060010190602001808311610fff57829003601f168201915b505050505090505f8151116110435760405162461bcd60e51b8152600401610b2d90614c57565b5f8390036110ee57816004018160405161105d9190614c92565b9081526020016040518091039020868660405161107b929190614c1b565b90815260200160405180910390205f6110949190614081565b85856040516110a4929190614c1b565b6040518091039020816040516110ba9190614c92565b604051908190038120907fd3719f3b4e97aa05a10666e3c81aaf4ff60ec6dbde62ede65de2426869f4937c905f90a3611191565b838383600401836040516111029190614c92565b90815260200160405180910390208888604051611120929190614c1b565b9081526020016040518091039020918261113b929190614ce1565b50858560405161114c929190614c1b565b6040518091039020816040516111629190614c92565b60405180910390205f51602061540c5f395f51905f528686604051611188929190614dc2565b60405180910390a35b50505050505050565b60605f51602061544c5f395f51905f5260040185856040516111bd929190614c1b565b908152602001604051809103902083836040516111db929190614c1b565b908152602001604051809103902080546111f490614be3565b80601f016020809104026020016040519081016040528092919081815260200182805461122090614be3565b801561126b5780601f106112425761010080835404028352916020019161126b565b820191905f5260205f20905b81548152906001019060200180831161124e57829003601f168201915b50505050509050949350505050565b3361128486611658565b6001600160a01b0316146112aa5760405162461bcd60e51b8152600401610b2d90614b97565b8281146112eb5760405162461bcd60e51b815260206004820152600f60248201526e098cadccee8d040dad2e6dac2e8c6d608b1b6044820152606401610b2d565b5f8581525f51602061546c5f395f51905f526020526040812080545f51602061544c5f395f51905f5292919061132090614be3565b80601f016020809104026020016040519081016040528092919081815260200182805461134c90614be3565b80156113975780601f1061136e57610100808354040283529160200191611397565b820191905f5260205f20905b81548152906001019060200180831161137a57829003601f168201915b505050505090505f8151116113be5760405162461bcd60e51b8152600401610b2d90614c57565b5f5b8581101561160e578484828181106113da576113da614dd5565b90506020028101906113ec9190614de9565b90505f036114db5782600401826040516114069190614c92565b908152602001604051809103902087878381811061142657611426614dd5565b90506020028101906114389190614de9565b604051611446929190614c1b565b90815260200160405180910390205f61145f9190614081565b86868281811061147157611471614dd5565b90506020028101906114839190614de9565b604051611491929190614c1b565b6040518091039020826040516114a79190614c92565b604051908190038120907fd3719f3b4e97aa05a10666e3c81aaf4ff60ec6dbde62ede65de2426869f4937c905f90a3611606565b8484828181106114ed576114ed614dd5565b90506020028101906114ff9190614de9565b84600401846040516115119190614c92565b908152602001604051809103902089898581811061153157611531614dd5565b90506020028101906115439190614de9565b604051611551929190614c1b565b9081526020016040518091039020918261156c929190614ce1565b5086868281811061157f5761157f614dd5565b90506020028101906115919190614de9565b60405161159f929190614c1b565b6040518091039020826040516115b59190614c92565b60405180910390205f51602061540c5f395f51905f528787858181106115dd576115dd614dd5565b90506020028101906115ef9190614de9565b6040516115fd929190614dc2565b60405180910390a35b6001016113c0565b5050505050505050565b5f5f51602061544c5f395f51905f526040516116379085908590614c1b565b908152604051908190036020019020546001600160a01b0316905092915050565b5f5f611662612b61565b5f8481526020829052604090208054919250906001600160a01b031661169a5760405162461bcd60e51b8152600401610b2d90614bba565b546001600160a01b03169392505050565b6116e16040518060a001604052805f81526020015f81526020015f81526020015f6001600160a01b031681526020015f81525090565b505f9081527f056fd9b766381751453e856e178e6a31bebc85b06c3346484e0fd5926790ce066020908152604091829020825160a0810184528154815260018201549281019290925260028101549282019290925260038201546001600160a01b03166060820152600490910154608082015290565b5f8181527f056fd9b766381751453e856e178e6a31bebc85b06c3346484e0fd5926790ce0760209081526040918290208054835181840281018401909452808452606093928301828280156117c957602002820191905f5260205f20905b8154815260200190600101908083116117b5575b50505050509050919050565b5f5f6117df612b61565b90506001600160a01b0386166118075760405162461bcd60e51b8152600401610b2d90614e2b565b5f858152602082905260409020546001600160a01b0316331461183c5760405162461bcd60e51b8152600401610b2d90614b97565b6118498186888787613086565b9695505050505050565b5f61185c612b61565b60020154905090565b60605f611870612b61565b5f8481526020829052604090208054919250906001600160a01b03166118a85760405162461bcd60e51b8152600401610b2d90614bba565b80600201805480602002602001604051908101604052809291908181526020018280548015610d6457602002820191905f5260205f20905b8154815260200190600101908083116118e057505050505092505050919050565b5f888a036119515760405162461bcd60e51b815260206004820152601960248201527f53656c662d6272656564696e67206e6f7420616c6c6f776564000000000000006044820152606401610b2d565b61195a8a6132f4565b6119995760405162461bcd60e51b815260206004820152601060248201526f506172656e742031206d697373696e6760801b6044820152606401610b2d565b6119a2896132f4565b6119e15760405162461bcd60e51b815260206004820152601060248201526f506172656e742032206d697373696e6760801b6044820152606401610b2d565b6001600160a01b0388166119f3573397505b611a02878787878c88886122ac565b90505f51602061544c5f395f51905f525f611a1d8c8c61331d565b611a28906001614e65565b90506040518060a001604052808d81526020018c8152602001828152602001336001600160a01b0316815260200143815250826006015f8581526020019081526020015f205f820151815f015560208201518160010155604082015181600201556060820151816003015f6101000a8154816001600160a01b0302191690836001600160a01b0316021790555060808201518160040155905050816007015f8d81526020019081526020015f2083908060018154018082558091505060019003905f5260205f20015f9091909190915055816007015f8c81526020019081526020015f2083908060018154018082558091505060019003905f5260205f20015f90919091909150555f611b3a8d613375565b611b438d613375565b604051602001611b54929190614e78565b604051602081830303815290604052905080836004018787604051611b7a929190614c1b565b90815260405190819003602001812066706172656e747360c81b82529060070190815260200160405180910390209081611bb49190614e97565b5060405166706172656e747360c81b815260070160405180910390208686604051611be0929190614c1b565b60405180910390205f51602061540c5f395f51905f5283604051611c0491906143b4565b60405180910390a35f611c1683613375565b905080846004018888604051611c2d929190614c1b565b9081526040519081900360200181206933b2b732b930ba34b7b760b11b825290600a0190815260200160405180910390209081611c6a9190614e97565b506040516933b2b732b930ba34b7b760b11b8152600a0160405180910390208787604051611c99929190614c1b565b60405180910390205f51602061540c5f395f51905f5283604051611cbd91906143b4565b60405180910390a35f611ccf86613375565b9050611cdb8f82613404565b611ce58e82613404565b8d8f877f2057323ef4ecbcdb173bd10807198433757762e7ee65af79f8dfa7cd840156bd3388604051611d2d9291906001600160a01b03929092168252602082015260400190565b60405180910390a450505050509998505050505050505050565b33611d5183611658565b6001600160a01b031614611d775760405162461bcd60e51b8152600401610b2d90614b97565b6001600160a01b038116611d9d5760405162461bcd60e51b8152600401610b2d90614e2b565b5f8281525f51602061546c5f395f51905f526020526040812080545f51602061544c5f395f51905f52929190611dd290614be3565b80601f0160208091040260200160405190810160405280929190818152602001828054611dfe90614be3565b8015611e495780601f10611e2057610100808354040283529160200191611e49565b820191905f5260205f20905b815481529060010190602001808311611e2c57829003601f168201915b505050505090505f815111611e705760405162461bcd60e51b8152600401610b2d90614c57565b5f825f0182604051611e829190614c92565b908152604051908190036020018120546001600160a01b0316915084908490611eac908590614c92565b90815260405190819003602001812080546001600160a01b039384166001600160a01b0319909116179055858216918316907f7d83255ce44603fb701ee6f64038718c14f35b10cb3ea11dc6069599a3af9eba90611f0b9086906143b4565b60405180910390a35050505050565b5f8281525f5160206153ec5f395f51905f52602081905260408220611f3f9084613671565b949350505050565b5f9182525f51602061542c5f395f51905f52602090815260408084206001600160a01b0393909316845291905290205460ff1690565b5f51602061548c5f395f51905f52611f9481612e83565b6001600160a01b038216611fba5760405162461bcd60e51b8152600401610b2d90614e2b565b81611fc3612b61565b60070180546001600160a01b0319166001600160a01b03929092169190911790555050565b5f611ff1612b61565b335f81815260018301602090815260408083206001600160a01b03891680855290835292819020805460ff1916881515908117909155905190815293945090927f17307eab39ab6107e8899845ad3d59bd9653f200f220920489ca2b5937696c31910160405180910390a3505050565b5f8181525f5160206153ec5f395f51905f52602081905260409091206060919061208a9061367c565b9392505050565b5f5f61209b612b61565b90508386146120fc5760405162461bcd60e51b815260206004820152602760248201527f4465736372697074696f6e7320616e642070726f6f6673206c656e677468206d6044820152660d2e6dac2e8c6d60cb1b6064820152608401610b2d565b6001600160a01b03831661210e573392505b5f61211a828989612f0b565b6002830180549192505f61212d83614f51565b9190505592506040518060a00160405280856001600160a01b0316815260200187879061215a9190614f8b565b81526020808201849052604080515f8082529281018252920191905081525f602091820181905285815284825260409020825181546001600160a01b0319166001600160a01b0390911617815582820151805191926121c1926001850192909101906140b8565b50604082015180516121dd916002840191602090910190614038565b50606082015180516121f9916003840191602090910190614108565b5060809190910151600490910180546001600160a01b0319166001600160a01b0392831617905560405190851690339085907f531bd8ca2b17505aaa50d843fabe2dfd9a3bb9e20c511d2288b24bd484861b029061225c9086908c908c90615033565b60405180910390a4505095945050505050565b5f5f51602061544c5f395f51905f526005018383604051612291929190614c1b565b9081526040519081900360200190205460ff16905092915050565b5f6122b78383613688565b6040515f51602061544c5f395f51905f52907f056fd9b766381751453e856e178e6a31bebc85b06c3346484e0fd5926790ce03906122f89086908690614c1b565b9081526040519081900360200190205460ff16156123465760405162461bcd60e51b815260206004820152600b60248201526a2630b132b6103a30b5b2b760a91b6044820152606401610b2d565b80600501848460405161235a929190614c1b565b9081526040519081900360200190205460ff16156123ab5760405162461bcd60e51b815260206004820152600e60248201526d131858995b081c995cd95c9d995960921b6044820152606401610b2d565b6123b88989898989612091565b91505f6123c483611658565b905060018260030186866040516123dc929190614c1b565b908152604051908190036020018120805492151560ff19909316929092179091558190839061240e9088908890614c1b565b90815260200160405180910390205f6101000a8154816001600160a01b0302191690836001600160a01b0316021790555082826001018686604051612454929190614c1b565b9081526040805160209281900383019020929092555f8581526002850190915220612480858783614ce1565b50806001600160a01b0316837f7e3796573ec778f8a4d447235f2edceca26693bde8812914365bc7fbfcf2ebe687876040516124bd929190614dc2565b60405180910390a35050979650505050505050565b60605f6124dd612b61565b90506124e8836132f4565b61252b5760405162461bcd60e51b8152602060048201526014602482015273151bdad95b88191bd95cc81b9bdd08195e1a5cdd60621b6044820152606401610b2d565b806005018160060160405160200161254492919061511d565b604051602081830303815290604052915050919050565b5f8181525f5160206153ec5f395f51905f5260208190526040822061208a90613817565b5f51602061548c5f395f51905f5261259681612e83565b815f51602061544c5f395f51905f5260050185856040516125b8929190614c1b565b908152604051908190036020018120805492151560ff19909316929092179091556125e69085908590614c1b565b6040519081900381208315158252907f33075105f03ee91118b8dfab6bf2d2998cf3616e308d053045e244d8bb6af3c09060200160405180910390a250505050565b5f5f51602061544c5f395f51905f526003018383604051612291929190614c1b565b61265382610d72565b61265c81612e83565b610e028383612ed2565b61267284848484613820565b610e028385612d72565b5f5f612686612b61565b90506001600160a01b0386166126ae5760405162461bcd60e51b8152600401610b2d90614e2b565b5f858152602082905260409020546001600160a01b038881169116146126e65760405162461bcd60e51b8152600401610b2d90614b97565b5f858152602082905260409020600401546001600160a01b031633148061272257505f858152602082905260409020546001600160a01b031633145b8061275157506001600160a01b0387165f908152600182016020908152604080832033845290915290205460ff165b61278c5760405162461bcd60e51b815260206004820152600c60248201526b139bdd08185c1c1c9bdd995960a21b6044820152606401610b2d565b6127998186888787613086565b979650505050505050565b5f5f6127ae612b61565b6001600160a01b039485165f90815260019190910160209081526040808320959096168252939093525050205460ff1690565b5f8181525f51602061546c5f395f51905f526020526040902080546060919061280990614be3565b80601f016020809104026020016040519081016040528092919081815260200182805461283590614be3565b80156117c95780601f10612857576101008083540402835291602001916117c9565b820191905f5260205f20905b8154815290600101906020018083116128635750939695505050505050565b5f61288b612b61565b5f848152602082905260409020549091506001600160a01b031633146128c35760405162461bcd60e51b8152600401610b2d90614b97565b5f83815260208281526040808320600301805460018101825590845291832090910180546001600160a01b0319166001600160a01b0386169081179091559051859233917f8a1c60ca1a16acd72d841a74fa5905de3938132b0b2ff6cb385a7e69af345fc99190a4505050565b5f51602061548c5f395f51905f5261294781612e83565b5f612950612b61565b9050600581016129608582614e97565b5060068101610cc48482614e97565b5f807ff0c57e16840df040f15088dc2f81fe391c3923bec73e23a9662efc9c229c6a00610abf565b5f6129a061296f565b805490915060ff600160401b82041615906001600160401b03165f811580156129c65750825b90505f826001600160401b031660011480156129e15750303b155b9050811580156129ef575080155b15612a0d5760405163f92ee8a960e01b815260040160405180910390fd5b845467ffffffffffffffff191660011785558315612a3757845460ff60401b1916600160401b1785555b6001600160a01b038816612a5d5760405162461bcd60e51b8152600401610b2d90614e2b565b612a65613952565b612a6f5f33612e90565b50612a875f51602061548c5f395f51905f5233612e90565b505f612a91612b61565b905060038101612aa18c82614e97565b5060048101612ab08b82614e97565b5060058101612abf8982614e97565b5060068101612ace8882614e97565b5060070180546001600160a01b0319166001600160a01b038a161790558315610a8f57845460ff60401b19168555604051600181527fc7f505b2f371ae2175ee4913f4499e1f2633a7b5936321eed1cdaeb6115181d290602001610a86565b5f6001600160e01b03198216637965db0b60e01b1480610abf57506301ffc9a760e01b6001600160e01b0319831614610abf565b7f4aa80aaafbe0e5fe3fe1aa97f3c1f8c65d61f96ef1aab2b448154f4e0759460090565b5f612b8e612b61565b90506001600160a01b038516612bb65760405162461bcd60e51b8152600401610b2d90614e2b565b5f848152602082905260409020546001600160a01b03878116911614612bee5760405162461bcd60e51b8152600401610b2d90614b97565b5f848152602082905260409020600401546001600160a01b0316331480612c2a57505f848152602082905260409020546001600160a01b031633145b80612c5957506001600160a01b0386165f908152600182016020908152604080832033845290915290205460ff165b612c945760405162461bcd60e51b815260206004820152600c60248201526b139bdd08185c1c1c9bdd995960a21b6044820152606401610b2d565b5f5f612ca3838789888861395c565b5f8881526020868152604090912080546001600160a01b0319166001600160a01b038c161781558351939550919350612ce59260029092019190850190614038565b506040518681526001600160a01b0388169033907f0ea8df787dde63a7bdc34d17097adf25749a3521f660e92dabdff8d6ee91d18a9060200160405180910390a385876001600160a01b03167f156aabbd131f533640c54a2c9d227cce945fa46b6e45df7a473d76203233b9b583604051612d609190615175565b60405180910390a35050505050505050565b5f8281525f51602061546c5f395f51905f526020526040812080545f51602061544c5f395f51905f52929190612da790614be3565b80601f0160208091040260200160405190810160405280929190818152602001828054612dd390614be3565b8015612e1e5780601f10612df557610100808354040283529160200191612e1e565b820191905f5260205f20905b815481529060010190602001808311612e0157829003601f168201915b5050505050905080515f03612e335750505050565b5f825f0182604051612e459190614c92565b908152604051908190036020019020546001600160a01b03908116915084168103612e71575050505050565b83835f0183604051611eac9190614c92565b612e8d8133613c01565b50565b5f5f5160206153ec5f395f51905f5281612eaa8585613c3e565b90508015611f3f575f858152602083905260409020612ec99085613cdf565b50949350505050565b5f5f5160206153ec5f395f51905f5281612eec8585613cf3565b90508015611f3f575f858152602083905260409020612ec99085613d6c565b600783015460405163c2a93e3760e01b81526060915f916001600160a01b039091169063c2a93e3790612f4490879087906004016151b6565b5f604051808303815f875af1158015612f5f573d5f5f3e3d5ffd5b505050506040513d5f823e601f3d908101601f19168201604052612f86919081019061521b565b905080516001600160401b03811115612fa157612fa161418b565b604051908082528060200260200182016040528015612fca578160200160208202803683370190505b5091505f5b815181101561307d57818181518110612fea57612fea614dd5565b60200260200101516020015161303b5760405162461bcd60e51b815260206004820152601660248201527524b73b30b634b210383932b4b6b0b3b290383937b7b360511b6044820152606401610b2d565b81818151811061304d5761304d614dd5565b60200260200101515f015183828151811061306a5761306a614dd5565b6020908102919091010152600101612fcf565b50509392505050565b5f5f5f613096888888888861395c565b60028a0180549294509092505f6130ac83614f51565b909155506040805160a0810182526001600160a01b03891681525f8a815260208c815283822060010180548551818402810184019096528086529598509294818601949392909184015b8282101561319e578382905f5260205f2001805461311390614be3565b80601f016020809104026020016040519081016040528092919081815260200182805461313f90614be3565b801561318a5780601f106131615761010080835404028352916020019161318a565b820191905f5260205f20905b81548152906001019060200180831161316d57829003601f168201915b5050505050815260200190600101906130f6565b505050908252506020808201859052604080515f8082529281018252920191905081525f60209182018190528581528a825260409020825181546001600160a01b0319166001600160a01b03909116178155828201518051919261320a926001850192909101906140b8565b5060408201518051613226916002840191602090910190614038565b5060608201518051613242916003840191602090910190614108565b5060809190910151600490910180546001600160a01b0319166001600160a01b03928316179055604080513381529188166020830152849189917f40b442ee2bb535802063305b95f127b5101e5fce261a5dec9379683eaaad8cdb910160405180910390a382866001600160a01b03167f156aabbd131f533640c54a2c9d227cce945fa46b6e45df7a473d76203233b9b5836040516132e19190615175565b60405180910390a3505095945050505050565b5f806132fe612b61565b5f9384526020526040909220546001600160a01b031690911415919050565b5f8281527f056fd9b766381751453e856e178e6a31bebc85b06c3346484e0fd5926790ce06602052604080822060029081015484845291832001545f51602061544c5f395f51905f529190808211612ec95780611849565b60605f61338183613d80565b60010190505f816001600160401b0381111561339f5761339f61418b565b6040519080825280601f01601f1916602001820160405280156133c9576020820181803683370190505b5090508181016020015b5f19016f181899199a1a9b1b9c1cb0b131b232b360811b600a86061a8153600a85049450846133d357509392505050565b5f8281525f51602061546c5f395f51905f526020526040812080545f51602061544c5f395f51905f5292919061343990614be3565b80601f016020809104026020016040519081016040528092919081815260200182805461346590614be3565b80156134b05780601f10613487576101008083540402835291602001916134b0565b820191905f5260205f20905b81548152906001019060200180831161349357829003601f168201915b5050505050905080515f036134c55750505050565b5f82600401826040516134d89190614c92565b9081526040519081900360200181206731b434b6323932b760c11b8252906008019081526020016040518091039020805461351290614be3565b80601f016020809104026020016040519081016040528092919081815260200182805461353e90614be3565b80156135895780601f1061356057610100808354040283529160200191613589565b820191905f5260205f20905b81548152906001019060200180831161356c57829003601f168201915b505050505090505f81515f146135c05781856040516020016135ac929190614e78565b6040516020818303038152906040526135c2565b845b90508084600401846040516135d79190614c92565b9081526040519081900360200181206731b434b6323932b760c11b825290600801908152602001604051809103902090816136129190614e97565b506040516731b434b6323932b760c11b815260080160405180910390208360405161363d9190614c92565b60405180910390205f51602061540c5f395f51905f528360405161366191906143b4565b60405180910390a3505050505050565b5f61208a8383613e57565b60605f61208a83613e7d565b5f82828080601f0160208091040260200160405190810160405280939291908181526020018383808284375f920191909152505082519293505050158015906136d35750603f815111155b61370f5760405162461bcd60e51b815260206004820152600d60248201526c131858995b081a5b9d985b1a59609a1b6044820152606401610b2d565b5f5b8151811015610e02575f82828151811061372d5761372d614dd5565b01602001516001600160f81b03191690505f606160f81b82108015906137615750603d60f91b6001600160f81b0319831611155b806137935750600360fc1b6001600160f81b03198316108015906137935750603960f81b6001600160f81b0319831611155b806137ce5750602d60f81b6001600160f81b031983161480156137b557508215155b80156137ce5750600184516137ca91906152d3565b8314155b90508061380d5760405162461bcd60e51b815260206004820152600d60248201526c131858995b081a5b9d985b1a59609a1b6044820152606401610b2d565b5050600101613711565b5f610abf825490565b5f613829612b61565b90506001600160a01b0385166138515760405162461bcd60e51b8152600401610b2d90614e2b565b5f848152602082905260409020546001600160a01b031633146138865760405162461bcd60e51b8152600401610b2d90614b97565b5f5f613895838789888861395c565b5f8881526020868152604090912080546001600160a01b0319166001600160a01b038c1617815583519395509193506138d79260029092019190850190614038565b506040518681526001600160a01b0388169033907f0ea8df787dde63a7bdc34d17097adf25749a3521f660e92dabdff8d6ee91d18a9060200160405180910390a385876001600160a01b03167f156aabbd131f533640c54a2c9d227cce945fa46b6e45df7a473d76203233b9b5836040516111889190615175565b61395a613ed4565b565b60078501546040516349e176d360e11b815260609182915f916001600160a01b0316906393c2eda69061399590889088906004016151b6565b5f604051808303815f875af11580156139b0573d5f5f3e3d5ffd5b505050506040513d5f823e601f3d908101601f191682016040526139d791908101906152e6565b905080516001600160401b038111156139f2576139f261418b565b604051908082528060200260200182016040528015613a1b578160200160208202803683370190505b50925080516001600160401b03811115613a3757613a3761418b565b604051908082528060200260200182016040528015613a60578160200160208202803683370190505b505f88815260208a9052604081209193506002909101905b8251811015613bf457828181518110613a9357613a93614dd5565b6020026020010151608001518015613ae05750818181548110613ab857613ab8614dd5565b905f5260205f200154838281518110613ad357613ad3614dd5565b60200260200101515f0151145b8015613b1a5750876001600160a01b0316838281518110613b0357613b03614dd5565b6020026020010151604001516001600160a01b0316145b613b5f5760405162461bcd60e51b815260206004820152601660248201527524b73b30b634b2103a3930b739b332b910383937b7b360511b6044820152606401610b2d565b828181518110613b7157613b71614dd5565b602002602001015160600151848281518110613b8f57613b8f614dd5565b60200260200101906001600160801b03191690816001600160801b03191681525050828181518110613bc357613bc3614dd5565b602002602001015160200151858281518110613be157613be1614dd5565b6020908102919091010152600101613a78565b5050509550959350505050565b613c0b8282611f47565b613c3a5760405163e2517d3f60e01b81526001600160a01b038216600482015260248101839052604401610b2d565b5050565b5f5f51602061542c5f395f51905f52613c578484611f47565b613cd6575f848152602082815260408083206001600160a01b03871684529091529020805460ff19166001179055613c8c3390565b6001600160a01b0316836001600160a01b0316857f2f8788117e7eff1d82e926ec794901d17c78024a50270940304540a733656f0d60405160405180910390a46001915050610abf565b5f915050610abf565b5f61208a836001600160a01b038416613ef9565b5f5f51602061542c5f395f51905f52613d0c8484611f47565b15613cd6575f848152602082815260408083206001600160a01b0387168085529252808320805460ff1916905551339287917ff6391f5c32d9c69d2a47ea670b442974b53935d1edc7fd64eb21e047a839171b9190a46001915050610abf565b5f61208a836001600160a01b038416613f45565b5f8072184f03e93ff9f4daa797ed6e38ed64bf6a1f0160401b8310613dbe5772184f03e93ff9f4daa797ed6e38ed64bf6a1f0160401b830492506040015b6d04ee2d6d415b85acef81000000008310613dea576d04ee2d6d415b85acef8100000000830492506020015b662386f26fc100008310613e0857662386f26fc10000830492506010015b6305f5e1008310613e20576305f5e100830492506008015b6127108310613e3457612710830492506004015b60648310613e46576064830492506002015b600a8310610abf5760010192915050565b5f825f018281548110613e6c57613e6c614dd5565b905f5260205f200154905092915050565b6060815f018054806020026020016040519081016040528092919081815260200182805480156117c957602002820191905f5260205f20908154815260200190600101908083116117b55750505050509050919050565b613edc61401f565b61395a57604051631afcd79f60e31b815260040160405180910390fd5b5f818152600183016020526040812054613f3e57508154600181810184555f848152602080822090930184905584548482528286019093526040902091909155610abf565b505f610abf565b5f8181526001830160205260408120548015613cd6575f613f676001836152d3565b85549091505f90613f7a906001906152d3565b9050808214613fd9575f865f018281548110613f9857613f98614dd5565b905f5260205f200154905080875f018481548110613fb857613fb8614dd5565b5f918252602080832090910192909255918252600188019052604090208390555b8554869080613fea57613fea6153d7565b600190038181905f5260205f20015f90559055856001015f8681526020019081526020015f205f905560019350505050610abf565b5f61402861296f565b54600160401b900460ff16919050565b828054828255905f5260205f20908101928215614071579160200282015b82811115614071578251825591602001919060010190614056565b5061407d92915061415b565b5090565b50805461408d90614be3565b5f825580601f1061409c575050565b601f0160209004905f5260205f2090810190612e8d919061415b565b828054828255905f5260205f209081019282156140fc579160200282015b828111156140fc57825182906140ec9082614e97565b50916020019190600101906140d6565b5061407d92915061416f565b828054828255905f5260205f20908101928215614071579160200282015b8281111561407157825182546001600160a01b0319166001600160a01b03909116178255602090920191600190910190614126565b5b8082111561407d575f815560010161415c565b8082111561407d575f6141828282614081565b5060010161416f565b634e487b7160e01b5f52604160045260245ffd5b604080519081016001600160401b03811182821017156141c1576141c161418b565b60405290565b60405160a081016001600160401b03811182821017156141c1576141c161418b565b604051601f8201601f191681016001600160401b03811182821017156142115761421161418b565b604052919050565b5f82601f830112614228575f5ffd5b81356001600160401b038111156142415761424161418b565b614254601f8201601f19166020016141e9565b818152846020838601011115614268575f5ffd5b816020850160208301375f918101602001919091529392505050565b6001600160a01b0381168114612e8d575f5ffd5b5f5f5f5f5f60a086880312156142ac575f5ffd5b85356001600160401b038111156142c1575f5ffd5b6142cd88828901614219565b95505060208601356001600160401b038111156142e8575f5ffd5b6142f488828901614219565b945050604086013561430581614284565b925060608601356001600160401b0381111561431f575f5ffd5b61432b88828901614219565b92505060808601356001600160401b03811115614346575f5ffd5b61435288828901614219565b9150509295509295909350565b5f6020828403121561436f575f5ffd5b81356001600160e01b03198116811461208a575f5ffd5b5f81518084528060208401602086015e5f602082860101526020601f19601f83011685010191505092915050565b602081525f61208a6020830184614386565b5f602082840312156143d6575f5ffd5b5035919050565b5f5f604083850312156143ee575f5ffd5b82356143f981614284565b946020939093013593505050565b5f602082016020835280845180835260408501915060408160051b8601019250602086015f5b8281101561445e57603f19878603018452614449858351614386565b9450602093840193919091019060010161442d565b50929695505050505050565b5f5f83601f84011261447a575f5ffd5b5081356001600160401b03811115614490575f5ffd5b6020830191508360208260051b85010111156144aa575f5ffd5b9250929050565b5f5f5f5f5f608086880312156144c5575f5ffd5b85356144d081614284565b945060208601356144e081614284565b93506040860135925060608601356001600160401b03811115614501575f5ffd5b61450d8882890161446a565b969995985093965092949392505050565b602080825282518282018190525f918401906040840190835b8181101561455e5783516001600160a01b0316835260209384019390920191600101614537565b509095945050505050565b5f5f83601f840112614579575f5ffd5b5081356001600160401b0381111561458f575f5ffd5b6020830191508360208285010111156144aa575f5ffd5b5f5f602083850312156145b7575f5ffd5b82356001600160401b038111156145cc575f5ffd5b6145d885828601614569565b90969095509350505050565b5f5f604083850312156145f5575f5ffd5b82359150602083013561460781614284565b809150509250929050565b5f5f5f60408486031215614624575f5ffd5b8335925060208401356001600160401b03811115614640575f5ffd5b61464c8682870161446a565b9497909650939450505050565b5f5f5f5f5f6060868803121561466d575f5ffd5b8535945060208601356001600160401b03811115614689575f5ffd5b61469588828901614569565b90955093505060408601356001600160401b038111156146b3575f5ffd5b61450d88828901614569565b5f5f5f5f604085870312156146d2575f5ffd5b84356001600160401b038111156146e7575f5ffd5b6146f387828801614569565b90955093505060208501356001600160401b03811115614711575f5ffd5b61471d87828801614569565b95989497509550505050565b5f5f5f5f5f6060868803121561473d575f5ffd5b8535945060208601356001600160401b03811115614759575f5ffd5b6147658882890161446a565b90955093505060408601356001600160401b03811115614501575f5ffd5b602080825282518282018190525f918401906040840190835b8181101561455e57835183526020938401939092019160010161479c565b5f5f5f5f606085870312156147cd575f5ffd5b84356147d881614284565b93506020850135925060408501356001600160401b038111156147f9575f5ffd5b61471d8782880161446a565b5f8151808452602084019350602083015f5b82811015614835578151865260209586019590910190600101614817565b5093949350505050565b602081525f61208a6020830184614805565b5f5f5f5f5f5f5f5f5f60c08a8c031215614869575f5ffd5b8935985060208a0135975060408a013561488281614284565b965060608a01356001600160401b0381111561489c575f5ffd5b6148a88c828d0161446a565b90975095505060808a01356001600160401b038111156148c6575f5ffd5b6148d28c828d0161446a565b90955093505060a08a01356001600160401b038111156148f0575f5ffd5b6148fc8c828d01614569565b915080935050809150509295985092959850929598565b5f5f60408385031215614924575f5ffd5b50508035926020909101359150565b5f60208284031215614943575f5ffd5b813561208a81614284565b8015158114612e8d575f5ffd5b5f5f6040838503121561496c575f5ffd5b823561497781614284565b915060208301356146078161494e565b5f5f5f5f5f6060868803121561499b575f5ffd5b85356001600160401b038111156149b0575f5ffd5b6149bc8882890161446a565b90965094505060208601356001600160401b038111156149da575f5ffd5b6149e68882890161446a565b90945092505060408601356149fa81614284565b809150509295509295909350565b5f5f5f5f5f5f5f6080888a031215614a1e575f5ffd5b87356001600160401b03811115614a33575f5ffd5b614a3f8a828b0161446a565b90985096505060208801356001600160401b03811115614a5d575f5ffd5b614a698a828b0161446a565b9096509450506040880135614a7d81614284565b925060608801356001600160401b03811115614a97575f5ffd5b614aa38a828b01614569565b989b979a50959850939692959293505050565b5f5f5f60408486031215614ac8575f5ffd5b83356001600160401b03811115614add575f5ffd5b614ae986828701614569565b9094509250506020840135614afd8161494e565b809150509250925092565b5f5f60408385031215614b19575f5ffd5b8235614b2481614284565b9150602083013561460781614284565b5f5f60408385031215614b45575f5ffd5b82356001600160401b03811115614b5a575f5ffd5b614b6685828601614219565b92505060208301356001600160401b03811115614b81575f5ffd5b614b8d85828601614219565b9150509250929050565b6020808252600990820152682737ba1037bbb732b960b91b604082015260600190565b6020808252600f908201526e151bdad95b881b9bdd08195e1a5cdd608a1b604082015260600190565b600181811c90821680614bf757607f821691505b602082108103614c1557634e487b7160e01b5f52602260045260245ffd5b50919050565b818382375f9101908152919050565b604081525f614c3c6040830185614805565b8281036020840152614c4e8185614805565b95945050505050565b6020808252600a90820152694e6f207375626e616d6560b01b604082015260600190565b5f81518060208401855e5f93019283525090919050565b5f61208a8284614c7b565b601f821115610e3b57805f5260205f20601f840160051c81016020851015614cc25750805b601f840160051c820191505b81811015610cc4575f8155600101614cce565b6001600160401b03831115614cf857614cf861418b565b614d0c83614d068354614be3565b83614c9d565b5f601f841160018114614d3d575f8515614d265750838201355b5f19600387901b1c1916600186901b178355610cc4565b5f83815260208120601f198716915b82811015614d6c5786850135825560209485019460019092019101614d4c565b5086821015614d88575f1960f88860031b161c19848701351681555b505060018560011b0183555050505050565b81835281816020850137505f828201602090810191909152601f909101601f19169091010190565b602081525f611f3f602083018486614d9a565b634e487b7160e01b5f52603260045260245ffd5b5f5f8335601e19843603018112614dfe575f5ffd5b8301803591506001600160401b03821115614e17575f5ffd5b6020019150368190038213156144aa575f5ffd5b6020808252600c908201526b5a65726f206164647265737360a01b604082015260600190565b634e487b7160e01b5f52601160045260245ffd5b80820180821115610abf57610abf614e51565b5f614e838285614c7b565b600b60fa1b8152614c4e6001820185614c7b565b81516001600160401b03811115614eb057614eb061418b565b614ec481614ebe8454614be3565b84614c9d565b6020601f821160018114614ef6575f8315614edf5750848201515b5f19600385901b1c1916600184901b178455610cc4565b5f84815260208120601f198516915b82811015614f255787850151825560209485019460019092019101614f05565b5084821015614f4257868401515f19600387901b60f8161c191681555b50505050600190811b01905550565b5f60018201614f6257614f62614e51565b5060010190565b5f6001600160401b03821115614f8157614f8161418b565b5060051b60200190565b5f614f9d614f9884614f69565b6141e9565b8381526020810190600585901b840136811115614fb8575f5ffd5b845b8181101561455e5780356001600160401b03811115614fd7575f5ffd5b614fe336828901614219565b85525060209384019301614fba565b5f5f8335601e19843603018112615007575f5ffd5b83016020810192503590506001600160401b03811115615025575f5ffd5b8036038213156144aa575f5ffd5b604081525f6150456040830186614805565b82810360208401528084825260208201905060208560051b830101865f5b878110156150a157848303601f1901845261507e828a614ff2565b615089858284614d9a565b60209687019690955093909301925050600101615063565b509098975050505050505050565b5f81546150bb81614be3565b6001821680156150d257600181146150e757615114565b60ff1983168652811515820286019350615114565b845f5260205f205f5b8381101561510c578154888201526001909101906020016150f0565b505081860193505b50505092915050565b6c3d9131b430b4b72aa926111d1160991b81525f61513e600d8301856150af565b6f11161134b73232bc32b92aa926111d1160811b815261516160108201856150af565b61227d60f01b815260020195945050505050565b602080825282518282018190525f918401906040840190835b8181101561455e5783516001600160801b03191683526020938401939092019160010161518e565b602080825281018290525f6040600584901b8301810190830185835b8681101561520f57858403603f190183526151ed8289614ff2565b6151f8868284614d9a565b9550505060209283019291909101906001016151d2565b50919695505050505050565b5f6020828403121561522b575f5ffd5b81516001600160401b03811115615240575f5ffd5b8201601f81018413615250575f5ffd5b805161525e614f9882614f69565b8082825260208201915060208360061b85010192508683111561527f575f5ffd5b6020840193505b82841015611849576040848803121561529d575f5ffd5b6152a561419f565b8451815260208501516152b78161494e565b8060208301525080835250602082019150604084019350615286565b81810381811115610abf57610abf614e51565b5f602082840312156152f6575f5ffd5b81516001600160401b0381111561530b575f5ffd5b8201601f8101841361531b575f5ffd5b8051615329614f9882614f69565b80828252602082019150602060a0840285010192508683111561534a575f5ffd5b6020840193505b828410156118495760a08488031215615368575f5ffd5b6153706141c7565b8451815260208086015190820152604085015161538c81614284565b604082015260608501516001600160801b0319811681146153ab575f5ffd5b606082015260808501516153be8161494e565b6080820152825260a09390930192602090910190615351565b634e487b7160e01b5f52603160045260245ffdfec1f6fe24621ce81ec5827caf0253cadb74709b061630e6b55e823717059320004a19241c0e497f18b5c1f146d92ec7c29ab31937a8a5cdb8d8ee41623494c4af02dd7bc7dec4dceedda775e58dd541e08a116c6c53815c0bd028192f7b626800056fd9b766381751453e856e178e6a31bebc85b06c3346484e0fd5926790ce00056fd9b766381751453e856e178e6a31bebc85b06c3346484e0fd5926790ce02a49807205ce4d355092ef5a8a18f56e8913cf4a201fbe287825b095693c21775a2646970667358221220eb978dab100b4eb6cf79c8a756bd68e37804066e7bde16b2f1beb7e26003e3f164736f6c634300081c0033",
  "linkReferences": {},
  "deployedLinkReferences": {},
  "immutableReferences": {},
  "inputSourceName": "project/contracts/MnemoAgentNFT.sol",
  "buildInfoId": "solc-0_8_28-806500a99ef06a474bbb0efd4accd4f7a2973f22"
}