{
  "_format": "hh3-artifact-1",
  "contractName": "MnemoAgentNFT",
  "sourceName": "contracts/MnemoAgentNFT.sol",
  "abi": [
    {
      "inputs": [],
      "name": "AccessControlBadConfirmation",
      "type": "error"
    },
    {
      "inputs": [
        {
          "internalType": "address",
          "name": "account",
          "type": "address"
        },
        {
          "internalType": "bytes32",
          "name": "neededRole",
          "type": "bytes32"
        }
      ],
      "name": "AccessControlUnauthorizedAccount",
      "type": "error"
    },
    {
      "inputs": [],
      "name": "InvalidInitialization",
      "type": "error"
    },
    {
      "inputs": [],
      "name": "NotInitializing",
      "type": "error"
    },
    {
      "inputs": [
        {
          "internalType": "uint256",
          "name": "value",
          "type": "uint256"
        },
        {
          "internalType": "uint256",
          "name": "length",
          "type": "uint256"
        }
      ],
      "name": "StringsInsufficientHexLength",
      "type": "error"
    },
    {
      "anonymous": false,
      "inputs": [
        {
          "indexed": true,
          "internalType": "address",
          "name": "_from",
          "type": "address"
        },
        {
          "indexed": true,
          "internalType": "address",
          "name": "_to",
          "type": "address"
        },
        {
          "indexed": true,
          "internalType": "uint256",
          "name": "_tokenId",
          "type": "uint256"
        }
      ],
      "name": "Approval",
      "type": "event"
    },
    {
      "anonymous": false,
      "inputs": [
        {
          "indexed": true,
          "internalType": "address",
          "name": "_owner",
          "type": "address"
        },
        {
          "indexed": true,
          "internalType": "address",
          "name": "_operator",
          "type": "address"
        },
        {
          "indexed": false,
          "internalType": "bool",
          "name": "_approved",
          "type": "bool"
        }
      ],
      "name": "ApprovalForAll",
      "type": "event"
    },
    {
      "anonymous": false,
      "inputs": [
        {
          "indexed": true,
          "internalType": "address",
          "name": "_from",
          "type": "address"
        },
        {
          "indexed": true,
          "internalType": "address",
          "name": "_to",
          "type": "address"
        },
        {
          "indexed": true,
          "internalType": "uint256",
          "name": "_tokenId",
          "type": "uint256"
        }
      ],
      "name": "Authorization",
      "type": "event"
    },
    {
      "anonymous": false,
      "inputs": [
        {
          "indexed": true,
          "internalType": "uint256",
          "name": "_tokenId",
          "type": "uint256"
        },
        {
          "indexed": true,
          "internalType": "uint256",
          "name": "_newTokenId",
          "type": "uint256"
        },
        {
          "indexed": false,
          "internalType": "address",
          "name": "_from",
          "type": "address"
        },
        {
          "indexed": false,
          "internalType": "address",
          "name": "_to",
          "type": "address"
        }
      ],
      "name": "Cloned",
      "type": "event"
    },
    {
      "anonymous": false,
      "inputs": [
        {
          "indexed": false,
          "internalType": "uint64",
          "name": "version",
          "type": "uint64"
        }
      ],
      "name": "Initialized",
      "type": "event"
    },
    {
      "anonymous": false,
      "inputs": [
        {
          "indexed": true,
          "internalType": "string",
          "name": "label",
          "type": "string"
        },
        {
          "indexed": false,
          "internalType": "bool",
          "name": "reserved",
          "type": "bool"
        }
      ],
      "name": "LabelReservedSet",
      "type": "event"
    },
    {
      "anonymous": false,
      "inputs": [
        {
          "indexed": true,
          "internalType": "uint256",
          "name": "_tokenId",
          "type": "uint256"
        },
        {
          "indexed": true,
          "internalType": "address",
          "name": "_creator",
          "type": "address"
        },
        {
          "indexed": true,
          "internalType": "address",
          "name": "_owner",
          "type": "address"
        },
        {
          "indexed": false,
          "internalType": "bytes32[]",
          "name": "_dataHashes",
          "type": "bytes32[]"
        },
        {
          "indexed": false,
          "internalType": "string[]",
          "name": "_dataDescriptions",
          "type": "string[]"
        }
      ],
      "name": "Minted",
      "type": "event"
    },
    {
      "anonymous": false,
      "inputs": [
        {
          "indexed": true,
          "internalType": "address",
          "name": "_to",
          "type": "address"
        },
        {
          "indexed": true,
          "internalType": "uint256",
          "name": "_tokenId",
          "type": "uint256"
        },
        {
          "indexed": false,
          "internalType": "bytes16[]",
          "name": "_sealedKeys",
          "type": "bytes16[]"
        }
      ],
      "name": "PublishedSealedKey",
      "type": "event"
    },
    {
      "anonymous": false,
      "inputs": [
        {
          "indexed": true,
          "internalType": "bytes32",
          "name": "role",
          "type": "bytes32"
        },
        {
          "indexed": true,
          "internalType": "bytes32",
          "name": "previousAdminRole",
          "type": "bytes32"
        },
        {
          "indexed": true,
          "internalType": "bytes32",
          "name": "newAdminRole",
          "type": "bytes32"
        }
      ],
      "name": "RoleAdminChanged",
      "type": "event"
    },
    {
      "anonymous": false,
      "inputs": [
        {
          "indexed": true,
          "internalType": "bytes32",
          "name": "role",
          "type": "bytes32"
        },
        {
          "indexed": true,
          "internalType": "address",
          "name": "account",
          "type": "address"
        },
        {
          "indexed": true,
          "internalType": "address",
          "name": "sender",
          "type": "address"
        }
      ],
      "name": "RoleGranted",
      "type": "event"
    },
    {
      "anonymous": false,
      "inputs": [
        {
          "indexed": true,
          "internalType": "bytes32",
          "name": "role",
          "type": "bytes32"
        },
        {
          "indexed": true,
          "internalType": "address",
          "name": "account",
          "type": "address"
        },
        {
          "indexed": true,
          "internalType": "address",
          "name": "sender",
          "type": "address"
        }
      ],
      "name": "RoleRevoked",
      "type": "event"
    },
    {
      "anonymous": false,
      "inputs": [
        {
          "indexed": true,
          "internalType": "uint256",
          "name": "tokenId",
          "type": "uint256"
        },
        {
          "indexed": false,
          "internalType": "string",
          "name": "label",
          "type": "string"
        },
        {
          "indexed": true,
          "internalType": "address",
          "name": "holder",
          "type": "address"
        }
      ],
      "name": "SubnameIssued",
      "type": "event"
    },
    {
      "anonymous": false,
      "inputs": [
        {
          "indexed": false,
          "internalType": "string",
          "name": "label",
          "type": "string"
        },
        {
          "indexed": true,
          "internalType": "address",
          "name": "from",
          "type": "address"
        },
        {
          "indexed": true,
          "internalType": "address",
          "name": "to",
          "type": "address"
        }
      ],
      "name": "SubnameTransferred",
      "type": "event"
    },
    {
      "anonymous": false,
      "inputs": [
        {
          "indexed": true,
          "internalType": "string",
          "name": "label",
          "type": "string"
        },
        {
          "indexed": true,
          "internalType": "string",
          "name": "key",
          "type": "string"
        }
      ],
      "name": "TextRecordCleared",
      "type": "event"
    },
    {
      "anonymous": false,
      "inputs": [
        {
          "indexed": true,
          "internalType": "string",
          "name": "label",
          "type": "string"
        },
        {
          "indexed": true,
          "internalType": "string",
          "name": "key",
          "type": "string"
        },
        {
          "indexed": false,
          "internalType": "string",
          "name": "value",
          "type": "string"
        }
      ],
      "name": "TextRecordSet",
      "type": "event"
    },
    {
      "anonymous": false,
      "inputs": [
        {
          "indexed": false,
          "internalType": "uint256",
          "name": "_tokenId",
          "type": "uint256"
        },
        {
          "indexed": true,
          "internalType": "address",
          "name": "_from",
          "type": "address"
        },
        {
          "indexed": true,
          "internalType": "address",
          "name": "_to",
          "type": "address"
        }
      ],
      "name": "Transferred",
      "type": "event"
    },
    {
      "anonymous": false,
      "inputs": [
        {
          "indexed": true,
          "internalType": "uint256",
          "name": "_tokenId",
          "type": "uint256"
        },
        {
          "indexed": false,
          "internalType": "bytes32[]",
          "name": "_oldDataHashes",
          "type": "bytes32[]"
        },
        {
          "indexed": false,
          "internalType": "bytes32[]",
          "name": "_newDataHashes",
          "type": "bytes32[]"
        }
      ],
      "name": "Updated",
      "type": "event"
    },
    {
      "inputs": [],
      "name": "ADMIN_ROLE",
      "outputs": [
        {
          "internalType": "bytes32",
          "name": "",
          "type": "bytes32"
        }
      ],
      "stateMutability": "view",
      "type": "function"
    },
    {
      "inputs": [],
      "name": "DEFAULT_ADMIN_ROLE",
      "outputs": [
        {
          "internalType": "bytes32",
          "name": "",
          "type": "bytes32"
        }
      ],
      "stateMutability": "view",
      "type": "function"
    },
    {
      "inputs": [],
      "name": "VERSION",
      "outputs": [
        {
          "internalType": "string",
          "name": "",
          "type": "string"
        }
      ],
      "stateMutability": "view",
      "type": "function"
    },
    {
      "inputs": [
        {
          "internalType": "string",
          "name": "label",
          "type": "string"
        }
      ],
      "name": "addressForLabel",
      "outputs": [
        {
          "internalType": "address",
          "name": "",
          "type": "address"
        }
      ],
      "stateMutability": "view",
      "type": "function"
    },
    {
      "inputs": [
        {
          "internalType": "address",
          "name": "to",
          "type": "address"
        },
        {
          "internalType": "uint256",
          "name": "tokenId",
          "type": "uint256"
        }
      ],
      "name": "approve",
      "outputs": [],
      "stateMutability": "nonpayable",
      "type": "function"
    },
    {
      "inputs": [
        {
          "internalType": "uint256",
          "name": "tokenId",
          "type": "uint256"
        },
        {
          "internalType": "address",
          "name": "to",
          "type": "address"
        }
      ],
      "name": "authorizeUsage",
      "outputs": [],
      "stateMutability": "nonpayable",
      "type": "function"
    },
    {
      "inputs": [
        {
          "internalType": "uint256",
          "name": "tokenId",
          "type": "uint256"
        }
      ],
      "name": "authorizedUsersOf",
      "outputs": [
        {
          "internalType": "address[]",
          "name": "",
          "type": "address[]"
        }
      ],
      "stateMutability": "view",
      "type": "function"
    },
    {
      "inputs": [
        {
          "internalType": "address",
          "name": "to",
          "type": "address"
        },
        {
          "internalType": "uint256",
          "name": "tokenId",
          "type": "uint256"
        },
        {
          "internalType": "bytes[]",
          "name": "proofs",
          "type": "bytes[]"
        }
      ],
      "name": "clone",
      "outputs": [
        {
          "internalType": "uint256",
          "name": "",
          "type": "uint256"
        }
      ],
      "stateMutability": "nonpayable",
      "type": "function"
    },
    {
      "inputs": [
        {
          "internalType": "address",
          "name": "from",
          "type": "address"
        },
        {
          "internalType": "address",
          "name": "to",
          "type": "address"
        },
        {
          "internalType": "uint256",
          "name": "tokenId",
          "type": "uint256"
        },
        {
          "internalType": "bytes[]",
          "name": "proofs",
          "type": "bytes[]"
        }
      ],
      "name": "cloneFrom",
      "outputs": [
        {
          "internalType": "uint256",
          "name": "",
          "type": "uint256"
        }
      ],
      "stateMutability": "nonpayable",
      "type": "function"
    },
    {
      "inputs": [
        {
          "internalType": "uint256",
          "name": "tokenId",
          "type": "uint256"
        }
      ],
      "name": "dataDescriptionsOf",
      "outputs": [
        {
          "internalType": "string[]",
          "name": "",
          "type": "string[]"
        }
      ],
      "stateMutability": "view",
      "type": "function"
    },
    {
      "inputs": [
        {
          "internalType": "uint256",
          "name": "tokenId",
          "type": "uint256"
        }
      ],
      "name": "dataHashesOf",
      "outputs": [
        {
          "internalType": "bytes32[]",
          "name": "",
          "type": "bytes32[]"
        }
      ],
      "stateMutability": "view",
      "type": "function"
    },
    {
      "inputs": [
        {
          "internalType": "uint256",
          "name": "tokenId",
          "type": "uint256"
        }
      ],
      "name": "getApproved",
      "outputs": [
        {
          "internalType": "address",
          "name": "operator",
          "type": "address"
        }
      ],
      "stateMutability": "view",
      "type": "function"
    },
    {
      "inputs": [
        {
          "internalType": "bytes32",
          "name": "role",
          "type": "bytes32"
        }
      ],
      "name": "getRoleAdmin",
      "outputs": [
        {
          "internalType": "bytes32",
          "name": "",
          "type": "bytes32"
        }
      ],
      "stateMutability": "view",
      "type": "function"
    },
    {
      "inputs": [
        {
          "internalType": "bytes32",
          "name": "role",
          "type": "bytes32"
        },
        {
          "internalType": "uint256",
          "name": "index",
          "type": "uint256"
        }
      ],
      "name": "getRoleMember",
      "outputs": [
        {
          "internalType": "address",
          "name": "",
          "type": "address"
        }
      ],
      "stateMutability": "view",
      "type": "function"
    },
    {
      "inputs": [
        {
          "internalType": "bytes32",
          "name": "role",
          "type": "bytes32"
        }
      ],
      "name": "getRoleMemberCount",
      "outputs": [
        {
          "internalType": "uint256",
          "name": "",
          "type": "uint256"
        }
      ],
      "stateMutability": "view",
      "type": "function"
    },
    {
      "inputs": [
        {
          "internalType": "bytes32",
          "name": "role",
          "type": "bytes32"
        }
      ],
      "name": "getRoleMembers",
      "outputs": [
        {
          "internalType": "address[]",
          "name": "",
          "type": "address[]"
        }
      ],
      "stateMutability": "view",
      "type": "function"
    },
    {
      "inputs": [
        {
          "internalType": "bytes32",
          "name": "role",
          "type": "bytes32"
        },
        {
          "internalType": "address",
          "name": "account",
          "type": "address"
        }
      ],
      "name": "grantRole",
      "outputs": [],
      "stateMutability": "nonpayable",
      "type": "function"
    },
    {
      "inputs": [
        {
          "internalType": "bytes32",
          "name": "role",
          "type": "bytes32"
        },
        {
          "internalType": "address",
          "name": "account",
          "type": "address"
        }
      ],
      "name": "hasRole",
      "outputs": [
        {
          "internalType": "bool",
          "name": "",
          "type": "bool"
        }
      ],
      "stateMutability": "view",
      "type": "function"
    },
    {
      "inputs": [
        {
          "internalType": "string",
          "name": "",
          "type": "string"
        },
        {
          "internalType": "string",
          "name": "",
          "type": "string"
        },
        {
          "internalType": "address",
          "name": "verifierAddr",
          "type": "address"
        },
        {
          "internalType": "string",
          "name": "chainURL_",
          "type": "string"
        },
        {
          "internalType": "string",
          "name": "indexerURL_",
          "type": "string"
        }
      ],
      "name": "initialize",
      "outputs": [],
      "stateMutability": "nonpayable",
      "type": "function"
    },
    {
      "inputs": [
        {
          "internalType": "address",
          "name": "owner",
          "type": "address"
        },
        {
          "internalType": "address",
          "name": "operator",
          "type": "address"
        }
      ],
      "name": "isApprovedForAll",
      "outputs": [
        {
          "internalType": "bool",
          "name": "",
          "type": "bool"
        }
      ],
      "stateMutability": "view",
      "type": "function"
    },
    {
      "inputs": [
        {
          "internalType": "string",
          "name": "label",
          "type": "string"
        }
      ],
      "name": "isLabelReserved",
      "outputs": [
        {
          "internalType": "bool",
          "name": "",
          "type": "bool"
        }
      ],
      "stateMutability": "view",
      "type": "function"
    },
    {
      "inputs": [
        {
          "internalType": "string",
          "name": "label",
          "type": "string"
        }
      ],
      "name": "isLabelTaken",
      "outputs": [
        {
          "internalType": "bool",
          "name": "",
          "type": "bool"
        }
      ],
      "stateMutability": "view",
      "type": "function"
    },
    {
      "inputs": [
        {
          "internalType": "uint256",
          "name": "tokenId",
          "type": "uint256"
        }
      ],
      "name": "labelForTokenId",
      "outputs": [
        {
          "internalType": "string",
          "name": "",
          "type": "string"
        }
      ],
      "stateMutability": "view",
      "type": "function"
    },
    {
      "inputs": [
        {
          "internalType": "bytes[]",
          "name": "proofs",
          "type": "bytes[]"
        },
        {
          "internalType": "string[]",
          "name": "dataDescriptions",
          "type": "string[]"
        },
        {
          "internalType": "address",
          "name": "to",
          "type": "address"
        }
      ],
      "name": "mint",
      "outputs": [
        {
          "internalType": "uint256",
          "name": "tokenId",
          "type": "uint256"
        }
      ],
      "stateMutability": "payable",
      "type": "function"
    },
    {
      "inputs": [
        {
          "internalType": "bytes[]",
          "name": "proofs",
          "type": "bytes[]"
        },
        {
          "internalType": "string[]",
          "name": "dataDescriptions",
          "type": "string[]"
        },
        {
          "internalType": "address",
          "name": "to",
          "type": "address"
        },
        {
          "internalType": "string",
          "name": "label",
          "type": "string"
        }
      ],
      "name": "mintWithSubname",
      "outputs": [
        {
          "internalType": "uint256",
          "name": "tokenId",
          "type": "uint256"
        }
      ],
      "stateMutability": "payable",
      "type": "function"
    },
    {
      "inputs": [],
      "name": "name",
      "outputs": [
        {
          "internalType": "string",
          "name": "",
          "type": "string"
        }
      ],
      "stateMutability": "pure",
      "type": "function"
    },
    {
      "inputs": [
        {
          "internalType": "uint256",
          "name": "tokenId",
          "type": "uint256"
        }
      ],
      "name": "ownerOf",
      "outputs": [
        {
          "internalType": "address",
          "name": "",
          "type": "address"
        }
      ],
      "stateMutability": "view",
      "type": "function"
    },
    {
      "inputs": [
        {
          "internalType": "bytes32",
          "name": "role",
          "type": "bytes32"
        },
        {
          "internalType": "address",
          "name": "callerConfirmation",
          "type": "address"
        }
      ],
      "name": "renounceRole",
      "outputs": [],
      "stateMutability": "nonpayable",
      "type": "function"
    },
    {
      "inputs": [
        {
          "internalType": "bytes32",
          "name": "role",
          "type": "bytes32"
        },
        {
          "internalType": "address",
          "name": "account",
          "type": "address"
        }
      ],
      "name": "revokeRole",
      "outputs": [],
      "stateMutability": "nonpayable",
      "type": "function"
    },
    {
      "inputs": [
        {
          "internalType": "address",
          "name": "to",
          "type": "address"
        },
        {
          "internalType": "bool",
          "name": "approved",
          "type": "bool"
        }
      ],
      "name": "setApprovalForAll",
      "outputs": [],
      "stateMutability": "nonpayable",
      "type": "function"
    },
    {
      "inputs": [
        {
          "internalType": "string",
          "name": "label",
          "type": "string"
        },
        {
          "internalType": "bool",
          "name": "reserved",
          "type": "bool"
        }
      ],
      "name": "setReserved",
      "outputs": [],
      "stateMutability": "nonpayable",
      "type": "function"
    },
    {
      "inputs": [
        {
          "internalType": "uint256",
          "name": "tokenId",
          "type": "uint256"
        },
        {
          "internalType": "address",
          "name": "newAddr",
          "type": "address"
        }
      ],
      "name": "setSubnameAddress",
      "outputs": [],
      "stateMutability": "nonpayable",
      "type": "function"
    },
    {
      "inputs": [
        {
          "internalType": "uint256",
          "name": "tokenId",
          "type": "uint256"
        },
        {
          "internalType": "string",
          "name": "key",
          "type": "string"
        },
        {
          "internalType": "string",
          "name": "value",
          "type": "string"
        }
      ],
      "name": "setText",
      "outputs": [],
      "stateMutability": "nonpayable",
      "type": "function"
    },
    {
      "inputs": [
        {
          "internalType": "uint256",
          "name": "tokenId",
          "type": "uint256"
        },
        {
          "internalType": "string[]",
          "name": "keys",
          "type": "string[]"
        },
        {
          "internalType": "string[]",
          "name": "values",
          "type": "string[]"
        }
      ],
      "name": "setTexts",
      "outputs": [],
      "stateMutability": "nonpayable",
      "type": "function"
    },
    {
      "inputs": [
        {
          "internalType": "bytes4",
          "name": "interfaceId",
          "type": "bytes4"
        }
      ],
      "name": "supportsInterface",
      "outputs": [
        {
          "internalType": "bool",
          "name": "",
          "type": "bool"
        }
      ],
      "stateMutability": "view",
      "type": "function"
    },
    {
      "inputs": [],
      "name": "symbol",
      "outputs": [
        {
          "internalType": "string",
          "name": "",
          "type": "string"
        }
      ],
      "stateMutability": "pure",
      "type": "function"
    },
    {
      "inputs": [
        {
          "internalType": "string",
          "name": "label",
          "type": "string"
        },
        {
          "internalType": "string",
          "name": "key",
          "type": "string"
        }
      ],
      "name": "textForLabel",
      "outputs": [
        {
          "internalType": "string",
          "name": "",
          "type": "string"
        }
      ],
      "stateMutability": "view",
      "type": "function"
    },
    {
      "inputs": [
        {
          "internalType": "string",
          "name": "label",
          "type": "string"
        }
      ],
      "name": "tokenIdForLabel",
      "outputs": [
        {
          "internalType": "uint256",
          "name": "",
          "type": "uint256"
        }
      ],
      "stateMutability": "view",
      "type": "function"
    },
    {
      "inputs": [
        {
          "internalType": "uint256",
          "name": "tokenId",
          "type": "uint256"
        }
      ],
      "name": "tokenURI",
      "outputs": [
        {
          "internalType": "string",
          "name": "",
          "type": "string"
        }
      ],
      "stateMutability": "view",
      "type": "function"
    },
    {
      "inputs": [
        {
          "internalType": "address",
          "name": "to",
          "type": "address"
        },
        {
          "internalType": "uint256",
          "name": "tokenId",
          "type": "uint256"
        },
        {
          "internalType": "bytes[]",
          "name": "proofs",
          "type": "bytes[]"
        }
      ],
      "name": "transfer",
      "outputs": [],
      "stateMutability": "nonpayable",
      "type": "function"
    },
    {
      "inputs": [
        {
          "internalType": "address",
          "name": "from",
          "type": "address"
        },
        {
          "internalType": "address",
          "name": "to",
          "type": "address"
        },
        {
          "internalType": "uint256",
          "name": "tokenId",
          "type": "uint256"
        },
        {
          "internalType": "bytes[]",
          "name": "proofs",
          "type": "bytes[]"
        }
      ],
      "name": "transferFrom",
      "outputs": [],
      "stateMutability": "nonpayable",
      "type": "function"
    },
    {
      "inputs": [
        {
          "internalType": "uint256",
          "name": "tokenId",
          "type": "uint256"
        },
        {
          "internalType": "bytes[]",
          "name": "proofs",
          "type": "bytes[]"
        }
      ],
      "name": "update",
      "outputs": [],
      "stateMutability": "nonpayable",
      "type": "function"
    },
    {
      "inputs": [
        {
          "internalType": "string",
          "name": "newChainURL",
          "type": "string"
        },
        {
          "internalType": "string",
          "name": "newIndexerURL",
          "type": "string"
        }
      ],
      "name": "updateURLS",
      "outputs": [],
      "stateMutability": "nonpayable",
      "type": "function"
    },
    {
      "inputs": [
        {
          "internalType": "address",
          "name": "newVerifier",
          "type": "address"
        }
      ],
      "name": "updateVerifier",
      "outputs": [],
      "stateMutability": "nonpayable",
      "type": "function"
    },
    {
      "inputs": [],
      "name": "verifier",
      "outputs": [
        {
          "internalType": "contract IERC7857DataVerifier",
          "name": "",
          "type": "address"
        }
      ],
      "stateMutability": "view",
      "type": "function"
    }
  ],
  "bytecode": "0x6080604052348015600e575f5ffd5b5060156019565b60c9565b7ff0c57e16840df040f15088dc2f81fe391c3923bec73e23a9662efc9c229c6a00805468010000000000000000900460ff161560685760405163f92ee8a960e01b815260040160405180910390fd5b80546001600160401b039081161460c65780546001600160401b0319166001600160401b0390811782556040519081527fc7f505b2f371ae2175ee4913f4499e1f2633a7b5936321eed1cdaeb6115181d29060200160405180910390a15b50565b615839806100d65f395ff3fe608060405260043610610269575f3560e01c806383a7fdce1161014a578063c87b56dd116100be578063e7ab28d811610078578063e7ab28d81461078c578063e985e9c5146107ab578063ede1e10b146107ca578063fa83d14e146107e9578063fd0be72214610808578063ffa1ad7414610827575f5ffd5b8063c87b56dd146106d2578063ca15c873146106f1578063cf84eb0014610710578063d3d6e39e1461072f578063d547741f1461074e578063dfdad7de1461076d575f5ffd5b8063a217fddf1161010f578063a217fddf1461063c578063a22cb4651461064f578063a3246ad31461066e578063a50144521461068d578063a8357326146106a0578063b19881b4146106bf575f5ffd5b806383a7fdce146105935780639010d07c146105b257806391d14854146105d157806395d89b41146105f057806397fc007c1461061d575f5ffd5b80632f2ff15d116101e157806352f54073116101a657806352f54073146104cb578063594400d0146104ea5780636352211e146105095780637289fdd61461052857806375b238fc146105475780637a005b3614610567575f5ffd5b80632f2ff15d1461043057806336568abe1461044f578063389f87541461046e5780633fb247821461048d5780634bf5b0c1146104ac575f5ffd5b80630beef18f116102325780630beef18f14610359578063145cb9dd146103855780631aeb542f146103a4578063248a9ca3146103d05780632ae233d9146103fd5780632b7ac3f31461041c575f5ffd5b80626198c11461026d57806301ffc9a71461028e57806306fdde03146102c2578063081812fc14610303578063095ea7b31461033a575b5f5ffd5b348015610278575f5ffd5b5061028c610287366004614571565b610857565b005b348015610299575f5ffd5b506102ad6102a8366004614638565b61099c565b60405190151581526020015b60405180910390f35b3480156102cd575f5ffd5b5060408051808201909152601081526f4d6e656d6f73796e65204167656e747360801b60208201525b6040516102b9919061468d565b34801561030e575f5ffd5b5061032261031d36600461469f565b6109c6565b6040516001600160a01b0390911681526020016102b9565b348015610345575f5ffd5b5061028c6103543660046146b6565b6109ed565b348015610364575f5ffd5b5061037861037336600461469f565b610a93565b6040516102b991906146e0565b348015610390575f5ffd5b5061028c61039f36600461478a565b610bae565b3480156103af575f5ffd5b506103c36103be36600461469f565b610bcc565b6040516102b991906147f7565b3480156103db575f5ffd5b506103ef6103ea36600461469f565b610c73565b6040519081526020016102b9565b348015610408575f5ffd5b506103ef61041736600461487f565b610c93565b348015610427575f5ffd5b50610322610ccc565b34801561043b575f5ffd5b5061028c61044a3660046148bd565b610ce7565b34801561045a575f5ffd5b5061028c6104693660046148bd565b610d09565b348015610479575f5ffd5b5061028c6104883660046148eb565b610d41565b348015610498575f5ffd5b5061028c6104a7366004614932565b610fbb565b3480156104b7575f5ffd5b506102f66104c6366004614998565b611228565b3480156104d6575f5ffd5b5061028c6104e5366004614a02565b611308565b3480156104f5575f5ffd5b5061032261050436600461487f565b6116b9565b348015610514575f5ffd5b5061032261052336600461469f565b6116f9565b348015610533575f5ffd5b506103ef610542366004614a5c565b61174c565b348015610552575f5ffd5b506103ef5f5160206157e45f395f51905f5281565b348015610572575f5ffd5b5061058661058136600461469f565b611c89565b6040516102b99190614ae1565b34801561059e575f5ffd5b5061028c6105ad3660046148bd565b611d25565b3480156105bd575f5ffd5b506103226105cc366004614af3565b611ef8565b3480156105dc575f5ffd5b506102ad6105eb3660046148bd565b611f25565b3480156105fb575f5ffd5b506040805180820190915260058152644d4e454d4f60d81b60208201526102f6565b348015610628575f5ffd5b5061028c610637366004614b13565b611f5b565b348015610647575f5ffd5b506103ef5f81565b34801561065a575f5ffd5b5061028c610669366004614b3b565b611fc6565b348015610679575f5ffd5b506103c361068836600461469f565b61203f565b6103ef61069b366004614b67565b61206f565b3480156106ab575f5ffd5b506102ad6106ba36600461487f565b6123c7565b6103ef6106cd366004614be8565b612404565b3480156106dd575f5ffd5b506102f66106ec36600461469f565b61262a565b3480156106fc575f5ffd5b506103ef61070b36600461469f565b6126b3565b34801561071b575f5ffd5b5061028c61072a366004614c96565b6126d7565b34801561073a575f5ffd5b506102ad61074936600461487f565b612780565b348015610759575f5ffd5b5061028c6107683660046148bd565b6127a2565b348015610778575f5ffd5b5061028c610787366004614a5c565b6127be565b348015610797575f5ffd5b506103ef6107a636600461478a565b6127d4565b3480156107b6575f5ffd5b506102ad6107c5366004614ce8565b612dbb565b3480156107d5575f5ffd5b506102f66107e436600461469f565b612df8565b3480156107f4575f5ffd5b5061028c6108033660046148bd565b612ea3565b348015610813575f5ffd5b5061028c610822366004614d14565b612f51565b348015610832575f5ffd5b506102f6604051806040016040528060058152602001640312e302e360dc1b81525081565b5f610860612f90565b805490915060ff600160401b82041615906001600160401b03165f811580156108865750825b90505f826001600160401b031660011480156108a15750303b155b9050811580156108af575080155b156108cd5760405163f92ee8a960e01b815260040160405180910390fd5b845467ffffffffffffffff1916600117855583156108f757845460ff60401b1916600160401b1785555b6109496040518060400160405280601081526020016f4d6e656d6f73796e65204167656e747360801b815250604051806040016040528060058152602001644d4e454d4f60d81b8152508a8a8a612fb8565b831561099057845460ff60401b19168555604051600181527fc7f505b2f371ae2175ee4913f4499e1f2633a7b5936321eed1cdaeb6115181d2906020015b60405180910390a15b50505050505050505050565b5f6001600160e01b03198216635a05180f60e01b14806109c057506109c08261314e565b92915050565b5f5f6109d0613182565b5f938452602052505060409020600401546001600160a01b031690565b5f6109f6613182565b5f838152602082905260409020549091506001600160a01b03163314610a375760405162461bcd60e51b8152600401610a2e90614d77565b60405180910390fd5b5f8281526020829052604080822060040180546001600160a01b0319166001600160a01b0387169081179091559051849233917f8c5be1e5ebec7d5bd14f71427d1e84f3dd0314c0f7b2291e5b200ac8c7c3b9259190a4505050565b60605f610a9e613182565b5f8481526020829052604090208054919250906001600160a01b0316610ad65760405162461bcd60e51b8152600401610a2e90614d9a565b80600101805480602002602001604051908101604052809291908181526020015f905b82821015610ba1578382905f5260205f20018054610b1690614dc3565b80601f0160208091040260200160405190810160405280929190818152602001828054610b4290614dc3565b8015610b8d5780601f10610b6457610100808354040283529160200191610b8d565b820191905f5260205f20905b815481529060010190602001808311610b7057829003601f168201915b505050505081526020019060010190610af9565b5050505092505050919050565b610bbb85858585856131a6565b610bc5838561371c565b5050505050565b60605f610bd7613182565b5f8481526020829052604090208054919250906001600160a01b0316610c0f5760405162461bcd60e51b8152600401610a2e90614d9a565b80600301805480602002602001604051908101604052809291908181526020018280548015610c6557602002820191905f5260205f20905b81546001600160a01b03168152600190910190602001808311610c47575b505050505092505050919050565b5f9081525f5160206157845f395f51905f52602052604090206001015490565b5f5f5160206157a45f395f51905f526001018383604051610cb5929190614dfb565b908152602001604051809103902054905092915050565b5f610cd5613182565b600701546001600160a01b0316919050565b610cf082610c73565b610cf98161382d565b610d03838361383a565b50505050565b6001600160a01b0381163314610d325760405163334bd91960e11b815260040160405180910390fd5b610d3c828261387c565b505050565b5f610d4a613182565b5f8581526020829052604090208054919250906001600160a01b03163314610d845760405162461bcd60e51b8152600401610a2e90614d77565b600782015460405163c2a93e3760e01b81525f916001600160a01b03169063c2a93e3790610db89088908890600401614e73565b5f604051808303815f875af1158015610dd3573d5f5f3e3d5ffd5b505050506040513d5f823e601f3d908101601f19168201604052610dfa9190810190614efa565b90505f81516001600160401b03811115610e1657610e16614464565b604051908082528060200260200182016040528015610e3f578160200160208202803683370190505b5090505f5b8251811015610f0a57828181518110610e5f57610e5f614fc1565b60200260200101516020015181848381518110610e7e57610e7e614fc1565b60200260200101515f0151604051602001610e9a929190614fd5565b60405160208183030381529060405290610ec75760405162461bcd60e51b8152600401610a2e919061468d565b50828181518110610eda57610eda614fc1565b60200260200101515f0151828281518110610ef757610ef7614fc1565b6020908102919091010152600101610e44565b505f83600201805480602002602001604051908101604052809291908181526020018280548015610f5857602002820191905f5260205f20905b815481526020019060010190808311610f44575b50508551939450610f76936002890193506020870192509050614311565b50877f51fa73895ca2bd4c7f525775384b199b6047f069e662b82aa9e1b0998b9c29758284604051610fa9929190615024565b60405180910390a25050505050505050565b33610fc5866116f9565b6001600160a01b031614610feb5760405162461bcd60e51b8152600401610a2e90614d77565b5f8581525f5160206157c45f395f51905f526020526040812080545f5160206157a45f395f51905f5292919061102090614dc3565b80601f016020809104026020016040519081016040528092919081815260200182805461104c90614dc3565b80156110975780601f1061106e57610100808354040283529160200191611097565b820191905f5260205f20905b81548152906001019060200180831161107a57829003601f168201915b505050505090505f8151116110be5760405162461bcd60e51b8152600401610a2e90615051565b5f8390036111695781600401816040516110d8919061508c565b908152602001604051809103902086866040516110f6929190614dfb565b90815260200160405180910390205f61110f919061435a565b858560405161111f929190614dfb565b604051809103902081604051611135919061508c565b604051908190038120907fd3719f3b4e97aa05a10666e3c81aaf4ff60ec6dbde62ede65de2426869f4937c905f90a361121f565b8383836004018360405161117d919061508c565b9081526020016040518091039020888860405161119b929190614dfb565b908152602001604051809103902091826111b69291906150db565b5085856040516111c7929190614dfb565b6040518091039020816040516111dd919061508c565b60405180910390207f4a19241c0e497f18b5c1f146d92ec7c29ab31937a8a5cdb8d8ee41623494c4af8686604051611216929190615194565b60405180910390a35b50505050505050565b60605f5160206157a45f395f51905f52600401858560405161124b929190614dfb565b90815260200160405180910390208383604051611269929190614dfb565b9081526020016040518091039020805461128290614dc3565b80601f01602080910402602001604051908101604052809291908181526020018280546112ae90614dc3565b80156112f95780601f106112d0576101008083540402835291602001916112f9565b820191905f5260205f20905b8154815290600101906020018083116112dc57829003601f168201915b50505050509050949350505050565b33611312866116f9565b6001600160a01b0316146113385760405162461bcd60e51b8152600401610a2e90614d77565b8281146113795760405162461bcd60e51b815260206004820152600f60248201526e098cadccee8d040dad2e6dac2e8c6d608b1b6044820152606401610a2e565b5f8581525f5160206157c45f395f51905f526020526040812080545f5160206157a45f395f51905f529291906113ae90614dc3565b80601f01602080910402602001604051908101604052809291908181526020018280546113da90614dc3565b80156114255780601f106113fc57610100808354040283529160200191611425565b820191905f5260205f20905b81548152906001019060200180831161140857829003601f168201915b505050505090505f81511161144c5760405162461bcd60e51b8152600401610a2e90615051565b5f5b858110156116af5784848281811061146857611468614fc1565b905060200281019061147a91906151a7565b90505f03611569578260040182604051611494919061508c565b90815260200160405180910390208787838181106114b4576114b4614fc1565b90506020028101906114c691906151a7565b6040516114d4929190614dfb565b90815260200160405180910390205f6114ed919061435a565b8686828181106114ff576114ff614fc1565b905060200281019061151191906151a7565b60405161151f929190614dfb565b604051809103902082604051611535919061508c565b604051908190038120907fd3719f3b4e97aa05a10666e3c81aaf4ff60ec6dbde62ede65de2426869f4937c905f90a36116a7565b84848281811061157b5761157b614fc1565b905060200281019061158d91906151a7565b846004018460405161159f919061508c565b90815260200160405180910390208989858181106115bf576115bf614fc1565b90506020028101906115d191906151a7565b6040516115df929190614dfb565b908152602001604051809103902091826115fa9291906150db565b5086868281811061160d5761160d614fc1565b905060200281019061161f91906151a7565b60405161162d929190614dfb565b604051809103902082604051611643919061508c565b60405180910390207f4a19241c0e497f18b5c1f146d92ec7c29ab31937a8a5cdb8d8ee41623494c4af87878581811061167e5761167e614fc1565b905060200281019061169091906151a7565b60405161169e929190615194565b60405180910390a35b60010161144e565b5050505050505050565b5f5f5160206157a45f395f51905f526040516116d89085908590614dfb565b908152604051908190036020019020546001600160a01b0316905092915050565b5f5f611703613182565b5f8481526020829052604090208054919250906001600160a01b031661173b5760405162461bcd60e51b8152600401610a2e90614d9a565b546001600160a01b03169392505050565b5f5f611756613182565b90506001600160a01b03861661177e5760405162461bcd60e51b8152600401610a2e906151e9565b5f858152602082905260409020546001600160a01b031633146117b35760405162461bcd60e51b8152600401610a2e90614d77565b60078101546040516349e176d360e11b81525f916001600160a01b0316906393c2eda6906117e79088908890600401614e73565b5f604051808303815f875af1158015611802573d5f5f3e3d5ffd5b505050506040513d5f823e601f3d908101601f19168201604052611829919081019061520f565b90505f81516001600160401b0381111561184557611845614464565b60405190808252806020026020018201604052801561186e578160200160208202803683370190505b5090505f82516001600160401b0381111561188b5761188b614464565b6040519080825280602002602001820160405280156118b4578160200160208202803683370190505b5090505f5b8351811015611a3f578381815181106118d4576118d4614fc1565b602002602001015160800151801561193157505f89815260208690526040902060020180548290811061190957611909614fc1565b905f5260205f20015484828151811061192457611924614fc1565b60200260200101515f0151145b801561196b5750896001600160a01b031684828151811061195457611954614fc1565b6020026020010151604001516001600160a01b0316145b8160405160200161197c9190615300565b604051602081830303815290604052906119a95760405162461bcd60e51b8152600401610a2e919061468d565b508381815181106119bc576119bc614fc1565b6020026020010151606001518282815181106119da576119da614fc1565b60200260200101906001600160801b03191690816001600160801b03191681525050838181518110611a0e57611a0e614fc1565b602002602001015160200151838281518110611a2c57611a2c614fc1565b60209081029190910101526001016118b9565b506002840180545f9182611a5283615357565b909155506040805160a0810182526001600160a01b038d1681525f8c8152602089815283822060010180548551818402810184019096528086529596509294818601949392909184015b82821015611b44578382905f5260205f20018054611ab990614dc3565b80601f0160208091040260200160405190810160405280929190818152602001828054611ae590614dc3565b8015611b305780601f10611b0757610100808354040283529160200191611b30565b820191905f5260205f20905b815481529060010190602001808311611b1357829003601f168201915b505050505081526020019060010190611a9c565b505050908252506020808201869052604080515f8082529281018252920191905081525f602091820181905283815287825260409020825181546001600160a01b0319166001600160a01b039091161781558282015180519192611bb092600185019290910190614391565b5060408201518051611bcc916002840191602090910190614311565b5060608201518051611be89160038401916020909101906143e1565b5060809190910151600490910180546001600160a01b0319166001600160a01b0392831617905560408051338152918c16602083015282918b917f40b442ee2bb535802063305b95f127b5101e5fce261a5dec9379683eaaad8cdb910160405180910390a3808a6001600160a01b03165f5160206157445f395f51905f5284604051611c74919061536f565b60405180910390a39998505050505050505050565b60605f611c94613182565b5f8481526020829052604090208054919250906001600160a01b0316611ccc5760405162461bcd60e51b8152600401610a2e90614d9a565b80600201805480602002602001604051908101604052809291908181526020018280548015610c6557602002820191905f5260205f20905b815481526020019060010190808311611d0457505050505092505050919050565b33611d2f836116f9565b6001600160a01b031614611d555760405162461bcd60e51b8152600401610a2e90614d77565b6001600160a01b038116611d7b5760405162461bcd60e51b8152600401610a2e906151e9565b5f8281525f5160206157c45f395f51905f526020526040812080545f5160206157a45f395f51905f52929190611db090614dc3565b80601f0160208091040260200160405190810160405280929190818152602001828054611ddc90614dc3565b8015611e275780601f10611dfe57610100808354040283529160200191611e27565b820191905f5260205f20905b815481529060010190602001808311611e0a57829003601f168201915b505050505090505f815111611e4e5760405162461bcd60e51b8152600401610a2e90615051565b5f825f0182604051611e60919061508c565b908152604051908190036020018120546001600160a01b0316915084908490611e8a90859061508c565b90815260405190819003602001812080546001600160a01b039384166001600160a01b0319909116179055858216918316907f7d83255ce44603fb701ee6f64038718c14f35b10cb3ea11dc6069599a3af9eba90611ee990869061468d565b60405180910390a35050505050565b5f8281525f5160206157645f395f51905f52602081905260408220611f1d90846138b5565b949350505050565b5f9182525f5160206157845f395f51905f52602090815260408084206001600160a01b0393909316845291905290205460ff1690565b5f5160206157e45f395f51905f52611f728161382d565b6001600160a01b038216611f985760405162461bcd60e51b8152600401610a2e906151e9565b81611fa1613182565b60070180546001600160a01b0319166001600160a01b03929092169190911790555050565b5f611fcf613182565b335f81815260018301602090815260408083206001600160a01b03891680855290835292819020805460ff1916881515908117909155905190815293945090927f17307eab39ab6107e8899845ad3d59bd9653f200f220920489ca2b5937696c31910160405180910390a3505050565b5f8181525f5160206157645f395f51905f526020819052604090912060609190612068906138c0565b9392505050565b5f5f612079613182565b90508386146120da5760405162461bcd60e51b815260206004820152602760248201527f4465736372697074696f6e7320616e642070726f6f6673206c656e677468206d6044820152660d2e6dac2e8c6d60cb1b6064820152608401610a2e565b6001600160a01b0383166120ec573392505b600781015460405163c2a93e3760e01b81525f916001600160a01b03169063c2a93e3790612120908b908b90600401614e73565b5f604051808303815f875af115801561213b573d5f5f3e3d5ffd5b505050506040513d5f823e601f3d908101601f191682016040526121629190810190614efa565b90505f81516001600160401b0381111561217e5761217e614464565b6040519080825280602002602001820160405280156121a7578160200160208202803683370190505b5090505f5b8251811015612272578281815181106121c7576121c7614fc1565b602002602001015160200151818483815181106121e6576121e6614fc1565b60200260200101515f0151604051602001612202929190614fd5565b6040516020818303038152906040529061222f5760405162461bcd60e51b8152600401610a2e919061468d565b5082818151811061224257612242614fc1565b60200260200101515f015182828151811061225f5761225f614fc1565b60209081029190910101526001016121ac565b50600283018054905f61228483615357565b9190505593506040518060a00160405280866001600160a01b031681526020018888906122b191906153b0565b81526020808201849052604080515f8082529281018252920191905081525f602091820181905286815285825260409020825181546001600160a01b0319166001600160a01b03909116178155828201518051919261231892600185019290910190614391565b5060408201518051612334916002840191602090910190614311565b50606082015180516123509160038401916020909101906143e1565b5060809190910151600490910180546001600160a01b0319166001600160a01b0392831617905560405190861690339086907f531bd8ca2b17505aaa50d843fabe2dfd9a3bb9e20c511d2288b24bd484861b02906123b39086908d908d90615412565b60405180910390a450505095945050505050565b5f5f5160206157a45f395f51905f5260050183836040516123e9929190614dfb565b9081526040519081900360200190205460ff16905092915050565b5f61240f83836138cc565b6040515f5160206157a45f395f51905f52907f056fd9b766381751453e856e178e6a31bebc85b06c3346484e0fd5926790ce03906124509086908690614dfb565b9081526040519081900360200190205460ff161561249e5760405162461bcd60e51b815260206004820152600b60248201526a2630b132b6103a30b5b2b760a91b6044820152606401610a2e565b8060050184846040516124b2929190614dfb565b9081526040519081900360200190205460ff16156125035760405162461bcd60e51b815260206004820152600e60248201526d131858995b081c995cd95c9d995960921b6044820152606401610a2e565b612510898989898961206f565b91505f61251c836116f9565b90506001826003018686604051612534929190614dfb565b908152604051908190036020018120805492151560ff1990931692909217909155819083906125669088908890614dfb565b90815260200160405180910390205f6101000a8154816001600160a01b0302191690836001600160a01b03160217905550828260010186866040516125ac929190614dfb565b9081526040805160209281900383019020929092555f85815260028501909152206125d88587836150db565b50806001600160a01b0316837f7e3796573ec778f8a4d447235f2edceca26693bde8812914365bc7fbfcf2ebe68787604051612615929190615194565b60405180910390a35050979650505050505050565b60605f612635613182565b905061264083613a5b565b6126835760405162461bcd60e51b8152602060048201526014602482015273151bdad95b88191bd95cc81b9bdd08195e1a5cdd60621b6044820152606401610a2e565b806005018160060160405160200161269c9291906154fc565b604051602081830303815290604052915050919050565b5f8181525f5160206157645f395f51905f5260208190526040822061206890613a84565b5f5160206157e45f395f51905f526126ee8161382d565b815f5160206157a45f395f51905f526005018585604051612710929190614dfb565b908152604051908190036020018120805492151560ff199093169290921790915561273e9085908590614dfb565b6040519081900381208315158252907f33075105f03ee91118b8dfab6bf2d2998cf3616e308d053045e244d8bb6af3c09060200160405180910390a250505050565b5f5f5160206157a45f395f51905f5260030183836040516123e9929190614dfb565b6127ab82610c73565b6127b48161382d565b610d03838361387c565b6127ca84848484613a8d565b610d03838561371c565b5f5f6127de613182565b90506001600160a01b0386166128065760405162461bcd60e51b8152600401610a2e906151e9565b5f858152602082905260409020546001600160a01b0388811691161461283e5760405162461bcd60e51b8152600401610a2e90614d77565b5f858152602082905260409020600401546001600160a01b031633148061287a57505f858152602082905260409020546001600160a01b031633145b806128a957506001600160a01b0387165f908152600182016020908152604080832033845290915290205460ff165b6128e45760405162461bcd60e51b815260206004820152600c60248201526b139bdd08185c1c1c9bdd995960a21b6044820152606401610a2e565b60078101546040516349e176d360e11b81525f916001600160a01b0316906393c2eda6906129189088908890600401614e73565b5f604051808303815f875af1158015612933573d5f5f3e3d5ffd5b505050506040513d5f823e601f3d908101601f1916820160405261295a919081019061520f565b90505f81516001600160401b0381111561297657612976614464565b60405190808252806020026020018201604052801561299f578160200160208202803683370190505b5090505f82516001600160401b038111156129bc576129bc614464565b6040519080825280602002602001820160405280156129e5578160200160208202803683370190505b5090505f5b8351811015612b7057838181518110612a0557612a05614fc1565b6020026020010151608001518015612a6257505f898152602086905260409020600201805482908110612a3a57612a3a614fc1565b905f5260205f200154848281518110612a5557612a55614fc1565b60200260200101515f0151145b8015612a9c5750896001600160a01b0316848281518110612a8557612a85614fc1565b6020026020010151604001516001600160a01b0316145b81604051602001612aad9190615300565b60405160208183030381529060405290612ada5760405162461bcd60e51b8152600401610a2e919061468d565b50838181518110612aed57612aed614fc1565b602002602001015160600151828281518110612b0b57612b0b614fc1565b60200260200101906001600160801b03191690816001600160801b03191681525050838181518110612b3f57612b3f614fc1565b602002602001015160200151838281518110612b5d57612b5d614fc1565b60209081029190910101526001016129ea565b506002840180545f9182612b8383615357565b909155506040805160a0810182526001600160a01b038d1681525f8c8152602089815283822060010180548551818402810184019096528086529596509294818601949392909184015b82821015612c75578382905f5260205f20018054612bea90614dc3565b80601f0160208091040260200160405190810160405280929190818152602001828054612c1690614dc3565b8015612c615780601f10612c3857610100808354040283529160200191612c61565b820191905f5260205f20905b815481529060010190602001808311612c4457829003601f168201915b505050505081526020019060010190612bcd565b505050908252506020808201869052604080515f8082529281018252920191905081525f602091820181905283815287825260409020825181546001600160a01b0319166001600160a01b039091161781558282015180519192612ce192600185019290910190614391565b5060408201518051612cfd916002840191602090910190614311565b5060608201518051612d199160038401916020909101906143e1565b5060809190910151600490910180546001600160a01b0319166001600160a01b0392831617905560408051338152918c16602083015282918b917f40b442ee2bb535802063305b95f127b5101e5fce261a5dec9379683eaaad8cdb910160405180910390a3808a6001600160a01b03165f5160206157445f395f51905f5284604051612da5919061536f565b60405180910390a39a9950505050505050505050565b5f5f612dc5613182565b6001600160a01b039485165f90815260019190910160209081526040808320959096168252939093525050205460ff1690565b5f8181525f5160206157c45f395f51905f5260205260409020805460609190612e2090614dc3565b80601f0160208091040260200160405190810160405280929190818152602001828054612e4c90614dc3565b8015612e975780601f10612e6e57610100808354040283529160200191612e97565b820191905f5260205f20905b815481529060010190602001808311612e7a57829003601f168201915b50505050509050919050565b5f612eac613182565b5f848152602082905260409020549091506001600160a01b03163314612ee45760405162461bcd60e51b8152600401610a2e90614d77565b5f83815260208281526040808320600301805460018101825590845291832090910180546001600160a01b0319166001600160a01b0386169081179091559051859233917f8a1c60ca1a16acd72d841a74fa5905de3938132b0b2ff6cb385a7e69af345fc99190a4505050565b5f5160206157e45f395f51905f52612f688161382d565b5f612f71613182565b905060058101612f818582615554565b5060068101610bc58482615554565b5f807ff0c57e16840df040f15088dc2f81fe391c3923bec73e23a9662efc9c229c6a006109c0565b5f612fc1612f90565b805490915060ff600160401b82041615906001600160401b03165f81158015612fe75750825b90505f826001600160401b031660011480156130025750303b155b905081158015613010575080155b1561302e5760405163f92ee8a960e01b815260040160405180910390fd5b845467ffffffffffffffff19166001178555831561305857845460ff60401b1916600160401b1785555b6001600160a01b03881661307e5760405162461bcd60e51b8152600401610a2e906151e9565b613086613e35565b6130905f3361383a565b506130a85f5160206157e45f395f51905f523361383a565b505f6130b2613182565b9050600381016130c28c82615554565b50600481016130d18b82615554565b50600581016130e08982615554565b50600681016130ef8882615554565b5060070180546001600160a01b0319166001600160a01b038a16179055831561099057845460ff60401b19168555604051600181527fc7f505b2f371ae2175ee4913f4499e1f2633a7b5936321eed1cdaeb6115181d290602001610987565b5f6001600160e01b03198216637965db0b60e01b14806109c057506301ffc9a760e01b6001600160e01b03198316146109c0565b7f4aa80aaafbe0e5fe3fe1aa97f3c1f8c65d61f96ef1aab2b448154f4e0759460090565b5f6131af613182565b90506001600160a01b0385166131d75760405162461bcd60e51b8152600401610a2e906151e9565b5f848152602082905260409020546001600160a01b0387811691161461320f5760405162461bcd60e51b8152600401610a2e90614d77565b5f848152602082905260409020600401546001600160a01b031633148061324b57505f848152602082905260409020546001600160a01b031633145b8061327a57506001600160a01b0386165f908152600182016020908152604080832033845290915290205460ff165b6132b55760405162461bcd60e51b815260206004820152600c60248201526b139bdd08185c1c1c9bdd995960a21b6044820152606401610a2e565b60078101546040516349e176d360e11b81525f916001600160a01b0316906393c2eda6906132e99087908790600401614e73565b5f604051808303815f875af1158015613304573d5f5f3e3d5ffd5b505050506040513d5f823e601f3d908101601f1916820160405261332b919081019061520f565b90505f81516001600160401b0381111561334757613347614464565b604051908082528060200260200182016040528015613370578160200160208202803683370190505b5090505f82516001600160401b0381111561338d5761338d614464565b6040519080825280602002602001820160405280156133b6578160200160208202803683370190505b5090505f5b8351811015613665578381815181106133d6576133d6614fc1565b60200260200101516080015161342e5760405162461bcd60e51b815260206004820152601f60248201527f496e76616c6964207472616e736665722076616c69646974792070726f6f66006044820152606401610a2e565b5f88815260208690526040902060020180548290811061345057613450614fc1565b905f5260205f20015484828151811061346b5761346b614fc1565b602002602001015160200151146134a285838151811061348d5761348d614fc1565b6020026020010151602001515f1c6020613e3f565b5f8a815260208890526040902060020180546134db9190859081106134c9576134c9614fc1565b905f5260205f2001545f1c6020613e3f565b6040516020016134ec92919061560e565b604051602081830303815290604052906135195760405162461bcd60e51b8152600401610a2e919061468d565b50886001600160a01b031684828151811061353657613536614fc1565b6020026020010151604001516001600160a01b03161461357d85838151811061356157613561614fc1565b6020026020010151604001516001600160a01b03166014613e3f565b6135918b6001600160a01b03166014613e3f565b6040516020016135a2929190615677565b604051602081830303815290604052906135cf5760405162461bcd60e51b8152600401610a2e919061468d565b508381815181106135e2576135e2614fc1565b60200260200101516060015183828151811061360057613600614fc1565b60200260200101906001600160801b03191690816001600160801b0319168152505083818151811061363457613634614fc1565b60200260200101516020015182828151811061365257613652614fc1565b60209081029190910101526001016133bb565b505f8781526020858152604090912080546001600160a01b0319166001600160a01b038b1617815582516136a192600290920191840190614311565b506040518781526001600160a01b0389169033907f0ea8df787dde63a7bdc34d17097adf25749a3521f660e92dabdff8d6ee91d18a9060200160405180910390a386886001600160a01b03165f5160206157445f395f51905f5284604051613709919061536f565b60405180910390a3505050505050505050565b5f8281525f5160206157c45f395f51905f526020526040812080545f5160206157a45f395f51905f5292919061375190614dc3565b80601f016020809104026020016040519081016040528092919081815260200182805461377d90614dc3565b80156137c85780601f1061379f576101008083540402835291602001916137c8565b820191905f5260205f20905b8154815290600101906020018083116137ab57829003601f168201915b5050505050905080515f036137dd5750505050565b5f825f01826040516137ef919061508c565b908152604051908190036020019020546001600160a01b0390811691508416810361381b575050505050565b83835f0183604051611e8a919061508c565b6138378133613fb0565b50565b5f5f5160206157645f395f51905f52816138548585613fed565b90508015611f1d575f858152602083905260409020613873908561408e565b50949350505050565b5f5f5160206157645f395f51905f528161389685856140a2565b90508015611f1d575f858152602083905260409020613873908561411b565b5f612068838361412f565b60605f61206883614155565b5f82828080601f0160208091040260200160405190810160405280939291908181526020018383808284375f920191909152505082519293505050158015906139175750603f815111155b6139535760405162461bcd60e51b815260206004820152600d60248201526c131858995b081a5b9d985b1a59609a1b6044820152606401610a2e565b5f5b8151811015610d03575f82828151811061397157613971614fc1565b01602001516001600160f81b03191690505f606160f81b82108015906139a55750603d60f91b6001600160f81b0319831611155b806139d75750600360fc1b6001600160f81b03198316108015906139d75750603960f81b6001600160f81b0319831611155b80613a125750602d60f81b6001600160f81b031983161480156139f957508215155b8015613a12575060018451613a0e91906156dd565b8314155b905080613a515760405162461bcd60e51b815260206004820152600d60248201526c131858995b081a5b9d985b1a59609a1b6044820152606401610a2e565b5050600101613955565b5f80613a65613182565b5f9384526020526040909220546001600160a01b031690911415919050565b5f6109c0825490565b5f613a96613182565b90506001600160a01b038516613abe5760405162461bcd60e51b8152600401610a2e906151e9565b5f848152602082905260409020546001600160a01b03163314613af35760405162461bcd60e51b8152600401610a2e90614d77565b60078101546040516349e176d360e11b81525f916001600160a01b0316906393c2eda690613b279087908790600401614e73565b5f604051808303815f875af1158015613b42573d5f5f3e3d5ffd5b505050506040513d5f823e601f3d908101601f19168201604052613b69919081019061520f565b90505f81516001600160401b03811115613b8557613b85614464565b604051908082528060200260200182016040528015613bae578160200160208202803683370190505b5090505f82516001600160401b03811115613bcb57613bcb614464565b604051908082528060200260200182016040528015613bf4578160200160208202803683370190505b5090505f5b8351811015613d7f57838181518110613c1457613c14614fc1565b6020026020010151608001518015613c7157505f888152602086905260409020600201805482908110613c4957613c49614fc1565b905f5260205f200154848281518110613c6457613c64614fc1565b60200260200101515f0151145b8015613cab5750886001600160a01b0316848281518110613c9457613c94614fc1565b6020026020010151604001516001600160a01b0316145b81604051602001613cbc9190615300565b60405160208183030381529060405290613ce95760405162461bcd60e51b8152600401610a2e919061468d565b50838181518110613cfc57613cfc614fc1565b602002602001015160600151838281518110613d1a57613d1a614fc1565b60200260200101906001600160801b03191690816001600160801b03191681525050838181518110613d4e57613d4e614fc1565b602002602001015160200151828281518110613d6c57613d6c614fc1565b6020908102919091010152600101613bf9565b505f8781526020858152604090912080546001600160a01b0319166001600160a01b038b161781558251613dbb92600290920191840190614311565b506040518781526001600160a01b0389169033907f0ea8df787dde63a7bdc34d17097adf25749a3521f660e92dabdff8d6ee91d18a9060200160405180910390a386886001600160a01b03165f5160206157445f395f51905f5284604051613e23919061536f565b60405180910390a35050505050505050565b613e3d6141ad565b565b6060825f613e4e8460026156f0565b613e59906002615707565b6001600160401b03811115613e7057613e70614464565b6040519080825280601f01601f191660200182016040528015613e9a576020820181803683370190505b509050600360fc1b815f81518110613eb457613eb4614fc1565b60200101906001600160f81b03191690815f1a905350600f60fb1b81600181518110613ee257613ee2614fc1565b60200101906001600160f81b03191690815f1a9053505f613f048560026156f0565b613f0f906001615707565b90505b6001811115613f86576f181899199a1a9b1b9c1cb0b131b232b360811b83600f1660108110613f4357613f43614fc1565b1a60f81b828281518110613f5957613f59614fc1565b60200101906001600160f81b03191690815f1a90535060049290921c91613f7f8161571a565b9050613f12565b508115611f1d5760405163e22e27eb60e01b81526004810186905260248101859052604401610a2e565b613fba8282611f25565b613fe95760405163e2517d3f60e01b81526001600160a01b038216600482015260248101839052604401610a2e565b5050565b5f5f5160206157845f395f51905f526140068484611f25565b614085575f848152602082815260408083206001600160a01b03871684529091529020805460ff1916600117905561403b3390565b6001600160a01b0316836001600160a01b0316857f2f8788117e7eff1d82e926ec794901d17c78024a50270940304540a733656f0d60405160405180910390a460019150506109c0565b5f9150506109c0565b5f612068836001600160a01b0384166141d2565b5f5f5160206157845f395f51905f526140bb8484611f25565b15614085575f848152602082815260408083206001600160a01b0387168085529252808320805460ff1916905551339287917ff6391f5c32d9c69d2a47ea670b442974b53935d1edc7fd64eb21e047a839171b9190a460019150506109c0565b5f612068836001600160a01b03841661421e565b5f825f01828154811061414457614144614fc1565b905f5260205f200154905092915050565b6060815f01805480602002602001604051908101604052809291908181526020018280548015612e9757602002820191905f5260205f20905b81548152602001906001019080831161418e5750505050509050919050565b6141b56142f8565b613e3d57604051631afcd79f60e31b815260040160405180910390fd5b5f81815260018301602052604081205461421757508154600181810184555f8481526020808220909301849055845484825282860190935260409020919091556109c0565b505f6109c0565b5f8181526001830160205260408120548015614085575f6142406001836156dd565b85549091505f90614253906001906156dd565b90508082146142b2575f865f01828154811061427157614271614fc1565b905f5260205f200154905080875f01848154811061429157614291614fc1565b5f918252602080832090910192909255918252600188019052604090208390555b85548690806142c3576142c361572f565b600190038181905f5260205f20015f90559055856001015f8681526020019081526020015f205f9055600193505050506109c0565b5f614301612f90565b54600160401b900460ff16919050565b828054828255905f5260205f2090810192821561434a579160200282015b8281111561434a57825182559160200191906001019061432f565b50614356929150614434565b5090565b50805461436690614dc3565b5f825580601f10614375575050565b601f0160209004905f5260205f20908101906138379190614434565b828054828255905f5260205f209081019282156143d5579160200282015b828111156143d557825182906143c59082615554565b50916020019190600101906143af565b50614356929150614448565b828054828255905f5260205f2090810192821561434a579160200282015b8281111561434a57825182546001600160a01b0319166001600160a01b039091161782556020909201916001909101906143ff565b5b80821115614356575f8155600101614435565b80821115614356575f61445b828261435a565b50600101614448565b634e487b7160e01b5f52604160045260245ffd5b604080519081016001600160401b038111828210171561449a5761449a614464565b60405290565b60405160a081016001600160401b038111828210171561449a5761449a614464565b604051601f8201601f191681016001600160401b03811182821017156144ea576144ea614464565b604052919050565b5f82601f830112614501575f5ffd5b81356001600160401b0381111561451a5761451a614464565b61452d601f8201601f19166020016144c2565b818152846020838601011115614541575f5ffd5b816020850160208301375f918101602001919091529392505050565b6001600160a01b0381168114613837575f5ffd5b5f5f5f5f5f60a08688031215614585575f5ffd5b85356001600160401b0381111561459a575f5ffd5b6145a6888289016144f2565b95505060208601356001600160401b038111156145c1575f5ffd5b6145cd888289016144f2565b94505060408601356145de8161455d565b925060608601356001600160401b038111156145f8575f5ffd5b614604888289016144f2565b92505060808601356001600160401b0381111561461f575f5ffd5b61462b888289016144f2565b9150509295509295909350565b5f60208284031215614648575f5ffd5b81356001600160e01b031981168114612068575f5ffd5b5f81518084528060208401602086015e5f602082860101526020601f19601f83011685010191505092915050565b602081525f612068602083018461465f565b5f602082840312156146af575f5ffd5b5035919050565b5f5f604083850312156146c7575f5ffd5b82356146d28161455d565b946020939093013593505050565b5f602082016020835280845180835260408501915060408160051b8601019250602086015f5b8281101561473757603f1987860301845261472285835161465f565b94506020938401939190910190600101614706565b50929695505050505050565b5f5f83601f840112614753575f5ffd5b5081356001600160401b03811115614769575f5ffd5b6020830191508360208260051b8501011115614783575f5ffd5b9250929050565b5f5f5f5f5f6080868803121561479e575f5ffd5b85356147a98161455d565b945060208601356147b98161455d565b93506040860135925060608601356001600160401b038111156147da575f5ffd5b6147e688828901614743565b969995985093965092949392505050565b602080825282518282018190525f918401906040840190835b818110156148375783516001600160a01b0316835260209384019390920191600101614810565b509095945050505050565b5f5f83601f840112614852575f5ffd5b5081356001600160401b03811115614868575f5ffd5b602083019150836020828501011115614783575f5ffd5b5f5f60208385031215614890575f5ffd5b82356001600160401b038111156148a5575f5ffd5b6148b185828601614842565b90969095509350505050565b5f5f604083850312156148ce575f5ffd5b8235915060208301356148e08161455d565b809150509250929050565b5f5f5f604084860312156148fd575f5ffd5b8335925060208401356001600160401b03811115614919575f5ffd5b61492586828701614743565b9497909650939450505050565b5f5f5f5f5f60608688031215614946575f5ffd5b8535945060208601356001600160401b03811115614962575f5ffd5b61496e88828901614842565b90955093505060408601356001600160401b0381111561498c575f5ffd5b6147e688828901614842565b5f5f5f5f604085870312156149ab575f5ffd5b84356001600160401b038111156149c0575f5ffd5b6149cc87828801614842565b90955093505060208501356001600160401b038111156149ea575f5ffd5b6149f687828801614842565b95989497509550505050565b5f5f5f5f5f60608688031215614a16575f5ffd5b8535945060208601356001600160401b03811115614a32575f5ffd5b614a3e88828901614743565b90955093505060408601356001600160401b038111156147da575f5ffd5b5f5f5f5f60608587031215614a6f575f5ffd5b8435614a7a8161455d565b93506020850135925060408501356001600160401b03811115614a9b575f5ffd5b6149f687828801614743565b5f8151808452602084019350602083015f5b82811015614ad7578151865260209586019590910190600101614ab9565b5093949350505050565b602081525f6120686020830184614aa7565b5f5f60408385031215614b04575f5ffd5b50508035926020909101359150565b5f60208284031215614b23575f5ffd5b81356120688161455d565b8015158114613837575f5ffd5b5f5f60408385031215614b4c575f5ffd5b8235614b578161455d565b915060208301356148e081614b2e565b5f5f5f5f5f60608688031215614b7b575f5ffd5b85356001600160401b03811115614b90575f5ffd5b614b9c88828901614743565b90965094505060208601356001600160401b03811115614bba575f5ffd5b614bc688828901614743565b9094509250506040860135614bda8161455d565b809150509295509295909350565b5f5f5f5f5f5f5f6080888a031215614bfe575f5ffd5b87356001600160401b03811115614c13575f5ffd5b614c1f8a828b01614743565b90985096505060208801356001600160401b03811115614c3d575f5ffd5b614c498a828b01614743565b9096509450506040880135614c5d8161455d565b925060608801356001600160401b03811115614c77575f5ffd5b614c838a828b01614842565b989b979a50959850939692959293505050565b5f5f5f60408486031215614ca8575f5ffd5b83356001600160401b03811115614cbd575f5ffd5b614cc986828701614842565b9094509250506020840135614cdd81614b2e565b809150509250925092565b5f5f60408385031215614cf9575f5ffd5b8235614d048161455d565b915060208301356148e08161455d565b5f5f60408385031215614d25575f5ffd5b82356001600160401b03811115614d3a575f5ffd5b614d46858286016144f2565b92505060208301356001600160401b03811115614d61575f5ffd5b614d6d858286016144f2565b9150509250929050565b6020808252600990820152682737ba1037bbb732b960b91b604082015260600190565b6020808252600f908201526e151bdad95b881b9bdd08195e1a5cdd608a1b604082015260600190565b600181811c90821680614dd757607f821691505b602082108103614df557634e487b7160e01b5f52602260045260245ffd5b50919050565b818382375f9101908152919050565b81835281816020850137505f828201602090810191909152601f909101601f19169091010190565b5f5f8335601e19843603018112614e47575f5ffd5b83016020810192503590506001600160401b03811115614e65575f5ffd5b803603821315614783575f5ffd5b602080825281018290525f6040600584901b8301810190830185835b86811015614ecc57858403603f19018352614eaa8289614e32565b614eb5868284614e0a565b955050506020928301929190910190600101614e8f565b50919695505050505050565b5f6001600160401b03821115614ef057614ef0614464565b5060051b60200190565b5f60208284031215614f0a575f5ffd5b81516001600160401b03811115614f1f575f5ffd5b8201601f81018413614f2f575f5ffd5b8051614f42614f3d82614ed8565b6144c2565b8082825260208201915060208360061b850101925086831115614f63575f5ffd5b6020840193505b82841015614fb75760408488031215614f81575f5ffd5b614f89614478565b845181526020850151614f9b81614b2e565b8060208301525080835250602082019150604084019350614f6a565b9695505050505050565b634e487b7160e01b5f52603260045260245ffd5b7f496e76616c696420707265696d6167652070726f6f6620617420696e64657820815260208101929092526f0103bb4ba34103230ba30903430b9b4160851b6040830152605082015260700190565b604081525f6150366040830185614aa7565b82810360208401526150488185614aa7565b95945050505050565b6020808252600a90820152694e6f207375626e616d6560b01b604082015260600190565b5f81518060208401855e5f93019283525090919050565b5f6120688284615075565b601f821115610d3c57805f5260205f20601f840160051c810160208510156150bc5750805b601f840160051c820191505b81811015610bc5575f81556001016150c8565b6001600160401b038311156150f2576150f2614464565b615106836151008354614dc3565b83615097565b5f601f841160018114615137575f85156151205750838201355b5f19600387901b1c1916600186901b178355610bc5565b5f83815260208120601f198716915b828110156151665786850135825560209485019460019092019101615146565b5086821015615182575f1960f88860031b161c19848701351681555b505060018560011b0183555050505050565b602081525f611f1d602083018486614e0a565b5f5f8335601e198436030181126151bc575f5ffd5b8301803591506001600160401b038211156151d5575f5ffd5b602001915036819003821315614783575f5ffd5b6020808252600c908201526b5a65726f206164647265737360a01b604082015260600190565b5f6020828403121561521f575f5ffd5b81516001600160401b03811115615234575f5ffd5b8201601f81018413615244575f5ffd5b8051615252614f3d82614ed8565b80828252602082019150602060a08402850101925086831115615273575f5ffd5b6020840193505b82841015614fb75760a08488031215615291575f5ffd5b6152996144a0565b845181526020808601519082015260408501516152b58161455d565b604082015260608501516001600160801b0319811681146152d4575f5ffd5b606082015260808501516152e781614b2e565b6080820152825260a0939093019260209091019061527a565b7f496e76616c6964207472616e736665722076616c69646974792070726f6f6620815268030ba1034b73232bc160bd1b6020820152602981019190915260490190565b634e487b7160e01b5f52601160045260245ffd5b5f6001820161536857615368615343565b5060010190565b602080825282518282018190525f918401906040840190835b818110156148375783516001600160801b031916835260209384019390920191600101615388565b5f6153bd614f3d84614ed8565b8381526020810190600585901b8401368111156153d8575f5ffd5b845b818110156148375780356001600160401b038111156153f7575f5ffd5b615403368289016144f2565b855250602093840193016153da565b604081525f6154246040830186614aa7565b82810360208401528084825260208201905060208560051b830101865f5b8781101561548057848303601f1901845261545d828a614e32565b615468858284614e0a565b60209687019690955093909301925050600101615442565b509098975050505050505050565b5f815461549a81614dc3565b6001821680156154b157600181146154c6576154f3565b60ff19831686528115158202860193506154f3565b845f5260205f205f5b838110156154eb578154888201526001909101906020016154cf565b505081860193505b50505092915050565b6c3d9131b430b4b72aa926111d1160991b81525f61551d600d83018561548e565b6f11161134b73232bc32b92aa926111d1160811b8152615540601082018561548e565b61227d60f01b815260020195945050505050565b81516001600160401b0381111561556d5761556d614464565b6155818161557b8454614dc3565b84615097565b6020601f8211600181146155b3575f831561559c5750848201515b5f19600385901b1c1916600184901b178455610bc5565b5f84815260208120601f198516915b828110156155e257878501518255602094850194600190920191016155c2565b50848210156155ff57868401515f19600387901b60f8161c191681555b50505050600190811b01905550565b7f4e657720646174612068617368206d69736d617463682c206861736820696e208152660383937b7b31d160cd1b60208201525f61564f6027830185615075565b7401610313aba103430b9b41034b7103a37b5b2b71d1605d1b81526150486015820185615075565b7f5265636569766572206d69736d617463682c20726563656976657220696e207081526503937b7b31d160d51b60208201525f6156b76026830185615075565b7201610313aba103a3930b739b332b9103a379d1606d1b81526150486013820185615075565b818103818111156109c0576109c0615343565b80820281158282048414176109c0576109c0615343565b808201808211156109c0576109c0615343565b5f8161572857615728615343565b505f190190565b634e487b7160e01b5f52603160045260245ffdfe156aabbd131f533640c54a2c9d227cce945fa46b6e45df7a473d76203233b9b5c1f6fe24621ce81ec5827caf0253cadb74709b061630e6b55e8237170593200002dd7bc7dec4dceedda775e58dd541e08a116c6c53815c0bd028192f7b626800056fd9b766381751453e856e178e6a31bebc85b06c3346484e0fd5926790ce00056fd9b766381751453e856e178e6a31bebc85b06c3346484e0fd5926790ce02a49807205ce4d355092ef5a8a18f56e8913cf4a201fbe287825b095693c21775a264697066735822122011e200fc27f1b68396e160f8c406c7ba0ccd8373276852cd27af98635b83519264736f6c634300081c0033",
  "linkReferences": {},
  "deployedLinkReferences": {},
  "immutableReferences": {},
  "inputSourceName": "project/contracts/MnemoAgentNFT.sol",
  "buildInfoId": "solc-0_8_28-587e8afd3ed2aefb13ce418c0b1df459db866eea"
}