{
  "_format": "hh3-artifact-1",
  "contractName": "OffchainResolver",
  "sourceName": "contracts/resolver/OffchainResolver.sol",
  "abi": [
    {
      "inputs": [
        {
          "internalType": "string",
          "name": "_url",
          "type": "string"
        },
        {
          "internalType": "address[]",
          "name": "_signers",
          "type": "address[]"
        }
      ],
      "stateMutability": "nonpayable",
      "type": "constructor"
    },
    {
      "inputs": [],
      "name": "ECDSAInvalidSignature",
      "type": "error"
    },
    {
      "inputs": [
        {
          "internalType": "uint256",
          "name": "length",
          "type": "uint256"
        }
      ],
      "name": "ECDSAInvalidSignatureLength",
      "type": "error"
    },
    {
      "inputs": [
        {
          "internalType": "bytes32",
          "name": "s",
          "type": "bytes32"
        }
      ],
      "name": "ECDSAInvalidSignatureS",
      "type": "error"
    },
    {
      "inputs": [
        {
          "internalType": "address",
          "name": "sender",
          "type": "address"
        },
        {
          "internalType": "string[]",
          "name": "urls",
          "type": "string[]"
        },
        {
          "internalType": "bytes",
          "name": "callData",
          "type": "bytes"
        },
        {
          "internalType": "bytes4",
          "name": "callbackFunction",
          "type": "bytes4"
        },
        {
          "internalType": "bytes",
          "name": "extraData",
          "type": "bytes"
        }
      ],
      "name": "OffchainLookup",
      "type": "error"
    },
    {
      "anonymous": false,
      "inputs": [
        {
          "indexed": false,
          "internalType": "address[]",
          "name": "signers",
          "type": "address[]"
        }
      ],
      "name": "NewSigners",
      "type": "event"
    },
    {
      "inputs": [
        {
          "internalType": "address",
          "name": "target",
          "type": "address"
        },
        {
          "internalType": "uint64",
          "name": "expires",
          "type": "uint64"
        },
        {
          "internalType": "bytes",
          "name": "request",
          "type": "bytes"
        },
        {
          "internalType": "bytes",
          "name": "result",
          "type": "bytes"
        }
      ],
      "name": "makeSignatureHash",
      "outputs": [
        {
          "internalType": "bytes32",
          "name": "",
          "type": "bytes32"
        }
      ],
      "stateMutability": "pure",
      "type": "function"
    },
    {
      "inputs": [
        {
          "internalType": "bytes",
          "name": "name",
          "type": "bytes"
        },
        {
          "internalType": "bytes",
          "name": "data",
          "type": "bytes"
        }
      ],
      "name": "resolve",
      "outputs": [
        {
          "internalType": "bytes",
          "name": "",
          "type": "bytes"
        }
      ],
      "stateMutability": "view",
      "type": "function"
    },
    {
      "inputs": [
        {
          "internalType": "bytes",
          "name": "response",
          "type": "bytes"
        },
        {
          "internalType": "bytes",
          "name": "extraData",
          "type": "bytes"
        }
      ],
      "name": "resolveWithProof",
      "outputs": [
        {
          "internalType": "bytes",
          "name": "",
          "type": "bytes"
        }
      ],
      "stateMutability": "view",
      "type": "function"
    },
    {
      "inputs": [
        {
          "internalType": "address",
          "name": "",
          "type": "address"
        }
      ],
      "name": "signers",
      "outputs": [
        {
          "internalType": "bool",
          "name": "",
          "type": "bool"
        }
      ],
      "stateMutability": "view",
      "type": "function"
    },
    {
      "inputs": [
        {
          "internalType": "bytes4",
          "name": "interfaceID",
          "type": "bytes4"
        }
      ],
      "name": "supportsInterface",
      "outputs": [
        {
          "internalType": "bool",
          "name": "",
          "type": "bool"
        }
      ],
      "stateMutability": "pure",
      "type": "function"
    },
    {
      "inputs": [],
      "name": "url",
      "outputs": [
        {
          "internalType": "string",
          "name": "",
          "type": "string"
        }
      ],
      "stateMutability": "view",
      "type": "function"
    }
  ],
  "bytecode": "0x608060405234801561000f575f5ffd5b5060405161103b38038061103b83398101604081905261002e916101aa565b5f61003983826102e9565b505f5b8151811015610094576001805f84848151811061005b5761005b6103a3565b6020908102919091018101516001600160a01b031682528101919091526040015f20805460ff191691151591909117905560010161003c565b507fab0b9cc3a46b568cb08d985497cde8ab7e18892d01f58db7dc7f0d2af859b2d7816040516100c491906103b7565b60405180910390a15050610402565b634e487b7160e01b5f52604160045260245ffd5b604051601f8201601f191681016001600160401b038111828210171561010f5761010f6100d3565b604052919050565b5f82601f830112610126575f5ffd5b81516001600160401b0381111561013f5761013f6100d3565b8060051b61014f602082016100e7565b9182526020818501810192908101908684111561016a575f5ffd5b6020860192505b838310156101a05782516001600160a01b038116811461018f575f5ffd5b825260209283019290910190610171565b9695505050505050565b5f5f604083850312156101bb575f5ffd5b82516001600160401b038111156101d0575f5ffd5b8301601f810185136101e0575f5ffd5b80516001600160401b038111156101f9576101f96100d3565b61020c601f8201601f19166020016100e7565b818152866020838501011115610220575f5ffd5b8160208401602083015e5f60208383010152809450505050602083015160018060401b0381111561024f575f5ffd5b61025b85828601610117565b9150509250929050565b600181811c9082168061027957607f821691505b60208210810361029757634e487b7160e01b5f52602260045260245ffd5b50919050565b601f8211156102e457805f5260205f20601f840160051c810160208510156102c25750805b601f840160051c820191505b818110156102e1575f81556001016102ce565b50505b505050565b81516001600160401b03811115610302576103026100d3565b610316816103108454610265565b8461029d565b6020601f821160018114610348575f83156103315750848201515b5f19600385901b1c1916600184901b1784556102e1565b5f84815260208120601f198516915b828110156103775787850151825560209485019460019092019101610357565b508482101561039457868401515f19600387901b60f8161c191681555b50505050600190811b01905550565b634e487b7160e01b5f52603260045260245ffd5b602080825282518282018190525f918401906040840190835b818110156103f75783516001600160a01b03168352602093840193909201916001016103d0565b509095945050505050565b610c2c8061040f5f395ff3fe608060405234801561000f575f5ffd5b5060043610610060575f3560e01c806301ffc9a7146100645780631dcfea091461008c5780635600f04f146100ad578063736c0d5b146100c25780639061b923146100e4578063f4d4d2f8146100f7575b5f5ffd5b610077610072366004610713565b61010a565b60405190151581526020015b60405180910390f35b61009f61009a366004610813565b610140565b604051908152602001610083565b6100b5610156565b60405161008391906108c8565b6100776100d03660046108da565b60016020525f908152604090205460ff1681565b6100b56100f236600461093a565b6101e1565b6100b561010536600461093a565b61035a565b5f6001600160e01b03198216639061b92360e01b148061013a57506301ffc9a760e01b6001600160e01b03198316145b92915050565b5f61014d858585856103ec565b95945050505050565b5f8054610162906109a6565b80601f016020809104026020016040519081016040528092919081815260200182805461018e906109a6565b80156101d95780601f106101b0576101008083540402835291602001916101d9565b820191905f5260205f20905b8154815290600101906020018083116101bc57829003601f168201915b505050505081565b60605f639061b92360e01b868686866040516024016102039493929190610a06565b60408051601f19818403018152918152602080830180516001600160e01b03166001600160e01b03199590951694909417909352805160018082528183019092529193505f9282015b606081526020019060019003908161024c5790505090505f805461026f906109a6565b80601f016020809104026020016040519081016040528092919081815260200182805461029b906109a6565b80156102e65780601f106102bd576101008083540402835291602001916102e6565b820191905f5260205f20905b8154815290600101906020018083116102c957829003601f168201915b5050505050815f815181106102fd576102fd610a37565b602002602001018190525030818363f4d4d2f860e01b8530604051602001610326929190610a4b565b60408051601f1981840301815290829052630556f18360e41b82526103519594939291600401610a74565b60405180910390fd5b60605f5f61036a85858989610464565b6001600160a01b0382165f90815260016020526040902054919350915060ff166103e25760405162461bcd60e51b8152602060048201526024808201527f5369676e617475726556657269666965723a20496e76616c6964207369676e616044820152637475726560e01b6064820152608401610351565b9695505050505050565b815160209283012081519183019190912060408051601960f81b8186015260609690961b6bffffffffffffffffffffffff1916602287015260c09490941b6001600160c01b0319166036860152603e850191909152605e8085019190915282518085039091018152607e909301909152815191012090565b5f606081808061047686880188610b1f565b919450925090505f8061048b8a8c018c610b93565b915091505f6104a561049f8387868a6103ec565b8561051e565b9050428567ffffffffffffffff16101561050d5760405162461bcd60e51b8152602060048201526024808201527f5369676e617475726556657269666965723a205369676e6174757265206578706044820152631a5c995960e21b6064820152608401610351565b9b949a509398505050505050505050565b5f5f5f5f61052c8686610546565b92509250925061053c828261058f565b5090949350505050565b5f5f5f835160410361057d576020840151604085015160608601515f1a61056f8882858561064b565b955095509550505050610588565b505081515f91506002905b9250925092565b5f8260038111156105a2576105a2610be2565b036105ab575050565b60018260038111156105bf576105bf610be2565b036105dd5760405163f645eedf60e01b815260040160405180910390fd5b60028260038111156105f1576105f1610be2565b036106125760405163fce698f760e01b815260048101829052602401610351565b600382600381111561062657610626610be2565b03610647576040516335e2f38360e21b815260048101829052602401610351565b5050565b5f80807f7fffffffffffffffffffffffffffffff5d576e7357a4501ddfe92f46681b20a084111561068457505f91506003905082610709565b604080515f808252602082018084528a905260ff891692820192909252606081018790526080810186905260019060a0016020604051602081039080840390855afa1580156106d5573d5f5f3e3d5ffd5b5050604051601f1901519150506001600160a01b03811661070057505f925060019150829050610709565b92505f91508190505b9450945094915050565b5f60208284031215610723575f5ffd5b81356001600160e01b03198116811461073a575f5ffd5b9392505050565b6001600160a01b0381168114610755575f5ffd5b50565b803567ffffffffffffffff8116811461076f575f5ffd5b919050565b634e487b7160e01b5f52604160045260245ffd5b5f82601f830112610797575f5ffd5b813567ffffffffffffffff8111156107b1576107b1610774565b604051601f8201601f19908116603f0116810167ffffffffffffffff811182821017156107e0576107e0610774565b6040528181528382016020018510156107f7575f5ffd5b816020850160208301375f918101602001919091529392505050565b5f5f5f5f60808587031215610826575f5ffd5b843561083181610741565b935061083f60208601610758565b9250604085013567ffffffffffffffff81111561085a575f5ffd5b61086687828801610788565b925050606085013567ffffffffffffffff811115610882575f5ffd5b61088e87828801610788565b91505092959194509250565b5f81518084528060208401602086015e5f602082860101526020601f19601f83011685010191505092915050565b602081525f61073a602083018461089a565b5f602082840312156108ea575f5ffd5b813561073a81610741565b5f5f83601f840112610905575f5ffd5b50813567ffffffffffffffff81111561091c575f5ffd5b602083019150836020828501011115610933575f5ffd5b9250929050565b5f5f5f5f6040858703121561094d575f5ffd5b843567ffffffffffffffff811115610963575f5ffd5b61096f878288016108f5565b909550935050602085013567ffffffffffffffff81111561098e575f5ffd5b61099a878288016108f5565b95989497509550505050565b600181811c908216806109ba57607f821691505b6020821081036109d857634e487b7160e01b5f52602260045260245ffd5b50919050565b81835281816020850137505f828201602090810191909152601f909101601f19169091010190565b604081525f610a196040830186886109de565b8281036020840152610a2c8185876109de565b979650505050505050565b634e487b7160e01b5f52603260045260245ffd5b604081525f610a5d604083018561089a565b905060018060a01b03831660208301529392505050565b5f60a0820160018060a01b038816835260a0602084015280875180835260c08501915060c08160051b8601019250602089015f5b82811015610ad95760bf19878603018452610ac485835161089a565b94506020938401939190910190600101610aa8565b505050508281036040840152610aef818761089a565b6001600160e01b03198616606085015290508281036080840152610b13818561089a565b98975050505050505050565b5f5f5f60608486031215610b31575f5ffd5b833567ffffffffffffffff811115610b47575f5ffd5b610b5386828701610788565b935050610b6260208501610758565b9150604084013567ffffffffffffffff811115610b7d575f5ffd5b610b8986828701610788565b9150509250925092565b5f5f60408385031215610ba4575f5ffd5b823567ffffffffffffffff811115610bba575f5ffd5b610bc685828601610788565b9250506020830135610bd781610741565b809150509250929050565b634e487b7160e01b5f52602160045260245ffdfea2646970667358221220530ad3da1071dbbc48b08f2a8e65685f85a1edcb790dbed9a916625522db713464736f6c634300081c0033",
  "linkReferences": {},
  "deployedLinkReferences": {},
  "immutableReferences": {},
  "inputSourceName": "project/contracts/resolver/OffchainResolver.sol",
  "buildInfoId": "solc-0_8_28-a187a7f172956303d356ed06d4517373ad52047c"
}