{
  "_format": "hh3-artifact-1",
  "contractName": "AgentNFT",
  "sourceName": "contracts/AgentNFT.sol",
  "abi": [
    {
      "inputs": [],
      "stateMutability": "nonpayable",
      "type": "constructor"
    },
    {
      "inputs": [],
      "name": "AccessControlBadConfirmation",
      "type": "error"
    },
    {
      "inputs": [
        {
          "internalType": "address",
          "name": "account",
          "type": "address"
        },
        {
          "internalType": "bytes32",
          "name": "neededRole",
          "type": "bytes32"
        }
      ],
      "name": "AccessControlUnauthorizedAccount",
      "type": "error"
    },
    {
      "inputs": [],
      "name": "InvalidInitialization",
      "type": "error"
    },
    {
      "inputs": [],
      "name": "NotInitializing",
      "type": "error"
    },
    {
      "inputs": [
        {
          "internalType": "uint256",
          "name": "value",
          "type": "uint256"
        },
        {
          "internalType": "uint256",
          "name": "length",
          "type": "uint256"
        }
      ],
      "name": "StringsInsufficientHexLength",
      "type": "error"
    },
    {
      "anonymous": false,
      "inputs": [
        {
          "indexed": true,
          "internalType": "address",
          "name": "_from",
          "type": "address"
        },
        {
          "indexed": true,
          "internalType": "address",
          "name": "_to",
          "type": "address"
        },
        {
          "indexed": true,
          "internalType": "uint256",
          "name": "_tokenId",
          "type": "uint256"
        }
      ],
      "name": "Approval",
      "type": "event"
    },
    {
      "anonymous": false,
      "inputs": [
        {
          "indexed": true,
          "internalType": "address",
          "name": "_owner",
          "type": "address"
        },
        {
          "indexed": true,
          "internalType": "address",
          "name": "_operator",
          "type": "address"
        },
        {
          "indexed": false,
          "internalType": "bool",
          "name": "_approved",
          "type": "bool"
        }
      ],
      "name": "ApprovalForAll",
      "type": "event"
    },
    {
      "anonymous": false,
      "inputs": [
        {
          "indexed": true,
          "internalType": "address",
          "name": "_from",
          "type": "address"
        },
        {
          "indexed": true,
          "internalType": "address",
          "name": "_to",
          "type": "address"
        },
        {
          "indexed": true,
          "internalType": "uint256",
          "name": "_tokenId",
          "type": "uint256"
        }
      ],
      "name": "Authorization",
      "type": "event"
    },
    {
      "anonymous": false,
      "inputs": [
        {
          "indexed": true,
          "internalType": "uint256",
          "name": "_tokenId",
          "type": "uint256"
        },
        {
          "indexed": true,
          "internalType": "uint256",
          "name": "_newTokenId",
          "type": "uint256"
        },
        {
          "indexed": false,
          "internalType": "address",
          "name": "_from",
          "type": "address"
        },
        {
          "indexed": false,
          "internalType": "address",
          "name": "_to",
          "type": "address"
        }
      ],
      "name": "Cloned",
      "type": "event"
    },
    {
      "anonymous": false,
      "inputs": [
        {
          "indexed": false,
          "internalType": "uint64",
          "name": "version",
          "type": "uint64"
        }
      ],
      "name": "Initialized",
      "type": "event"
    },
    {
      "anonymous": false,
      "inputs": [
        {
          "indexed": true,
          "internalType": "uint256",
          "name": "_tokenId",
          "type": "uint256"
        },
        {
          "indexed": true,
          "internalType": "address",
          "name": "_creator",
          "type": "address"
        },
        {
          "indexed": true,
          "internalType": "address",
          "name": "_owner",
          "type": "address"
        },
        {
          "indexed": false,
          "internalType": "bytes32[]",
          "name": "_dataHashes",
          "type": "bytes32[]"
        },
        {
          "indexed": false,
          "internalType": "string[]",
          "name": "_dataDescriptions",
          "type": "string[]"
        }
      ],
      "name": "Minted",
      "type": "event"
    },
    {
      "anonymous": false,
      "inputs": [
        {
          "indexed": true,
          "internalType": "address",
          "name": "_to",
          "type": "address"
        },
        {
          "indexed": true,
          "internalType": "uint256",
          "name": "_tokenId",
          "type": "uint256"
        },
        {
          "indexed": false,
          "internalType": "bytes16[]",
          "name": "_sealedKeys",
          "type": "bytes16[]"
        }
      ],
      "name": "PublishedSealedKey",
      "type": "event"
    },
    {
      "anonymous": false,
      "inputs": [
        {
          "indexed": true,
          "internalType": "bytes32",
          "name": "role",
          "type": "bytes32"
        },
        {
          "indexed": true,
          "internalType": "bytes32",
          "name": "previousAdminRole",
          "type": "bytes32"
        },
        {
          "indexed": true,
          "internalType": "bytes32",
          "name": "newAdminRole",
          "type": "bytes32"
        }
      ],
      "name": "RoleAdminChanged",
      "type": "event"
    },
    {
      "anonymous": false,
      "inputs": [
        {
          "indexed": true,
          "internalType": "bytes32",
          "name": "role",
          "type": "bytes32"
        },
        {
          "indexed": true,
          "internalType": "address",
          "name": "account",
          "type": "address"
        },
        {
          "indexed": true,
          "internalType": "address",
          "name": "sender",
          "type": "address"
        }
      ],
      "name": "RoleGranted",
      "type": "event"
    },
    {
      "anonymous": false,
      "inputs": [
        {
          "indexed": true,
          "internalType": "bytes32",
          "name": "role",
          "type": "bytes32"
        },
        {
          "indexed": true,
          "internalType": "address",
          "name": "account",
          "type": "address"
        },
        {
          "indexed": true,
          "internalType": "address",
          "name": "sender",
          "type": "address"
        }
      ],
      "name": "RoleRevoked",
      "type": "event"
    },
    {
      "anonymous": false,
      "inputs": [
        {
          "indexed": false,
          "internalType": "uint256",
          "name": "_tokenId",
          "type": "uint256"
        },
        {
          "indexed": true,
          "internalType": "address",
          "name": "_from",
          "type": "address"
        },
        {
          "indexed": true,
          "internalType": "address",
          "name": "_to",
          "type": "address"
        }
      ],
      "name": "Transferred",
      "type": "event"
    },
    {
      "anonymous": false,
      "inputs": [
        {
          "indexed": true,
          "internalType": "uint256",
          "name": "_tokenId",
          "type": "uint256"
        },
        {
          "indexed": false,
          "internalType": "bytes32[]",
          "name": "_oldDataHashes",
          "type": "bytes32[]"
        },
        {
          "indexed": false,
          "internalType": "bytes32[]",
          "name": "_newDataHashes",
          "type": "bytes32[]"
        }
      ],
      "name": "Updated",
      "type": "event"
    },
    {
      "inputs": [],
      "name": "ADMIN_ROLE",
      "outputs": [
        {
          "internalType": "bytes32",
          "name": "",
          "type": "bytes32"
        }
      ],
      "stateMutability": "view",
      "type": "function"
    },
    {
      "inputs": [],
      "name": "DEFAULT_ADMIN_ROLE",
      "outputs": [
        {
          "internalType": "bytes32",
          "name": "",
          "type": "bytes32"
        }
      ],
      "stateMutability": "view",
      "type": "function"
    },
    {
      "inputs": [],
      "name": "VERSION",
      "outputs": [
        {
          "internalType": "string",
          "name": "",
          "type": "string"
        }
      ],
      "stateMutability": "view",
      "type": "function"
    },
    {
      "inputs": [
        {
          "internalType": "address",
          "name": "to",
          "type": "address"
        },
        {
          "internalType": "uint256",
          "name": "tokenId",
          "type": "uint256"
        }
      ],
      "name": "approve",
      "outputs": [],
      "stateMutability": "nonpayable",
      "type": "function"
    },
    {
      "inputs": [
        {
          "internalType": "uint256",
          "name": "tokenId",
          "type": "uint256"
        },
        {
          "internalType": "address",
          "name": "to",
          "type": "address"
        }
      ],
      "name": "authorizeUsage",
      "outputs": [],
      "stateMutability": "nonpayable",
      "type": "function"
    },
    {
      "inputs": [
        {
          "internalType": "uint256",
          "name": "tokenId",
          "type": "uint256"
        }
      ],
      "name": "authorizedUsersOf",
      "outputs": [
        {
          "internalType": "address[]",
          "name": "",
          "type": "address[]"
        }
      ],
      "stateMutability": "view",
      "type": "function"
    },
    {
      "inputs": [
        {
          "internalType": "address",
          "name": "to",
          "type": "address"
        },
        {
          "internalType": "uint256",
          "name": "tokenId",
          "type": "uint256"
        },
        {
          "internalType": "bytes[]",
          "name": "proofs",
          "type": "bytes[]"
        }
      ],
      "name": "clone",
      "outputs": [
        {
          "internalType": "uint256",
          "name": "",
          "type": "uint256"
        }
      ],
      "stateMutability": "nonpayable",
      "type": "function"
    },
    {
      "inputs": [
        {
          "internalType": "address",
          "name": "from",
          "type": "address"
        },
        {
          "internalType": "address",
          "name": "to",
          "type": "address"
        },
        {
          "internalType": "uint256",
          "name": "tokenId",
          "type": "uint256"
        },
        {
          "internalType": "bytes[]",
          "name": "proofs",
          "type": "bytes[]"
        }
      ],
      "name": "cloneFrom",
      "outputs": [
        {
          "internalType": "uint256",
          "name": "",
          "type": "uint256"
        }
      ],
      "stateMutability": "nonpayable",
      "type": "function"
    },
    {
      "inputs": [
        {
          "internalType": "uint256",
          "name": "tokenId",
          "type": "uint256"
        }
      ],
      "name": "dataDescriptionsOf",
      "outputs": [
        {
          "internalType": "string[]",
          "name": "",
          "type": "string[]"
        }
      ],
      "stateMutability": "view",
      "type": "function"
    },
    {
      "inputs": [
        {
          "internalType": "uint256",
          "name": "tokenId",
          "type": "uint256"
        }
      ],
      "name": "dataHashesOf",
      "outputs": [
        {
          "internalType": "bytes32[]",
          "name": "",
          "type": "bytes32[]"
        }
      ],
      "stateMutability": "view",
      "type": "function"
    },
    {
      "inputs": [
        {
          "internalType": "uint256",
          "name": "tokenId",
          "type": "uint256"
        }
      ],
      "name": "getApproved",
      "outputs": [
        {
          "internalType": "address",
          "name": "operator",
          "type": "address"
        }
      ],
      "stateMutability": "view",
      "type": "function"
    },
    {
      "inputs": [
        {
          "internalType": "bytes32",
          "name": "role",
          "type": "bytes32"
        }
      ],
      "name": "getRoleAdmin",
      "outputs": [
        {
          "internalType": "bytes32",
          "name": "",
          "type": "bytes32"
        }
      ],
      "stateMutability": "view",
      "type": "function"
    },
    {
      "inputs": [
        {
          "internalType": "bytes32",
          "name": "role",
          "type": "bytes32"
        },
        {
          "internalType": "uint256",
          "name": "index",
          "type": "uint256"
        }
      ],
      "name": "getRoleMember",
      "outputs": [
        {
          "internalType": "address",
          "name": "",
          "type": "address"
        }
      ],
      "stateMutability": "view",
      "type": "function"
    },
    {
      "inputs": [
        {
          "internalType": "bytes32",
          "name": "role",
          "type": "bytes32"
        }
      ],
      "name": "getRoleMemberCount",
      "outputs": [
        {
          "internalType": "uint256",
          "name": "",
          "type": "uint256"
        }
      ],
      "stateMutability": "view",
      "type": "function"
    },
    {
      "inputs": [
        {
          "internalType": "bytes32",
          "name": "role",
          "type": "bytes32"
        }
      ],
      "name": "getRoleMembers",
      "outputs": [
        {
          "internalType": "address[]",
          "name": "",
          "type": "address[]"
        }
      ],
      "stateMutability": "view",
      "type": "function"
    },
    {
      "inputs": [
        {
          "internalType": "bytes32",
          "name": "role",
          "type": "bytes32"
        },
        {
          "internalType": "address",
          "name": "account",
          "type": "address"
        }
      ],
      "name": "grantRole",
      "outputs": [],
      "stateMutability": "nonpayable",
      "type": "function"
    },
    {
      "inputs": [
        {
          "internalType": "bytes32",
          "name": "role",
          "type": "bytes32"
        },
        {
          "internalType": "address",
          "name": "account",
          "type": "address"
        }
      ],
      "name": "hasRole",
      "outputs": [
        {
          "internalType": "bool",
          "name": "",
          "type": "bool"
        }
      ],
      "stateMutability": "view",
      "type": "function"
    },
    {
      "inputs": [
        {
          "internalType": "string",
          "name": "name_",
          "type": "string"
        },
        {
          "internalType": "string",
          "name": "symbol_",
          "type": "string"
        },
        {
          "internalType": "address",
          "name": "verifierAddr",
          "type": "address"
        },
        {
          "internalType": "string",
          "name": "chainURL_",
          "type": "string"
        },
        {
          "internalType": "string",
          "name": "indexerURL_",
          "type": "string"
        }
      ],
      "name": "initialize",
      "outputs": [],
      "stateMutability": "nonpayable",
      "type": "function"
    },
    {
      "inputs": [
        {
          "internalType": "address",
          "name": "owner",
          "type": "address"
        },
        {
          "internalType": "address",
          "name": "operator",
          "type": "address"
        }
      ],
      "name": "isApprovedForAll",
      "outputs": [
        {
          "internalType": "bool",
          "name": "",
          "type": "bool"
        }
      ],
      "stateMutability": "view",
      "type": "function"
    },
    {
      "inputs": [
        {
          "internalType": "bytes[]",
          "name": "proofs",
          "type": "bytes[]"
        },
        {
          "internalType": "string[]",
          "name": "dataDescriptions",
          "type": "string[]"
        },
        {
          "internalType": "address",
          "name": "to",
          "type": "address"
        }
      ],
      "name": "mint",
      "outputs": [
        {
          "internalType": "uint256",
          "name": "tokenId",
          "type": "uint256"
        }
      ],
      "stateMutability": "payable",
      "type": "function"
    },
    {
      "inputs": [],
      "name": "name",
      "outputs": [
        {
          "internalType": "string",
          "name": "",
          "type": "string"
        }
      ],
      "stateMutability": "view",
      "type": "function"
    },
    {
      "inputs": [
        {
          "internalType": "uint256",
          "name": "tokenId",
          "type": "uint256"
        }
      ],
      "name": "ownerOf",
      "outputs": [
        {
          "internalType": "address",
          "name": "",
          "type": "address"
        }
      ],
      "stateMutability": "view",
      "type": "function"
    },
    {
      "inputs": [
        {
          "internalType": "bytes32",
          "name": "role",
          "type": "bytes32"
        },
        {
          "internalType": "address",
          "name": "callerConfirmation",
          "type": "address"
        }
      ],
      "name": "renounceRole",
      "outputs": [],
      "stateMutability": "nonpayable",
      "type": "function"
    },
    {
      "inputs": [
        {
          "internalType": "bytes32",
          "name": "role",
          "type": "bytes32"
        },
        {
          "internalType": "address",
          "name": "account",
          "type": "address"
        }
      ],
      "name": "revokeRole",
      "outputs": [],
      "stateMutability": "nonpayable",
      "type": "function"
    },
    {
      "inputs": [
        {
          "internalType": "address",
          "name": "to",
          "type": "address"
        },
        {
          "internalType": "bool",
          "name": "approved",
          "type": "bool"
        }
      ],
      "name": "setApprovalForAll",
      "outputs": [],
      "stateMutability": "nonpayable",
      "type": "function"
    },
    {
      "inputs": [
        {
          "internalType": "bytes4",
          "name": "interfaceId",
          "type": "bytes4"
        }
      ],
      "name": "supportsInterface",
      "outputs": [
        {
          "internalType": "bool",
          "name": "",
          "type": "bool"
        }
      ],
      "stateMutability": "view",
      "type": "function"
    },
    {
      "inputs": [],
      "name": "symbol",
      "outputs": [
        {
          "internalType": "string",
          "name": "",
          "type": "string"
        }
      ],
      "stateMutability": "view",
      "type": "function"
    },
    {
      "inputs": [
        {
          "internalType": "uint256",
          "name": "tokenId",
          "type": "uint256"
        }
      ],
      "name": "tokenURI",
      "outputs": [
        {
          "internalType": "string",
          "name": "",
          "type": "string"
        }
      ],
      "stateMutability": "view",
      "type": "function"
    },
    {
      "inputs": [
        {
          "internalType": "address",
          "name": "to",
          "type": "address"
        },
        {
          "internalType": "uint256",
          "name": "tokenId",
          "type": "uint256"
        },
        {
          "internalType": "bytes[]",
          "name": "proofs",
          "type": "bytes[]"
        }
      ],
      "name": "transfer",
      "outputs": [],
      "stateMutability": "nonpayable",
      "type": "function"
    },
    {
      "inputs": [
        {
          "internalType": "address",
          "name": "from",
          "type": "address"
        },
        {
          "internalType": "address",
          "name": "to",
          "type": "address"
        },
        {
          "internalType": "uint256",
          "name": "tokenId",
          "type": "uint256"
        },
        {
          "internalType": "bytes[]",
          "name": "proofs",
          "type": "bytes[]"
        }
      ],
      "name": "transferFrom",
      "outputs": [],
      "stateMutability": "nonpayable",
      "type": "function"
    },
    {
      "inputs": [
        {
          "internalType": "uint256",
          "name": "tokenId",
          "type": "uint256"
        },
        {
          "internalType": "bytes[]",
          "name": "proofs",
          "type": "bytes[]"
        }
      ],
      "name": "update",
      "outputs": [],
      "stateMutability": "nonpayable",
      "type": "function"
    },
    {
      "inputs": [
        {
          "internalType": "string",
          "name": "newChainURL",
          "type": "string"
        },
        {
          "internalType": "string",
          "name": "newIndexerURL",
          "type": "string"
        }
      ],
      "name": "updateURLS",
      "outputs": [],
      "stateMutability": "nonpayable",
      "type": "function"
    },
    {
      "inputs": [
        {
          "internalType": "address",
          "name": "newVerifier",
          "type": "address"
        }
      ],
      "name": "updateVerifier",
      "outputs": [],
      "stateMutability": "nonpayable",
      "type": "function"
    },
    {
      "inputs": [],
      "name": "verifier",
      "outputs": [
        {
          "internalType": "contract IERC7857DataVerifier",
          "name": "",
          "type": "address"
        }
      ],
      "stateMutability": "view",
      "type": "function"
    }
  ],
  "bytecode": "0x6080604052348015600e575f5ffd5b5060156019565b60c9565b7ff0c57e16840df040f15088dc2f81fe391c3923bec73e23a9662efc9c229c6a00805468010000000000000000900460ff161560685760405163f92ee8a960e01b815260040160405180910390fd5b80546001600160401b039081161460c65780546001600160401b0319166001600160401b0390811782556040519081527fc7f505b2f371ae2175ee4913f4499e1f2633a7b5936321eed1cdaeb6115181d29060200160405180910390a15b50565b6141a6806100d65f395ff3fe6080604052600436106101f0575f3560e01c80639010d07c11610108578063c87b56dd1161009d578063e7ab28d81161006d578063e7ab28d8146105b0578063e985e9c5146105cf578063fa83d14e146105ee578063fd0be7221461060d578063ffa1ad741461062c575f5ffd5b8063c87b56dd14610534578063ca15c87314610553578063d547741f14610572578063dfdad7de14610591575f5ffd5b8063a217fddf116100d8578063a217fddf146104d0578063a22cb465146104e3578063a3246ad314610502578063a501445214610521575f5ffd5b80639010d07c1461045f57806391d148541461047e57806395d89b411461049d57806397fc007c146104b1575f5ffd5b8063248a9ca311610189578063389f875411610159578063389f8754146103b65780636352211e146103d55780637289fdd6146103f457806375b238fc146104135780637a005b3614610433575f5ffd5b8063248a9ca3146103375780632b7ac3f3146103645780632f2ff15d1461037857806336568abe14610397575f5ffd5b8063095ea7b3116101c4578063095ea7b3146102a15780630beef18f146102c0578063145cb9dd146102ec5780631aeb542f1461030b575f5ffd5b80626198c1146101f457806301ffc9a71461021557806306fdde0314610249578063081812fc1461026a575b5f5ffd5b3480156101ff575f5ffd5b5061021361020e366004613303565b61065c565b005b348015610220575f5ffd5b5061023461022f3660046133ca565b61080b565b60405190151581526020015b60405180910390f35b348015610254575f5ffd5b5061025d610835565b604051610240919061341f565b348015610275575f5ffd5b50610289610284366004613431565b6108ce565b6040516001600160a01b039091168152602001610240565b3480156102ac575f5ffd5b506102136102bb366004613448565b6108f5565b3480156102cb575f5ffd5b506102df6102da366004613431565b610992565b6040516102409190613472565b3480156102f7575f5ffd5b5061021361030636600461351c565b610aad565b348015610316575f5ffd5b5061032a610325366004613431565b611023565b6040516102409190613589565b348015610342575f5ffd5b50610356610351366004613431565b6110ca565b604051908152602001610240565b34801561036f575f5ffd5b506102896110ea565b348015610383575f5ffd5b506102136103923660046135d4565b611105565b3480156103a2575f5ffd5b506102136103b13660046135d4565b611127565b3480156103c1575f5ffd5b506102136103d0366004613602565b61115f565b3480156103e0575f5ffd5b506102896103ef366004613431565b6113d9565b3480156103ff575f5ffd5b5061035661040e366004613649565b61142c565b34801561041e575f5ffd5b506103565f5160206141515f395f51905f5281565b34801561043e575f5ffd5b5061045261044d366004613431565b611969565b60405161024091906136da565b34801561046a575f5ffd5b506102896104793660046136ec565b611a05565b348015610489575f5ffd5b506102346104983660046135d4565b611a32565b3480156104a8575f5ffd5b5061025d611a68565b3480156104bc575f5ffd5b506102136104cb36600461370c565b611a80565b3480156104db575f5ffd5b506103565f81565b3480156104ee575f5ffd5b506102136104fd366004613734565b611aeb565b34801561050d575f5ffd5b5061032a61051c366004613431565b611b64565b61035661052f366004613760565b611b94565b34801561053f575f5ffd5b5061025d61054e366004613431565b611eec565b34801561055e575f5ffd5b5061035661056d366004613431565b611f75565b34801561057d575f5ffd5b5061021361058c3660046135d4565b611f99565b34801561059c575f5ffd5b506102136105ab366004613649565b611fb5565b3480156105bb575f5ffd5b506103566105ca36600461351c565b61235d565b3480156105da575f5ffd5b506102346105e93660046137e1565b612944565b3480156105f9575f5ffd5b506102136106083660046135d4565b612981565b348015610618575f5ffd5b5061021361062736600461380d565b612a2f565b348015610637575f5ffd5b5061025d604051806040016040528060058152602001640312e302e360dc1b81525081565b5f610665612a75565b805490915060ff600160401b82041615906001600160401b03165f8115801561068b5750825b90505f826001600160401b031660011480156106a65750303b155b9050811580156106b4575080155b156106d25760405163f92ee8a960e01b815260040160405180910390fd5b845467ffffffffffffffff1916600117855583156106fc57845460ff60401b1916600160401b1785555b6001600160a01b03881661072b5760405162461bcd60e51b815260040161072290613870565b60405180910390fd5b610733612a9d565b61073d5f33612aa7565b506107555f5160206141515f395f51905f5233612aa7565b505f61075f612ae9565b90506003810161076f8c82613912565b506004810161077e8b82613912565b506005810161078d8982613912565b506006810161079c8882613912565b5060070180546001600160a01b0319166001600160a01b038a1617905583156107ff57845460ff60401b19168555604051600181527fc7f505b2f371ae2175ee4913f4499e1f2633a7b5936321eed1cdaeb6115181d29060200160405180910390a15b50505050505050505050565b5f6001600160e01b03198216635a05180f60e01b148061082f575061082f82612b0d565b92915050565b606061083f612ae9565b600301805461084d90613896565b80601f016020809104026020016040519081016040528092919081815260200182805461087990613896565b80156108c45780601f1061089b576101008083540402835291602001916108c4565b820191905f5260205f20905b8154815290600101906020018083116108a757829003601f168201915b5050505050905090565b5f5f6108d8612ae9565b5f938452602052505060409020600401546001600160a01b031690565b5f6108fe612ae9565b5f838152602082905260409020549091506001600160a01b031633146109365760405162461bcd60e51b8152600401610722906139cc565b5f8281526020829052604080822060040180546001600160a01b0319166001600160a01b0387169081179091559051849233917f8c5be1e5ebec7d5bd14f71427d1e84f3dd0314c0f7b2291e5b200ac8c7c3b9259190a4505050565b60605f61099d612ae9565b5f8481526020829052604090208054919250906001600160a01b03166109d55760405162461bcd60e51b8152600401610722906139ef565b80600101805480602002602001604051908101604052809291908181526020015f905b82821015610aa0578382905f5260205f20018054610a1590613896565b80601f0160208091040260200160405190810160405280929190818152602001828054610a4190613896565b8015610a8c5780601f10610a6357610100808354040283529160200191610a8c565b820191905f5260205f20905b815481529060010190602001808311610a6f57829003601f168201915b5050505050815260200190600101906109f8565b5050505092505050919050565b5f610ab6612ae9565b90506001600160a01b038516610ade5760405162461bcd60e51b815260040161072290613870565b5f848152602082905260409020546001600160a01b03878116911614610b165760405162461bcd60e51b8152600401610722906139cc565b5f848152602082905260409020600401546001600160a01b0316331480610b5257505f848152602082905260409020546001600160a01b031633145b80610b8157506001600160a01b0386165f908152600182016020908152604080832033845290915290205460ff165b610bbc5760405162461bcd60e51b815260206004820152600c60248201526b139bdd08185c1c1c9bdd995960a21b6044820152606401610722565b60078101546040516349e176d360e11b81525f916001600160a01b0316906393c2eda690610bf09087908790600401613a81565b5f604051808303815f875af1158015610c0b573d5f5f3e3d5ffd5b505050506040513d5f823e601f3d908101601f19168201604052610c329190810190613b08565b90505f81516001600160401b03811115610c4e57610c4e6131f6565b604051908082528060200260200182016040528015610c77578160200160208202803683370190505b5090505f82516001600160401b03811115610c9457610c946131f6565b604051908082528060200260200182016040528015610cbd578160200160208202803683370190505b5090505f5b8351811015610f6c57838181518110610cdd57610cdd613c08565b602002602001015160800151610d355760405162461bcd60e51b815260206004820152601f60248201527f496e76616c6964207472616e736665722076616c69646974792070726f6f66006044820152606401610722565b5f888152602086905260409020600201805482908110610d5757610d57613c08565b905f5260205f200154848281518110610d7257610d72613c08565b60200260200101516020015114610da9858381518110610d9457610d94613c08565b6020026020010151602001515f1c6020612b41565b5f8a81526020889052604090206002018054610de2919085908110610dd057610dd0613c08565b905f5260205f2001545f1c6020612b41565b604051602001610df3929190613c33565b60405160208183030381529060405290610e205760405162461bcd60e51b8152600401610722919061341f565b50886001600160a01b0316848281518110610e3d57610e3d613c08565b6020026020010151604001516001600160a01b031614610e84858381518110610e6857610e68613c08565b6020026020010151604001516001600160a01b03166014612b41565b610e988b6001600160a01b03166014612b41565b604051602001610ea9929190613ca5565b60405160208183030381529060405290610ed65760405162461bcd60e51b8152600401610722919061341f565b50838181518110610ee957610ee9613c08565b602002602001015160600151838281518110610f0757610f07613c08565b60200260200101906001600160801b03191690816001600160801b03191681525050838181518110610f3b57610f3b613c08565b602002602001015160200151828281518110610f5957610f59613c08565b6020908102919091010152600101610cc2565b505f8781526020858152604090912080546001600160a01b0319166001600160a01b038b161781558251610fa8926002909201918401906130a3565b506040518781526001600160a01b0389169033907f0ea8df787dde63a7bdc34d17097adf25749a3521f660e92dabdff8d6ee91d18a9060200160405180910390a386886001600160a01b03165f5160206140f15f395f51905f52846040516110109190613d0b565b60405180910390a3505050505050505050565b60605f61102e612ae9565b5f8481526020829052604090208054919250906001600160a01b03166110665760405162461bcd60e51b8152600401610722906139ef565b806003018054806020026020016040519081016040528092919081815260200182805480156110bc57602002820191905f5260205f20905b81546001600160a01b0316815260019091019060200180831161109e575b505050505092505050919050565b5f9081525f5160206141315f395f51905f52602052604090206001015490565b5f6110f3612ae9565b600701546001600160a01b0316919050565b61110e826110ca565b61111781612cb2565b6111218383612aa7565b50505050565b6001600160a01b03811633146111505760405163334bd91960e11b815260040160405180910390fd5b61115a8282612cbf565b505050565b5f611168612ae9565b5f8581526020829052604090208054919250906001600160a01b031633146111a25760405162461bcd60e51b8152600401610722906139cc565b600782015460405163c2a93e3760e01b81525f916001600160a01b03169063c2a93e37906111d69088908890600401613a81565b5f604051808303815f875af11580156111f1573d5f5f3e3d5ffd5b505050506040513d5f823e601f3d908101601f191682016040526112189190810190613d4c565b90505f81516001600160401b03811115611234576112346131f6565b60405190808252806020026020018201604052801561125d578160200160208202803683370190505b5090505f5b82518110156113285782818151811061127d5761127d613c08565b6020026020010151602001518184838151811061129c5761129c613c08565b60200260200101515f01516040516020016112b8929190613e04565b604051602081830303815290604052906112e55760405162461bcd60e51b8152600401610722919061341f565b508281815181106112f8576112f8613c08565b60200260200101515f015182828151811061131557611315613c08565b6020908102919091010152600101611262565b505f8360020180548060200260200160405190810160405280929190818152602001828054801561137657602002820191905f5260205f20905b815481526020019060010190808311611362575b505085519394506113949360028901935060208701925090506130a3565b50877f51fa73895ca2bd4c7f525775384b199b6047f069e662b82aa9e1b0998b9c297582846040516113c7929190613e53565b60405180910390a25050505050505050565b5f5f6113e3612ae9565b5f8481526020829052604090208054919250906001600160a01b031661141b5760405162461bcd60e51b8152600401610722906139ef565b546001600160a01b03169392505050565b5f5f611436612ae9565b90506001600160a01b03861661145e5760405162461bcd60e51b815260040161072290613870565b5f858152602082905260409020546001600160a01b031633146114935760405162461bcd60e51b8152600401610722906139cc565b60078101546040516349e176d360e11b81525f916001600160a01b0316906393c2eda6906114c79088908890600401613a81565b5f604051808303815f875af11580156114e2573d5f5f3e3d5ffd5b505050506040513d5f823e601f3d908101601f191682016040526115099190810190613b08565b90505f81516001600160401b03811115611525576115256131f6565b60405190808252806020026020018201604052801561154e578160200160208202803683370190505b5090505f82516001600160401b0381111561156b5761156b6131f6565b604051908082528060200260200182016040528015611594578160200160208202803683370190505b5090505f5b835181101561171f578381815181106115b4576115b4613c08565b602002602001015160800151801561161157505f8981526020869052604090206002018054829081106115e9576115e9613c08565b905f5260205f20015484828151811061160457611604613c08565b60200260200101515f0151145b801561164b5750896001600160a01b031684828151811061163457611634613c08565b6020026020010151604001516001600160a01b0316145b8160405160200161165c9190613e77565b604051602081830303815290604052906116895760405162461bcd60e51b8152600401610722919061341f565b5083818151811061169c5761169c613c08565b6020026020010151606001518282815181106116ba576116ba613c08565b60200260200101906001600160801b03191690816001600160801b031916815250508381815181106116ee576116ee613c08565b60200260200101516020015183828151811061170c5761170c613c08565b6020908102919091010152600101611599565b506002840180545f918261173283613ece565b909155506040805160a0810182526001600160a01b038d1681525f8c8152602089815283822060010180548551818402810184019096528086529596509294818601949392909184015b82821015611824578382905f5260205f2001805461179990613896565b80601f01602080910402602001604051908101604052809291908181526020018280546117c590613896565b80156118105780601f106117e757610100808354040283529160200191611810565b820191905f5260205f20905b8154815290600101906020018083116117f357829003601f168201915b50505050508152602001906001019061177c565b505050908252506020808201869052604080515f8082529281018252920191905081525f602091820181905283815287825260409020825181546001600160a01b0319166001600160a01b039091161781558282015180519192611890926001850192909101906130ec565b50604082015180516118ac9160028401916020909101906130a3565b50606082015180516118c891600384019160209091019061313c565b5060809190910151600490910180546001600160a01b0319166001600160a01b0392831617905560408051338152918c16602083015282918b917f40b442ee2bb535802063305b95f127b5101e5fce261a5dec9379683eaaad8cdb910160405180910390a3808a6001600160a01b03165f5160206140f15f395f51905f52846040516119549190613d0b565b60405180910390a39998505050505050505050565b60605f611974612ae9565b5f8481526020829052604090208054919250906001600160a01b03166119ac5760405162461bcd60e51b8152600401610722906139ef565b806002018054806020026020016040519081016040528092919081815260200182805480156110bc57602002820191905f5260205f20905b8154815260200190600101908083116119e457505050505092505050919050565b5f8281525f5160206141115f395f51905f52602081905260408220611a2a9084612cf8565b949350505050565b5f9182525f5160206141315f395f51905f52602090815260408084206001600160a01b0393909316845291905290205460ff1690565b6060611a72612ae9565b600401805461084d90613896565b5f5160206141515f395f51905f52611a9781612cb2565b6001600160a01b038216611abd5760405162461bcd60e51b815260040161072290613870565b81611ac6612ae9565b60070180546001600160a01b0319166001600160a01b03929092169190911790555050565b5f611af4612ae9565b335f81815260018301602090815260408083206001600160a01b03891680855290835292819020805460ff1916881515908117909155905190815293945090927f17307eab39ab6107e8899845ad3d59bd9653f200f220920489ca2b5937696c31910160405180910390a3505050565b5f8181525f5160206141115f395f51905f526020819052604090912060609190611b8d90612d03565b9392505050565b5f5f611b9e612ae9565b9050838614611bff5760405162461bcd60e51b815260206004820152602760248201527f4465736372697074696f6e7320616e642070726f6f6673206c656e677468206d6044820152660d2e6dac2e8c6d60cb1b6064820152608401610722565b6001600160a01b038316611c11573392505b600781015460405163c2a93e3760e01b81525f916001600160a01b03169063c2a93e3790611c45908b908b90600401613a81565b5f604051808303815f875af1158015611c60573d5f5f3e3d5ffd5b505050506040513d5f823e601f3d908101601f19168201604052611c879190810190613d4c565b90505f81516001600160401b03811115611ca357611ca36131f6565b604051908082528060200260200182016040528015611ccc578160200160208202803683370190505b5090505f5b8251811015611d9757828181518110611cec57611cec613c08565b60200260200101516020015181848381518110611d0b57611d0b613c08565b60200260200101515f0151604051602001611d27929190613e04565b60405160208183030381529060405290611d545760405162461bcd60e51b8152600401610722919061341f565b50828181518110611d6757611d67613c08565b60200260200101515f0151828281518110611d8457611d84613c08565b6020908102919091010152600101611cd1565b50600283018054905f611da983613ece565b9190505593506040518060a00160405280866001600160a01b03168152602001888890611dd69190613ee6565b81526020808201849052604080515f8082529281018252920191905081525f602091820181905286815285825260409020825181546001600160a01b0319166001600160a01b039091161781558282015180519192611e3d926001850192909101906130ec565b5060408201518051611e599160028401916020909101906130a3565b5060608201518051611e7591600384019160209091019061313c565b5060809190910151600490910180546001600160a01b0319166001600160a01b0392831617905560405190861690339086907f531bd8ca2b17505aaa50d843fabe2dfd9a3bb9e20c511d2288b24bd484861b0290611ed89086908d908d90613f48565b60405180910390a450505095945050505050565b60605f611ef7612ae9565b9050611f0283612d0f565b611f455760405162461bcd60e51b8152602060048201526014602482015273151bdad95b88191bd95cc81b9bdd08195e1a5cdd60621b6044820152606401610722565b8060050181600601604051602001611f5e929190614032565b604051602081830303815290604052915050919050565b5f8181525f5160206141115f395f51905f52602081905260408220611b8d90612d38565b611fa2826110ca565b611fab81612cb2565b6111218383612cbf565b5f611fbe612ae9565b90506001600160a01b038516611fe65760405162461bcd60e51b815260040161072290613870565b5f848152602082905260409020546001600160a01b0316331461201b5760405162461bcd60e51b8152600401610722906139cc565b60078101546040516349e176d360e11b81525f916001600160a01b0316906393c2eda69061204f9087908790600401613a81565b5f604051808303815f875af115801561206a573d5f5f3e3d5ffd5b505050506040513d5f823e601f3d908101601f191682016040526120919190810190613b08565b90505f81516001600160401b038111156120ad576120ad6131f6565b6040519080825280602002602001820160405280156120d6578160200160208202803683370190505b5090505f82516001600160401b038111156120f3576120f36131f6565b60405190808252806020026020018201604052801561211c578160200160208202803683370190505b5090505f5b83518110156122a75783818151811061213c5761213c613c08565b602002602001015160800151801561219957505f88815260208690526040902060020180548290811061217157612171613c08565b905f5260205f20015484828151811061218c5761218c613c08565b60200260200101515f0151145b80156121d35750886001600160a01b03168482815181106121bc576121bc613c08565b6020026020010151604001516001600160a01b0316145b816040516020016121e49190613e77565b604051602081830303815290604052906122115760405162461bcd60e51b8152600401610722919061341f565b5083818151811061222457612224613c08565b60200260200101516060015183828151811061224257612242613c08565b60200260200101906001600160801b03191690816001600160801b0319168152505083818151811061227657612276613c08565b60200260200101516020015182828151811061229457612294613c08565b6020908102919091010152600101612121565b505f8781526020858152604090912080546001600160a01b0319166001600160a01b038b1617815582516122e3926002909201918401906130a3565b506040518781526001600160a01b0389169033907f0ea8df787dde63a7bdc34d17097adf25749a3521f660e92dabdff8d6ee91d18a9060200160405180910390a386886001600160a01b03165f5160206140f15f395f51905f528460405161234b9190613d0b565b60405180910390a35050505050505050565b5f5f612367612ae9565b90506001600160a01b03861661238f5760405162461bcd60e51b815260040161072290613870565b5f858152602082905260409020546001600160a01b038881169116146123c75760405162461bcd60e51b8152600401610722906139cc565b5f858152602082905260409020600401546001600160a01b031633148061240357505f858152602082905260409020546001600160a01b031633145b8061243257506001600160a01b0387165f908152600182016020908152604080832033845290915290205460ff165b61246d5760405162461bcd60e51b815260206004820152600c60248201526b139bdd08185c1c1c9bdd995960a21b6044820152606401610722565b60078101546040516349e176d360e11b81525f916001600160a01b0316906393c2eda6906124a19088908890600401613a81565b5f604051808303815f875af11580156124bc573d5f5f3e3d5ffd5b505050506040513d5f823e601f3d908101601f191682016040526124e39190810190613b08565b90505f81516001600160401b038111156124ff576124ff6131f6565b604051908082528060200260200182016040528015612528578160200160208202803683370190505b5090505f82516001600160401b03811115612545576125456131f6565b60405190808252806020026020018201604052801561256e578160200160208202803683370190505b5090505f5b83518110156126f95783818151811061258e5761258e613c08565b60200260200101516080015180156125eb57505f8981526020869052604090206002018054829081106125c3576125c3613c08565b905f5260205f2001548482815181106125de576125de613c08565b60200260200101515f0151145b80156126255750896001600160a01b031684828151811061260e5761260e613c08565b6020026020010151604001516001600160a01b0316145b816040516020016126369190613e77565b604051602081830303815290604052906126635760405162461bcd60e51b8152600401610722919061341f565b5083818151811061267657612676613c08565b60200260200101516060015182828151811061269457612694613c08565b60200260200101906001600160801b03191690816001600160801b031916815250508381815181106126c8576126c8613c08565b6020026020010151602001518382815181106126e6576126e6613c08565b6020908102919091010152600101612573565b506002840180545f918261270c83613ece565b909155506040805160a0810182526001600160a01b038d1681525f8c8152602089815283822060010180548551818402810184019096528086529596509294818601949392909184015b828210156127fe578382905f5260205f2001805461277390613896565b80601f016020809104026020016040519081016040528092919081815260200182805461279f90613896565b80156127ea5780601f106127c1576101008083540402835291602001916127ea565b820191905f5260205f20905b8154815290600101906020018083116127cd57829003601f168201915b505050505081526020019060010190612756565b505050908252506020808201869052604080515f8082529281018252920191905081525f602091820181905283815287825260409020825181546001600160a01b0319166001600160a01b03909116178155828201518051919261286a926001850192909101906130ec565b50604082015180516128869160028401916020909101906130a3565b50606082015180516128a291600384019160209091019061313c565b5060809190910151600490910180546001600160a01b0319166001600160a01b0392831617905560408051338152918c16602083015282918b917f40b442ee2bb535802063305b95f127b5101e5fce261a5dec9379683eaaad8cdb910160405180910390a3808a6001600160a01b03165f5160206140f15f395f51905f528460405161292e9190613d0b565b60405180910390a39a9950505050505050505050565b5f5f61294e612ae9565b6001600160a01b039485165f90815260019190910160209081526040808320959096168252939093525050205460ff1690565b5f61298a612ae9565b5f848152602082905260409020549091506001600160a01b031633146129c25760405162461bcd60e51b8152600401610722906139cc565b5f83815260208281526040808320600301805460018101825590845291832090910180546001600160a01b0319166001600160a01b0386169081179091559051859233917f8a1c60ca1a16acd72d841a74fa5905de3938132b0b2ff6cb385a7e69af345fc99190a4505050565b5f5160206141515f395f51905f52612a4681612cb2565b5f612a4f612ae9565b905060058101612a5f8582613912565b5060068101612a6e8482613912565b5050505050565b5f807ff0c57e16840df040f15088dc2f81fe391c3923bec73e23a9662efc9c229c6a0061082f565b612aa5612d41565b565b5f5f5160206141115f395f51905f5281612ac18585612d66565b90508015611a2a575f858152602083905260409020612ae09085612e07565b50949350505050565b7f4aa80aaafbe0e5fe3fe1aa97f3c1f8c65d61f96ef1aab2b448154f4e0759460090565b5f6001600160e01b03198216637965db0b60e01b148061082f57506301ffc9a760e01b6001600160e01b031983161461082f565b6060825f612b5084600261408a565b612b5b9060026140a1565b6001600160401b03811115612b7257612b726131f6565b6040519080825280601f01601f191660200182016040528015612b9c576020820181803683370190505b509050600360fc1b815f81518110612bb657612bb6613c08565b60200101906001600160f81b03191690815f1a905350600f60fb1b81600181518110612be457612be4613c08565b60200101906001600160f81b03191690815f1a9053505f612c0685600261408a565b612c119060016140a1565b90505b6001811115612c88576f181899199a1a9b1b9c1cb0b131b232b360811b83600f1660108110612c4557612c45613c08565b1a60f81b828281518110612c5b57612c5b613c08565b60200101906001600160f81b03191690815f1a90535060049290921c91612c81816140b4565b9050612c14565b508115611a2a5760405163e22e27eb60e01b81526004810186905260248101859052604401610722565b612cbc8133612e1b565b50565b5f5f5160206141115f395f51905f5281612cd98585612e58565b90508015611a2a575f858152602083905260409020612ae09085612ed1565b5f611b8d8383612ee5565b60605f611b8d83612f0b565b5f80612d19612ae9565b5f9384526020526040909220546001600160a01b031690911415919050565b5f61082f825490565b612d49612f64565b612aa557604051631afcd79f60e31b815260040160405180910390fd5b5f5f5160206141315f395f51905f52612d7f8484611a32565b612dfe575f848152602082815260408083206001600160a01b03871684529091529020805460ff19166001179055612db43390565b6001600160a01b0316836001600160a01b0316857f2f8788117e7eff1d82e926ec794901d17c78024a50270940304540a733656f0d60405160405180910390a4600191505061082f565b5f91505061082f565b5f611b8d836001600160a01b038416612f7d565b612e258282611a32565b612e545760405163e2517d3f60e01b81526001600160a01b038216600482015260248101839052604401610722565b5050565b5f5f5160206141315f395f51905f52612e718484611a32565b15612dfe575f848152602082815260408083206001600160a01b0387168085529252808320805460ff1916905551339287917ff6391f5c32d9c69d2a47ea670b442974b53935d1edc7fd64eb21e047a839171b9190a4600191505061082f565b5f611b8d836001600160a01b038416612fc9565b5f825f018281548110612efa57612efa613c08565b905f5260205f200154905092915050565b6060815f01805480602002602001604051908101604052809291908181526020018280548015612f5857602002820191905f5260205f20905b815481526020019060010190808311612f44575b50505050509050919050565b5f612f6d612a75565b54600160401b900460ff16919050565b5f818152600183016020526040812054612fc257508154600181810184555f84815260208082209093018490558454848252828601909352604090209190915561082f565b505f61082f565b5f8181526001830160205260408120548015612dfe575f612feb6001836140c9565b85549091505f90612ffe906001906140c9565b905080821461305d575f865f01828154811061301c5761301c613c08565b905f5260205f200154905080875f01848154811061303c5761303c613c08565b5f918252602080832090910192909255918252600188019052604090208390555b855486908061306e5761306e6140dc565b600190038181905f5260205f20015f90559055856001015f8681526020019081526020015f205f90556001935050505061082f565b828054828255905f5260205f209081019282156130dc579160200282015b828111156130dc5782518255916020019190600101906130c1565b506130e892915061318f565b5090565b828054828255905f5260205f20908101928215613130579160200282015b8281111561313057825182906131209082613912565b509160200191906001019061310a565b506130e89291506131a3565b828054828255905f5260205f209081019282156130dc579160200282015b828111156130dc57825182546001600160a01b0319166001600160a01b0390911617825560209092019160019091019061315a565b5b808211156130e8575f8155600101613190565b808211156130e8575f6131b682826131bf565b506001016131a3565b5080546131cb90613896565b5f825580601f106131da575050565b601f0160209004905f5260205f2090810190612cbc919061318f565b634e487b7160e01b5f52604160045260245ffd5b60405160a081016001600160401b038111828210171561322c5761322c6131f6565b60405290565b604080519081016001600160401b038111828210171561322c5761322c6131f6565b604051601f8201601f191681016001600160401b038111828210171561327c5761327c6131f6565b604052919050565b5f82601f830112613293575f5ffd5b81356001600160401b038111156132ac576132ac6131f6565b6132bf601f8201601f1916602001613254565b8181528460208386010111156132d3575f5ffd5b816020850160208301375f918101602001919091529392505050565b6001600160a01b0381168114612cbc575f5ffd5b5f5f5f5f5f60a08688031215613317575f5ffd5b85356001600160401b0381111561332c575f5ffd5b61333888828901613284565b95505060208601356001600160401b03811115613353575f5ffd5b61335f88828901613284565b9450506040860135613370816132ef565b925060608601356001600160401b0381111561338a575f5ffd5b61339688828901613284565b92505060808601356001600160401b038111156133b1575f5ffd5b6133bd88828901613284565b9150509295509295909350565b5f602082840312156133da575f5ffd5b81356001600160e01b031981168114611b8d575f5ffd5b5f81518084528060208401602086015e5f602082860101526020601f19601f83011685010191505092915050565b602081525f611b8d60208301846133f1565b5f60208284031215613441575f5ffd5b5035919050565b5f5f60408385031215613459575f5ffd5b8235613464816132ef565b946020939093013593505050565b5f602082016020835280845180835260408501915060408160051b8601019250602086015f5b828110156134c957603f198786030184526134b48583516133f1565b94506020938401939190910190600101613498565b50929695505050505050565b5f5f83601f8401126134e5575f5ffd5b5081356001600160401b038111156134fb575f5ffd5b6020830191508360208260051b8501011115613515575f5ffd5b9250929050565b5f5f5f5f5f60808688031215613530575f5ffd5b853561353b816132ef565b9450602086013561354b816132ef565b93506040860135925060608601356001600160401b0381111561356c575f5ffd5b613578888289016134d5565b969995985093965092949392505050565b602080825282518282018190525f918401906040840190835b818110156135c95783516001600160a01b03168352602093840193909201916001016135a2565b509095945050505050565b5f5f604083850312156135e5575f5ffd5b8235915060208301356135f7816132ef565b809150509250929050565b5f5f5f60408486031215613614575f5ffd5b8335925060208401356001600160401b03811115613630575f5ffd5b61363c868287016134d5565b9497909650939450505050565b5f5f5f5f6060858703121561365c575f5ffd5b8435613667816132ef565b93506020850135925060408501356001600160401b03811115613688575f5ffd5b613694878288016134d5565b95989497509550505050565b5f8151808452602084019350602083015f5b828110156136d05781518652602095860195909101906001016136b2565b5093949350505050565b602081525f611b8d60208301846136a0565b5f5f604083850312156136fd575f5ffd5b50508035926020909101359150565b5f6020828403121561371c575f5ffd5b8135611b8d816132ef565b8015158114612cbc575f5ffd5b5f5f60408385031215613745575f5ffd5b8235613750816132ef565b915060208301356135f781613727565b5f5f5f5f5f60608688031215613774575f5ffd5b85356001600160401b03811115613789575f5ffd5b613795888289016134d5565b90965094505060208601356001600160401b038111156137b3575f5ffd5b6137bf888289016134d5565b90945092505060408601356137d3816132ef565b809150509295509295909350565b5f5f604083850312156137f2575f5ffd5b82356137fd816132ef565b915060208301356135f7816132ef565b5f5f6040838503121561381e575f5ffd5b82356001600160401b03811115613833575f5ffd5b61383f85828601613284565b92505060208301356001600160401b0381111561385a575f5ffd5b61386685828601613284565b9150509250929050565b6020808252600c908201526b5a65726f206164647265737360a01b604082015260600190565b600181811c908216806138aa57607f821691505b6020821081036138c857634e487b7160e01b5f52602260045260245ffd5b50919050565b601f82111561115a57805f5260205f20601f840160051c810160208510156138f35750805b601f840160051c820191505b81811015612a6e575f81556001016138ff565b81516001600160401b0381111561392b5761392b6131f6565b61393f816139398454613896565b846138ce565b6020601f821160018114613971575f831561395a5750848201515b5f19600385901b1c1916600184901b178455612a6e565b5f84815260208120601f198516915b828110156139a05787850151825560209485019460019092019101613980565b50848210156139bd57868401515f19600387901b60f8161c191681555b50505050600190811b01905550565b6020808252600990820152682737ba1037bbb732b960b91b604082015260600190565b6020808252600f908201526e151bdad95b881b9bdd08195e1a5cdd608a1b604082015260600190565b81835281816020850137505f828201602090810191909152601f909101601f19169091010190565b5f5f8335601e19843603018112613a55575f5ffd5b83016020810192503590506001600160401b03811115613a73575f5ffd5b803603821315613515575f5ffd5b602080825281018290525f6040600584901b8301810190830185835b86811015613ada57858403603f19018352613ab88289613a40565b613ac3868284613a18565b955050506020928301929190910190600101613a9d565b50919695505050505050565b5f6001600160401b03821115613afe57613afe6131f6565b5060051b60200190565b5f60208284031215613b18575f5ffd5b81516001600160401b03811115613b2d575f5ffd5b8201601f81018413613b3d575f5ffd5b8051613b50613b4b82613ae6565b613254565b80828252602082019150602060a08402850101925086831115613b71575f5ffd5b6020840193505b82841015613bfe5760a08488031215613b8f575f5ffd5b613b9761320a565b84518152602080860151908201526040850151613bb3816132ef565b604082015260608501516001600160801b031981168114613bd2575f5ffd5b60608201526080850151613be581613727565b6080820152825260a09390930192602090910190613b78565b9695505050505050565b634e487b7160e01b5f52603260045260245ffd5b5f81518060208401855e5f93019283525090919050565b7f4e657720646174612068617368206d69736d617463682c206861736820696e208152660383937b7b31d160cd1b60208201525f613c746027830185613c1c565b7401610313aba103430b9b41034b7103a37b5b2b71d1605d1b8152613c9c6015820185613c1c565b95945050505050565b7f5265636569766572206d69736d617463682c20726563656976657220696e207081526503937b7b31d160d51b60208201525f613ce56026830185613c1c565b7201610313aba103a3930b739b332b9103a379d1606d1b8152613c9c6013820185613c1c565b602080825282518282018190525f918401906040840190835b818110156135c95783516001600160801b031916835260209384019390920191600101613d24565b5f60208284031215613d5c575f5ffd5b81516001600160401b03811115613d71575f5ffd5b8201601f81018413613d81575f5ffd5b8051613d8f613b4b82613ae6565b8082825260208201915060208360061b850101925086831115613db0575f5ffd5b6020840193505b82841015613bfe5760408488031215613dce575f5ffd5b613dd6613232565b845181526020850151613de881613727565b8060208301525080835250602082019150604084019350613db7565b7f496e76616c696420707265696d6167652070726f6f6620617420696e64657820815260208101929092526f0103bb4ba34103230ba30903430b9b4160851b6040830152605082015260700190565b604081525f613e6560408301856136a0565b8281036020840152613c9c81856136a0565b7f496e76616c6964207472616e736665722076616c69646974792070726f6f6620815268030ba1034b73232bc160bd1b6020820152602981019190915260490190565b634e487b7160e01b5f52601160045260245ffd5b5f60018201613edf57613edf613eba565b5060010190565b5f613ef3613b4b84613ae6565b8381526020810190600585901b840136811115613f0e575f5ffd5b845b818110156135c95780356001600160401b03811115613f2d575f5ffd5b613f3936828901613284565b85525060209384019301613f10565b604081525f613f5a60408301866136a0565b82810360208401528084825260208201905060208560051b830101865f5b87811015613fb657848303601f19018452613f93828a613a40565b613f9e858284613a18565b60209687019690955093909301925050600101613f78565b509098975050505050505050565b5f8154613fd081613896565b600182168015613fe75760018114613ffc57614029565b60ff1983168652811515820286019350614029565b845f5260205f205f5b8381101561402157815488820152600190910190602001614005565b505081860193505b50505092915050565b6c3d9131b430b4b72aa926111d1160991b81525f614053600d830185613fc4565b6f11161134b73232bc32b92aa926111d1160811b81526140766010820185613fc4565b61227d60f01b815260020195945050505050565b808202811582820484141761082f5761082f613eba565b8082018082111561082f5761082f613eba565b5f816140c2576140c2613eba565b505f190190565b8181038181111561082f5761082f613eba565b634e487b7160e01b5f52603160045260245ffdfe156aabbd131f533640c54a2c9d227cce945fa46b6e45df7a473d76203233b9b5c1f6fe24621ce81ec5827caf0253cadb74709b061630e6b55e8237170593200002dd7bc7dec4dceedda775e58dd541e08a116c6c53815c0bd028192f7b626800a49807205ce4d355092ef5a8a18f56e8913cf4a201fbe287825b095693c21775a26469706673582212207d1f752bda79707b6958fbf0b520cf8bab73885e8eb289ef5988923dd6378a8764736f6c634300081c0033",
  "linkReferences": {},
  "deployedLinkReferences": {},
  "immutableReferences": {},
  "inputSourceName": "project/contracts/AgentNFT.sol",
  "buildInfoId": "solc-0_8_28-a1d1a4338883e6053f406231c9f43e4356929c4a"
}