{
  "_format": "hh3-artifact-1",
  "contractName": "MnemoAgentNFT",
  "sourceName": "contracts/MnemoAgentNFT.sol",
  "abi": [
    {
      "inputs": [],
      "name": "AccessControlBadConfirmation",
      "type": "error"
    },
    {
      "inputs": [
        {
          "internalType": "address",
          "name": "account",
          "type": "address"
        },
        {
          "internalType": "bytes32",
          "name": "neededRole",
          "type": "bytes32"
        }
      ],
      "name": "AccessControlUnauthorizedAccount",
      "type": "error"
    },
    {
      "inputs": [],
      "name": "InvalidInitialization",
      "type": "error"
    },
    {
      "inputs": [],
      "name": "NotInitializing",
      "type": "error"
    },
    {
      "inputs": [
        {
          "internalType": "uint256",
          "name": "value",
          "type": "uint256"
        },
        {
          "internalType": "uint256",
          "name": "length",
          "type": "uint256"
        }
      ],
      "name": "StringsInsufficientHexLength",
      "type": "error"
    },
    {
      "anonymous": false,
      "inputs": [
        {
          "indexed": true,
          "internalType": "address",
          "name": "_from",
          "type": "address"
        },
        {
          "indexed": true,
          "internalType": "address",
          "name": "_to",
          "type": "address"
        },
        {
          "indexed": true,
          "internalType": "uint256",
          "name": "_tokenId",
          "type": "uint256"
        }
      ],
      "name": "Approval",
      "type": "event"
    },
    {
      "anonymous": false,
      "inputs": [
        {
          "indexed": true,
          "internalType": "address",
          "name": "_owner",
          "type": "address"
        },
        {
          "indexed": true,
          "internalType": "address",
          "name": "_operator",
          "type": "address"
        },
        {
          "indexed": false,
          "internalType": "bool",
          "name": "_approved",
          "type": "bool"
        }
      ],
      "name": "ApprovalForAll",
      "type": "event"
    },
    {
      "anonymous": false,
      "inputs": [
        {
          "indexed": true,
          "internalType": "address",
          "name": "_from",
          "type": "address"
        },
        {
          "indexed": true,
          "internalType": "address",
          "name": "_to",
          "type": "address"
        },
        {
          "indexed": true,
          "internalType": "uint256",
          "name": "_tokenId",
          "type": "uint256"
        }
      ],
      "name": "Authorization",
      "type": "event"
    },
    {
      "anonymous": false,
      "inputs": [
        {
          "indexed": true,
          "internalType": "uint256",
          "name": "_tokenId",
          "type": "uint256"
        },
        {
          "indexed": true,
          "internalType": "uint256",
          "name": "_newTokenId",
          "type": "uint256"
        },
        {
          "indexed": false,
          "internalType": "address",
          "name": "_from",
          "type": "address"
        },
        {
          "indexed": false,
          "internalType": "address",
          "name": "_to",
          "type": "address"
        }
      ],
      "name": "Cloned",
      "type": "event"
    },
    {
      "anonymous": false,
      "inputs": [
        {
          "indexed": false,
          "internalType": "uint64",
          "name": "version",
          "type": "uint64"
        }
      ],
      "name": "Initialized",
      "type": "event"
    },
    {
      "anonymous": false,
      "inputs": [
        {
          "indexed": true,
          "internalType": "string",
          "name": "label",
          "type": "string"
        },
        {
          "indexed": false,
          "internalType": "bool",
          "name": "reserved",
          "type": "bool"
        }
      ],
      "name": "LabelReservedSet",
      "type": "event"
    },
    {
      "anonymous": false,
      "inputs": [
        {
          "indexed": true,
          "internalType": "uint256",
          "name": "_tokenId",
          "type": "uint256"
        },
        {
          "indexed": true,
          "internalType": "address",
          "name": "_creator",
          "type": "address"
        },
        {
          "indexed": true,
          "internalType": "address",
          "name": "_owner",
          "type": "address"
        },
        {
          "indexed": false,
          "internalType": "bytes32[]",
          "name": "_dataHashes",
          "type": "bytes32[]"
        },
        {
          "indexed": false,
          "internalType": "string[]",
          "name": "_dataDescriptions",
          "type": "string[]"
        }
      ],
      "name": "Minted",
      "type": "event"
    },
    {
      "anonymous": false,
      "inputs": [
        {
          "indexed": true,
          "internalType": "address",
          "name": "_to",
          "type": "address"
        },
        {
          "indexed": true,
          "internalType": "uint256",
          "name": "_tokenId",
          "type": "uint256"
        },
        {
          "indexed": false,
          "internalType": "bytes16[]",
          "name": "_sealedKeys",
          "type": "bytes16[]"
        }
      ],
      "name": "PublishedSealedKey",
      "type": "event"
    },
    {
      "anonymous": false,
      "inputs": [
        {
          "indexed": true,
          "internalType": "bytes32",
          "name": "role",
          "type": "bytes32"
        },
        {
          "indexed": true,
          "internalType": "bytes32",
          "name": "previousAdminRole",
          "type": "bytes32"
        },
        {
          "indexed": true,
          "internalType": "bytes32",
          "name": "newAdminRole",
          "type": "bytes32"
        }
      ],
      "name": "RoleAdminChanged",
      "type": "event"
    },
    {
      "anonymous": false,
      "inputs": [
        {
          "indexed": true,
          "internalType": "bytes32",
          "name": "role",
          "type": "bytes32"
        },
        {
          "indexed": true,
          "internalType": "address",
          "name": "account",
          "type": "address"
        },
        {
          "indexed": true,
          "internalType": "address",
          "name": "sender",
          "type": "address"
        }
      ],
      "name": "RoleGranted",
      "type": "event"
    },
    {
      "anonymous": false,
      "inputs": [
        {
          "indexed": true,
          "internalType": "bytes32",
          "name": "role",
          "type": "bytes32"
        },
        {
          "indexed": true,
          "internalType": "address",
          "name": "account",
          "type": "address"
        },
        {
          "indexed": true,
          "internalType": "address",
          "name": "sender",
          "type": "address"
        }
      ],
      "name": "RoleRevoked",
      "type": "event"
    },
    {
      "anonymous": false,
      "inputs": [
        {
          "indexed": true,
          "internalType": "uint256",
          "name": "tokenId",
          "type": "uint256"
        },
        {
          "indexed": false,
          "internalType": "string",
          "name": "label",
          "type": "string"
        },
        {
          "indexed": true,
          "internalType": "address",
          "name": "holder",
          "type": "address"
        }
      ],
      "name": "SubnameIssued",
      "type": "event"
    },
    {
      "anonymous": false,
      "inputs": [
        {
          "indexed": false,
          "internalType": "string",
          "name": "label",
          "type": "string"
        },
        {
          "indexed": true,
          "internalType": "address",
          "name": "from",
          "type": "address"
        },
        {
          "indexed": true,
          "internalType": "address",
          "name": "to",
          "type": "address"
        }
      ],
      "name": "SubnameTransferred",
      "type": "event"
    },
    {
      "anonymous": false,
      "inputs": [
        {
          "indexed": true,
          "internalType": "string",
          "name": "label",
          "type": "string"
        },
        {
          "indexed": true,
          "internalType": "string",
          "name": "key",
          "type": "string"
        }
      ],
      "name": "TextRecordCleared",
      "type": "event"
    },
    {
      "anonymous": false,
      "inputs": [
        {
          "indexed": true,
          "internalType": "string",
          "name": "label",
          "type": "string"
        },
        {
          "indexed": true,
          "internalType": "string",
          "name": "key",
          "type": "string"
        },
        {
          "indexed": false,
          "internalType": "string",
          "name": "value",
          "type": "string"
        }
      ],
      "name": "TextRecordSet",
      "type": "event"
    },
    {
      "anonymous": false,
      "inputs": [
        {
          "indexed": false,
          "internalType": "uint256",
          "name": "_tokenId",
          "type": "uint256"
        },
        {
          "indexed": true,
          "internalType": "address",
          "name": "_from",
          "type": "address"
        },
        {
          "indexed": true,
          "internalType": "address",
          "name": "_to",
          "type": "address"
        }
      ],
      "name": "Transferred",
      "type": "event"
    },
    {
      "anonymous": false,
      "inputs": [
        {
          "indexed": true,
          "internalType": "uint256",
          "name": "_tokenId",
          "type": "uint256"
        },
        {
          "indexed": false,
          "internalType": "bytes32[]",
          "name": "_oldDataHashes",
          "type": "bytes32[]"
        },
        {
          "indexed": false,
          "internalType": "bytes32[]",
          "name": "_newDataHashes",
          "type": "bytes32[]"
        }
      ],
      "name": "Updated",
      "type": "event"
    },
    {
      "inputs": [],
      "name": "ADMIN_ROLE",
      "outputs": [
        {
          "internalType": "bytes32",
          "name": "",
          "type": "bytes32"
        }
      ],
      "stateMutability": "view",
      "type": "function"
    },
    {
      "inputs": [],
      "name": "DEFAULT_ADMIN_ROLE",
      "outputs": [
        {
          "internalType": "bytes32",
          "name": "",
          "type": "bytes32"
        }
      ],
      "stateMutability": "view",
      "type": "function"
    },
    {
      "inputs": [],
      "name": "VERSION",
      "outputs": [
        {
          "internalType": "string",
          "name": "",
          "type": "string"
        }
      ],
      "stateMutability": "view",
      "type": "function"
    },
    {
      "inputs": [
        {
          "internalType": "string",
          "name": "label",
          "type": "string"
        }
      ],
      "name": "addressForLabel",
      "outputs": [
        {
          "internalType": "address",
          "name": "",
          "type": "address"
        }
      ],
      "stateMutability": "view",
      "type": "function"
    },
    {
      "inputs": [
        {
          "internalType": "address",
          "name": "to",
          "type": "address"
        },
        {
          "internalType": "uint256",
          "name": "tokenId",
          "type": "uint256"
        }
      ],
      "name": "approve",
      "outputs": [],
      "stateMutability": "nonpayable",
      "type": "function"
    },
    {
      "inputs": [
        {
          "internalType": "uint256",
          "name": "tokenId",
          "type": "uint256"
        },
        {
          "internalType": "address",
          "name": "to",
          "type": "address"
        }
      ],
      "name": "authorizeUsage",
      "outputs": [],
      "stateMutability": "nonpayable",
      "type": "function"
    },
    {
      "inputs": [
        {
          "internalType": "uint256",
          "name": "tokenId",
          "type": "uint256"
        }
      ],
      "name": "authorizedUsersOf",
      "outputs": [
        {
          "internalType": "address[]",
          "name": "",
          "type": "address[]"
        }
      ],
      "stateMutability": "view",
      "type": "function"
    },
    {
      "inputs": [
        {
          "internalType": "address",
          "name": "to",
          "type": "address"
        },
        {
          "internalType": "uint256",
          "name": "tokenId",
          "type": "uint256"
        },
        {
          "internalType": "bytes[]",
          "name": "proofs",
          "type": "bytes[]"
        }
      ],
      "name": "clone",
      "outputs": [
        {
          "internalType": "uint256",
          "name": "",
          "type": "uint256"
        }
      ],
      "stateMutability": "nonpayable",
      "type": "function"
    },
    {
      "inputs": [
        {
          "internalType": "address",
          "name": "from",
          "type": "address"
        },
        {
          "internalType": "address",
          "name": "to",
          "type": "address"
        },
        {
          "internalType": "uint256",
          "name": "tokenId",
          "type": "uint256"
        },
        {
          "internalType": "bytes[]",
          "name": "proofs",
          "type": "bytes[]"
        }
      ],
      "name": "cloneFrom",
      "outputs": [
        {
          "internalType": "uint256",
          "name": "",
          "type": "uint256"
        }
      ],
      "stateMutability": "nonpayable",
      "type": "function"
    },
    {
      "inputs": [
        {
          "internalType": "uint256",
          "name": "tokenId",
          "type": "uint256"
        }
      ],
      "name": "dataDescriptionsOf",
      "outputs": [
        {
          "internalType": "string[]",
          "name": "",
          "type": "string[]"
        }
      ],
      "stateMutability": "view",
      "type": "function"
    },
    {
      "inputs": [
        {
          "internalType": "uint256",
          "name": "tokenId",
          "type": "uint256"
        }
      ],
      "name": "dataHashesOf",
      "outputs": [
        {
          "internalType": "bytes32[]",
          "name": "",
          "type": "bytes32[]"
        }
      ],
      "stateMutability": "view",
      "type": "function"
    },
    {
      "inputs": [
        {
          "internalType": "uint256",
          "name": "tokenId",
          "type": "uint256"
        }
      ],
      "name": "getApproved",
      "outputs": [
        {
          "internalType": "address",
          "name": "operator",
          "type": "address"
        }
      ],
      "stateMutability": "view",
      "type": "function"
    },
    {
      "inputs": [
        {
          "internalType": "bytes32",
          "name": "role",
          "type": "bytes32"
        }
      ],
      "name": "getRoleAdmin",
      "outputs": [
        {
          "internalType": "bytes32",
          "name": "",
          "type": "bytes32"
        }
      ],
      "stateMutability": "view",
      "type": "function"
    },
    {
      "inputs": [
        {
          "internalType": "bytes32",
          "name": "role",
          "type": "bytes32"
        },
        {
          "internalType": "uint256",
          "name": "index",
          "type": "uint256"
        }
      ],
      "name": "getRoleMember",
      "outputs": [
        {
          "internalType": "address",
          "name": "",
          "type": "address"
        }
      ],
      "stateMutability": "view",
      "type": "function"
    },
    {
      "inputs": [
        {
          "internalType": "bytes32",
          "name": "role",
          "type": "bytes32"
        }
      ],
      "name": "getRoleMemberCount",
      "outputs": [
        {
          "internalType": "uint256",
          "name": "",
          "type": "uint256"
        }
      ],
      "stateMutability": "view",
      "type": "function"
    },
    {
      "inputs": [
        {
          "internalType": "bytes32",
          "name": "role",
          "type": "bytes32"
        }
      ],
      "name": "getRoleMembers",
      "outputs": [
        {
          "internalType": "address[]",
          "name": "",
          "type": "address[]"
        }
      ],
      "stateMutability": "view",
      "type": "function"
    },
    {
      "inputs": [
        {
          "internalType": "bytes32",
          "name": "role",
          "type": "bytes32"
        },
        {
          "internalType": "address",
          "name": "account",
          "type": "address"
        }
      ],
      "name": "grantRole",
      "outputs": [],
      "stateMutability": "nonpayable",
      "type": "function"
    },
    {
      "inputs": [
        {
          "internalType": "bytes32",
          "name": "role",
          "type": "bytes32"
        },
        {
          "internalType": "address",
          "name": "account",
          "type": "address"
        }
      ],
      "name": "hasRole",
      "outputs": [
        {
          "internalType": "bool",
          "name": "",
          "type": "bool"
        }
      ],
      "stateMutability": "view",
      "type": "function"
    },
    {
      "inputs": [
        {
          "internalType": "string",
          "name": "",
          "type": "string"
        },
        {
          "internalType": "string",
          "name": "",
          "type": "string"
        },
        {
          "internalType": "address",
          "name": "verifierAddr",
          "type": "address"
        },
        {
          "internalType": "string",
          "name": "chainURL_",
          "type": "string"
        },
        {
          "internalType": "string",
          "name": "indexerURL_",
          "type": "string"
        }
      ],
      "name": "initialize",
      "outputs": [],
      "stateMutability": "nonpayable",
      "type": "function"
    },
    {
      "inputs": [
        {
          "internalType": "address",
          "name": "owner",
          "type": "address"
        },
        {
          "internalType": "address",
          "name": "operator",
          "type": "address"
        }
      ],
      "name": "isApprovedForAll",
      "outputs": [
        {
          "internalType": "bool",
          "name": "",
          "type": "bool"
        }
      ],
      "stateMutability": "view",
      "type": "function"
    },
    {
      "inputs": [
        {
          "internalType": "string",
          "name": "label",
          "type": "string"
        }
      ],
      "name": "isLabelReserved",
      "outputs": [
        {
          "internalType": "bool",
          "name": "",
          "type": "bool"
        }
      ],
      "stateMutability": "view",
      "type": "function"
    },
    {
      "inputs": [
        {
          "internalType": "string",
          "name": "label",
          "type": "string"
        }
      ],
      "name": "isLabelTaken",
      "outputs": [
        {
          "internalType": "bool",
          "name": "",
          "type": "bool"
        }
      ],
      "stateMutability": "view",
      "type": "function"
    },
    {
      "inputs": [
        {
          "internalType": "uint256",
          "name": "tokenId",
          "type": "uint256"
        }
      ],
      "name": "labelForTokenId",
      "outputs": [
        {
          "internalType": "string",
          "name": "",
          "type": "string"
        }
      ],
      "stateMutability": "view",
      "type": "function"
    },
    {
      "inputs": [
        {
          "internalType": "bytes[]",
          "name": "proofs",
          "type": "bytes[]"
        },
        {
          "internalType": "string[]",
          "name": "dataDescriptions",
          "type": "string[]"
        },
        {
          "internalType": "address",
          "name": "to",
          "type": "address"
        }
      ],
      "name": "mint",
      "outputs": [
        {
          "internalType": "uint256",
          "name": "tokenId",
          "type": "uint256"
        }
      ],
      "stateMutability": "payable",
      "type": "function"
    },
    {
      "inputs": [
        {
          "internalType": "bytes[]",
          "name": "proofs",
          "type": "bytes[]"
        },
        {
          "internalType": "string[]",
          "name": "dataDescriptions",
          "type": "string[]"
        },
        {
          "internalType": "address",
          "name": "to",
          "type": "address"
        },
        {
          "internalType": "string",
          "name": "label",
          "type": "string"
        }
      ],
      "name": "mintWithSubname",
      "outputs": [
        {
          "internalType": "uint256",
          "name": "tokenId",
          "type": "uint256"
        }
      ],
      "stateMutability": "payable",
      "type": "function"
    },
    {
      "inputs": [],
      "name": "name",
      "outputs": [
        {
          "internalType": "string",
          "name": "",
          "type": "string"
        }
      ],
      "stateMutability": "pure",
      "type": "function"
    },
    {
      "inputs": [],
      "name": "nextTokenId",
      "outputs": [
        {
          "internalType": "uint256",
          "name": "",
          "type": "uint256"
        }
      ],
      "stateMutability": "view",
      "type": "function"
    },
    {
      "inputs": [
        {
          "internalType": "uint256",
          "name": "tokenId",
          "type": "uint256"
        }
      ],
      "name": "ownerOf",
      "outputs": [
        {
          "internalType": "address",
          "name": "",
          "type": "address"
        }
      ],
      "stateMutability": "view",
      "type": "function"
    },
    {
      "inputs": [
        {
          "internalType": "bytes32",
          "name": "role",
          "type": "bytes32"
        },
        {
          "internalType": "address",
          "name": "callerConfirmation",
          "type": "address"
        }
      ],
      "name": "renounceRole",
      "outputs": [],
      "stateMutability": "nonpayable",
      "type": "function"
    },
    {
      "inputs": [
        {
          "internalType": "bytes32",
          "name": "role",
          "type": "bytes32"
        },
        {
          "internalType": "address",
          "name": "account",
          "type": "address"
        }
      ],
      "name": "revokeRole",
      "outputs": [],
      "stateMutability": "nonpayable",
      "type": "function"
    },
    {
      "inputs": [
        {
          "internalType": "address",
          "name": "to",
          "type": "address"
        },
        {
          "internalType": "bool",
          "name": "approved",
          "type": "bool"
        }
      ],
      "name": "setApprovalForAll",
      "outputs": [],
      "stateMutability": "nonpayable",
      "type": "function"
    },
    {
      "inputs": [
        {
          "internalType": "string",
          "name": "label",
          "type": "string"
        },
        {
          "internalType": "bool",
          "name": "reserved",
          "type": "bool"
        }
      ],
      "name": "setReserved",
      "outputs": [],
      "stateMutability": "nonpayable",
      "type": "function"
    },
    {
      "inputs": [
        {
          "internalType": "uint256",
          "name": "tokenId",
          "type": "uint256"
        },
        {
          "internalType": "address",
          "name": "newAddr",
          "type": "address"
        }
      ],
      "name": "setSubnameAddress",
      "outputs": [],
      "stateMutability": "nonpayable",
      "type": "function"
    },
    {
      "inputs": [
        {
          "internalType": "uint256",
          "name": "tokenId",
          "type": "uint256"
        },
        {
          "internalType": "string",
          "name": "key",
          "type": "string"
        },
        {
          "internalType": "string",
          "name": "value",
          "type": "string"
        }
      ],
      "name": "setText",
      "outputs": [],
      "stateMutability": "nonpayable",
      "type": "function"
    },
    {
      "inputs": [
        {
          "internalType": "uint256",
          "name": "tokenId",
          "type": "uint256"
        },
        {
          "internalType": "string[]",
          "name": "keys",
          "type": "string[]"
        },
        {
          "internalType": "string[]",
          "name": "values",
          "type": "string[]"
        }
      ],
      "name": "setTexts",
      "outputs": [],
      "stateMutability": "nonpayable",
      "type": "function"
    },
    {
      "inputs": [
        {
          "internalType": "bytes4",
          "name": "interfaceId",
          "type": "bytes4"
        }
      ],
      "name": "supportsInterface",
      "outputs": [
        {
          "internalType": "bool",
          "name": "",
          "type": "bool"
        }
      ],
      "stateMutability": "view",
      "type": "function"
    },
    {
      "inputs": [],
      "name": "symbol",
      "outputs": [
        {
          "internalType": "string",
          "name": "",
          "type": "string"
        }
      ],
      "stateMutability": "pure",
      "type": "function"
    },
    {
      "inputs": [
        {
          "internalType": "string",
          "name": "label",
          "type": "string"
        },
        {
          "internalType": "string",
          "name": "key",
          "type": "string"
        }
      ],
      "name": "textForLabel",
      "outputs": [
        {
          "internalType": "string",
          "name": "",
          "type": "string"
        }
      ],
      "stateMutability": "view",
      "type": "function"
    },
    {
      "inputs": [
        {
          "internalType": "string",
          "name": "label",
          "type": "string"
        }
      ],
      "name": "tokenIdForLabel",
      "outputs": [
        {
          "internalType": "uint256",
          "name": "",
          "type": "uint256"
        }
      ],
      "stateMutability": "view",
      "type": "function"
    },
    {
      "inputs": [
        {
          "internalType": "uint256",
          "name": "tokenId",
          "type": "uint256"
        }
      ],
      "name": "tokenURI",
      "outputs": [
        {
          "internalType": "string",
          "name": "",
          "type": "string"
        }
      ],
      "stateMutability": "view",
      "type": "function"
    },
    {
      "inputs": [
        {
          "internalType": "address",
          "name": "to",
          "type": "address"
        },
        {
          "internalType": "uint256",
          "name": "tokenId",
          "type": "uint256"
        },
        {
          "internalType": "bytes[]",
          "name": "proofs",
          "type": "bytes[]"
        }
      ],
      "name": "transfer",
      "outputs": [],
      "stateMutability": "nonpayable",
      "type": "function"
    },
    {
      "inputs": [
        {
          "internalType": "address",
          "name": "from",
          "type": "address"
        },
        {
          "internalType": "address",
          "name": "to",
          "type": "address"
        },
        {
          "internalType": "uint256",
          "name": "tokenId",
          "type": "uint256"
        },
        {
          "internalType": "bytes[]",
          "name": "proofs",
          "type": "bytes[]"
        }
      ],
      "name": "transferFrom",
      "outputs": [],
      "stateMutability": "nonpayable",
      "type": "function"
    },
    {
      "inputs": [
        {
          "internalType": "uint256",
          "name": "tokenId",
          "type": "uint256"
        },
        {
          "internalType": "bytes[]",
          "name": "proofs",
          "type": "bytes[]"
        }
      ],
      "name": "update",
      "outputs": [],
      "stateMutability": "nonpayable",
      "type": "function"
    },
    {
      "inputs": [
        {
          "internalType": "string",
          "name": "newChainURL",
          "type": "string"
        },
        {
          "internalType": "string",
          "name": "newIndexerURL",
          "type": "string"
        }
      ],
      "name": "updateURLS",
      "outputs": [],
      "stateMutability": "nonpayable",
      "type": "function"
    },
    {
      "inputs": [
        {
          "internalType": "address",
          "name": "newVerifier",
          "type": "address"
        }
      ],
      "name": "updateVerifier",
      "outputs": [],
      "stateMutability": "nonpayable",
      "type": "function"
    },
    {
      "inputs": [],
      "name": "verifier",
      "outputs": [
        {
          "internalType": "contract IERC7857DataVerifier",
          "name": "",
          "type": "address"
        }
      ],
      "stateMutability": "view",
      "type": "function"
    }
  ],
  "bytecode": "0x6080604052348015600e575f5ffd5b5060156019565b60c9565b7ff0c57e16840df040f15088dc2f81fe391c3923bec73e23a9662efc9c229c6a00805468010000000000000000900460ff161560685760405163f92ee8a960e01b815260040160405180910390fd5b80546001600160401b039081161460c65780546001600160401b0319166001600160401b0390811782556040519081527fc7f505b2f371ae2175ee4913f4499e1f2633a7b5936321eed1cdaeb6115181d29060200160405180910390a15b50565b61586a806100d65f395ff3fe608060405260043610610274575f3560e01c806383a7fdce1161014a578063c87b56dd116100be578063e7ab28d811610078578063e7ab28d8146107ab578063e985e9c5146107ca578063ede1e10b146107e9578063fa83d14e14610808578063fd0be72214610827578063ffa1ad7414610846575f5ffd5b8063c87b56dd146106f1578063ca15c87314610710578063cf84eb001461072f578063d3d6e39e1461074e578063d547741f1461076d578063dfdad7de1461078c575f5ffd5b8063a217fddf1161010f578063a217fddf1461065b578063a22cb4651461066e578063a3246ad31461068d578063a5014452146106ac578063a8357326146106bf578063b19881b4146106de575f5ffd5b806383a7fdce146105b25780639010d07c146105d157806391d14854146105f057806395d89b411461060f57806397fc007c1461063c575f5ffd5b80632f2ff15d116101ec578063594400d0116101a6578063594400d0146104f55780636352211e146105145780637289fdd61461053357806375794a3c1461055257806375b238fc146105665780637a005b3614610586575f5ffd5b80632f2ff15d1461043b57806336568abe1461045a578063389f8754146104795780633fb24782146104985780634bf5b0c1146104b757806352f54073146104d6575f5ffd5b80630beef18f1161023d5780630beef18f14610364578063145cb9dd146103905780631aeb542f146103af578063248a9ca3146103db5780632ae233d9146104085780632b7ac3f314610427575f5ffd5b80626198c11461027857806301ffc9a71461029957806306fdde03146102cd578063081812fc1461030e578063095ea7b314610345575b5f5ffd5b348015610283575f5ffd5b506102976102923660046145a2565b610876565b005b3480156102a4575f5ffd5b506102b86102b3366004614669565b6109bb565b60405190151581526020015b60405180910390f35b3480156102d8575f5ffd5b5060408051808201909152601081526f4d6e656d6f73796e65204167656e747360801b60208201525b6040516102c491906146be565b348015610319575f5ffd5b5061032d6103283660046146d0565b6109e5565b6040516001600160a01b0390911681526020016102c4565b348015610350575f5ffd5b5061029761035f3660046146e7565b610a0c565b34801561036f575f5ffd5b5061038361037e3660046146d0565b610ab2565b6040516102c49190614711565b34801561039b575f5ffd5b506102976103aa3660046147bb565b610bcd565b3480156103ba575f5ffd5b506103ce6103c93660046146d0565b610beb565b6040516102c49190614828565b3480156103e6575f5ffd5b506103fa6103f53660046146d0565b610c92565b6040519081526020016102c4565b348015610413575f5ffd5b506103fa6104223660046148b0565b610cb2565b348015610432575f5ffd5b5061032d610ceb565b348015610446575f5ffd5b506102976104553660046148ee565b610d06565b348015610465575f5ffd5b506102976104743660046148ee565b610d28565b348015610484575f5ffd5b5061029761049336600461491c565b610d60565b3480156104a3575f5ffd5b506102976104b2366004614963565b610fda565b3480156104c2575f5ffd5b506103016104d13660046149c9565b611247565b3480156104e1575f5ffd5b506102976104f0366004614a33565b611327565b348015610500575f5ffd5b5061032d61050f3660046148b0565b6116d8565b34801561051f575f5ffd5b5061032d61052e3660046146d0565b611718565b34801561053e575f5ffd5b506103fa61054d366004614a8d565b61176b565b34801561055d575f5ffd5b506103fa611ca8565b348015610571575f5ffd5b506103fa5f5160206158155f395f51905f5281565b348015610591575f5ffd5b506105a56105a03660046146d0565b611cba565b6040516102c49190614b12565b3480156105bd575f5ffd5b506102976105cc3660046148ee565b611d56565b3480156105dc575f5ffd5b5061032d6105eb366004614b24565b611f29565b3480156105fb575f5ffd5b506102b861060a3660046148ee565b611f56565b34801561061a575f5ffd5b506040805180820190915260058152644d4e454d4f60d81b6020820152610301565b348015610647575f5ffd5b50610297610656366004614b44565b611f8c565b348015610666575f5ffd5b506103fa5f81565b348015610679575f5ffd5b50610297610688366004614b6c565b611ff7565b348015610698575f5ffd5b506103ce6106a73660046146d0565b612070565b6103fa6106ba366004614b98565b6120a0565b3480156106ca575f5ffd5b506102b86106d93660046148b0565b6123f8565b6103fa6106ec366004614c19565b612435565b3480156106fc575f5ffd5b5061030161070b3660046146d0565b61265b565b34801561071b575f5ffd5b506103fa61072a3660046146d0565b6126e4565b34801561073a575f5ffd5b50610297610749366004614cc7565b612708565b348015610759575f5ffd5b506102b86107683660046148b0565b6127b1565b348015610778575f5ffd5b506102976107873660046148ee565b6127d3565b348015610797575f5ffd5b506102976107a6366004614a8d565b6127ef565b3480156107b6575f5ffd5b506103fa6107c53660046147bb565b612805565b3480156107d5575f5ffd5b506102b86107e4366004614d19565b612dec565b3480156107f4575f5ffd5b506103016108033660046146d0565b612e29565b348015610813575f5ffd5b506102976108223660046148ee565b612ed4565b348015610832575f5ffd5b50610297610841366004614d45565b612f82565b348015610851575f5ffd5b50610301604051806040016040528060058152602001640312e302e360dc1b81525081565b5f61087f612fc1565b805490915060ff600160401b82041615906001600160401b03165f811580156108a55750825b90505f826001600160401b031660011480156108c05750303b155b9050811580156108ce575080155b156108ec5760405163f92ee8a960e01b815260040160405180910390fd5b845467ffffffffffffffff19166001178555831561091657845460ff60401b1916600160401b1785555b6109686040518060400160405280601081526020016f4d6e656d6f73796e65204167656e747360801b815250604051806040016040528060058152602001644d4e454d4f60d81b8152508a8a8a612fe9565b83156109af57845460ff60401b19168555604051600181527fc7f505b2f371ae2175ee4913f4499e1f2633a7b5936321eed1cdaeb6115181d2906020015b60405180910390a15b50505050505050505050565b5f6001600160e01b03198216635a05180f60e01b14806109df57506109df8261317f565b92915050565b5f5f6109ef6131b3565b5f938452602052505060409020600401546001600160a01b031690565b5f610a156131b3565b5f838152602082905260409020549091506001600160a01b03163314610a565760405162461bcd60e51b8152600401610a4d90614da8565b60405180910390fd5b5f8281526020829052604080822060040180546001600160a01b0319166001600160a01b0387169081179091559051849233917f8c5be1e5ebec7d5bd14f71427d1e84f3dd0314c0f7b2291e5b200ac8c7c3b9259190a4505050565b60605f610abd6131b3565b5f8481526020829052604090208054919250906001600160a01b0316610af55760405162461bcd60e51b8152600401610a4d90614dcb565b80600101805480602002602001604051908101604052809291908181526020015f905b82821015610bc0578382905f5260205f20018054610b3590614df4565b80601f0160208091040260200160405190810160405280929190818152602001828054610b6190614df4565b8015610bac5780601f10610b8357610100808354040283529160200191610bac565b820191905f5260205f20905b815481529060010190602001808311610b8f57829003601f168201915b505050505081526020019060010190610b18565b5050505092505050919050565b610bda85858585856131d7565b610be4838561374d565b5050505050565b60605f610bf66131b3565b5f8481526020829052604090208054919250906001600160a01b0316610c2e5760405162461bcd60e51b8152600401610a4d90614dcb565b80600301805480602002602001604051908101604052809291908181526020018280548015610c8457602002820191905f5260205f20905b81546001600160a01b03168152600190910190602001808311610c66575b505050505092505050919050565b5f9081525f5160206157b55f395f51905f52602052604090206001015490565b5f5f5160206157d55f395f51905f526001018383604051610cd4929190614e2c565b908152602001604051809103902054905092915050565b5f610cf46131b3565b600701546001600160a01b0316919050565b610d0f82610c92565b610d188161385e565b610d22838361386b565b50505050565b6001600160a01b0381163314610d515760405163334bd91960e11b815260040160405180910390fd5b610d5b82826138ad565b505050565b5f610d696131b3565b5f8581526020829052604090208054919250906001600160a01b03163314610da35760405162461bcd60e51b8152600401610a4d90614da8565b600782015460405163c2a93e3760e01b81525f916001600160a01b03169063c2a93e3790610dd79088908890600401614ea4565b5f604051808303815f875af1158015610df2573d5f5f3e3d5ffd5b505050506040513d5f823e601f3d908101601f19168201604052610e199190810190614f2b565b90505f81516001600160401b03811115610e3557610e35614495565b604051908082528060200260200182016040528015610e5e578160200160208202803683370190505b5090505f5b8251811015610f2957828181518110610e7e57610e7e614ff2565b60200260200101516020015181848381518110610e9d57610e9d614ff2565b60200260200101515f0151604051602001610eb9929190615006565b60405160208183030381529060405290610ee65760405162461bcd60e51b8152600401610a4d91906146be565b50828181518110610ef957610ef9614ff2565b60200260200101515f0151828281518110610f1657610f16614ff2565b6020908102919091010152600101610e63565b505f83600201805480602002602001604051908101604052809291908181526020018280548015610f7757602002820191905f5260205f20905b815481526020019060010190808311610f63575b50508551939450610f95936002890193506020870192509050614342565b50877f51fa73895ca2bd4c7f525775384b199b6047f069e662b82aa9e1b0998b9c29758284604051610fc8929190615055565b60405180910390a25050505050505050565b33610fe486611718565b6001600160a01b03161461100a5760405162461bcd60e51b8152600401610a4d90614da8565b5f8581525f5160206157f55f395f51905f526020526040812080545f5160206157d55f395f51905f5292919061103f90614df4565b80601f016020809104026020016040519081016040528092919081815260200182805461106b90614df4565b80156110b65780601f1061108d576101008083540402835291602001916110b6565b820191905f5260205f20905b81548152906001019060200180831161109957829003601f168201915b505050505090505f8151116110dd5760405162461bcd60e51b8152600401610a4d90615082565b5f8390036111885781600401816040516110f791906150bd565b90815260200160405180910390208686604051611115929190614e2c565b90815260200160405180910390205f61112e919061438b565b858560405161113e929190614e2c565b60405180910390208160405161115491906150bd565b604051908190038120907fd3719f3b4e97aa05a10666e3c81aaf4ff60ec6dbde62ede65de2426869f4937c905f90a361123e565b8383836004018360405161119c91906150bd565b908152602001604051809103902088886040516111ba929190614e2c565b908152602001604051809103902091826111d592919061510c565b5085856040516111e6929190614e2c565b6040518091039020816040516111fc91906150bd565b60405180910390207f4a19241c0e497f18b5c1f146d92ec7c29ab31937a8a5cdb8d8ee41623494c4af86866040516112359291906151c5565b60405180910390a35b50505050505050565b60605f5160206157d55f395f51905f52600401858560405161126a929190614e2c565b90815260200160405180910390208383604051611288929190614e2c565b908152602001604051809103902080546112a190614df4565b80601f01602080910402602001604051908101604052809291908181526020018280546112cd90614df4565b80156113185780601f106112ef57610100808354040283529160200191611318565b820191905f5260205f20905b8154815290600101906020018083116112fb57829003601f168201915b50505050509050949350505050565b3361133186611718565b6001600160a01b0316146113575760405162461bcd60e51b8152600401610a4d90614da8565b8281146113985760405162461bcd60e51b815260206004820152600f60248201526e098cadccee8d040dad2e6dac2e8c6d608b1b6044820152606401610a4d565b5f8581525f5160206157f55f395f51905f526020526040812080545f5160206157d55f395f51905f529291906113cd90614df4565b80601f01602080910402602001604051908101604052809291908181526020018280546113f990614df4565b80156114445780601f1061141b57610100808354040283529160200191611444565b820191905f5260205f20905b81548152906001019060200180831161142757829003601f168201915b505050505090505f81511161146b5760405162461bcd60e51b8152600401610a4d90615082565b5f5b858110156116ce5784848281811061148757611487614ff2565b905060200281019061149991906151d8565b90505f036115885782600401826040516114b391906150bd565b90815260200160405180910390208787838181106114d3576114d3614ff2565b90506020028101906114e591906151d8565b6040516114f3929190614e2c565b90815260200160405180910390205f61150c919061438b565b86868281811061151e5761151e614ff2565b905060200281019061153091906151d8565b60405161153e929190614e2c565b60405180910390208260405161155491906150bd565b604051908190038120907fd3719f3b4e97aa05a10666e3c81aaf4ff60ec6dbde62ede65de2426869f4937c905f90a36116c6565b84848281811061159a5761159a614ff2565b90506020028101906115ac91906151d8565b84600401846040516115be91906150bd565b90815260200160405180910390208989858181106115de576115de614ff2565b90506020028101906115f091906151d8565b6040516115fe929190614e2c565b9081526020016040518091039020918261161992919061510c565b5086868281811061162c5761162c614ff2565b905060200281019061163e91906151d8565b60405161164c929190614e2c565b60405180910390208260405161166291906150bd565b60405180910390207f4a19241c0e497f18b5c1f146d92ec7c29ab31937a8a5cdb8d8ee41623494c4af87878581811061169d5761169d614ff2565b90506020028101906116af91906151d8565b6040516116bd9291906151c5565b60405180910390a35b60010161146d565b5050505050505050565b5f5f5160206157d55f395f51905f526040516116f79085908590614e2c565b908152604051908190036020019020546001600160a01b0316905092915050565b5f5f6117226131b3565b5f8481526020829052604090208054919250906001600160a01b031661175a5760405162461bcd60e51b8152600401610a4d90614dcb565b546001600160a01b03169392505050565b5f5f6117756131b3565b90506001600160a01b03861661179d5760405162461bcd60e51b8152600401610a4d9061521a565b5f858152602082905260409020546001600160a01b031633146117d25760405162461bcd60e51b8152600401610a4d90614da8565b60078101546040516349e176d360e11b81525f916001600160a01b0316906393c2eda6906118069088908890600401614ea4565b5f604051808303815f875af1158015611821573d5f5f3e3d5ffd5b505050506040513d5f823e601f3d908101601f191682016040526118489190810190615240565b90505f81516001600160401b0381111561186457611864614495565b60405190808252806020026020018201604052801561188d578160200160208202803683370190505b5090505f82516001600160401b038111156118aa576118aa614495565b6040519080825280602002602001820160405280156118d3578160200160208202803683370190505b5090505f5b8351811015611a5e578381815181106118f3576118f3614ff2565b602002602001015160800151801561195057505f89815260208690526040902060020180548290811061192857611928614ff2565b905f5260205f20015484828151811061194357611943614ff2565b60200260200101515f0151145b801561198a5750896001600160a01b031684828151811061197357611973614ff2565b6020026020010151604001516001600160a01b0316145b8160405160200161199b9190615331565b604051602081830303815290604052906119c85760405162461bcd60e51b8152600401610a4d91906146be565b508381815181106119db576119db614ff2565b6020026020010151606001518282815181106119f9576119f9614ff2565b60200260200101906001600160801b03191690816001600160801b03191681525050838181518110611a2d57611a2d614ff2565b602002602001015160200151838281518110611a4b57611a4b614ff2565b60209081029190910101526001016118d8565b506002840180545f9182611a7183615388565b909155506040805160a0810182526001600160a01b038d1681525f8c8152602089815283822060010180548551818402810184019096528086529596509294818601949392909184015b82821015611b63578382905f5260205f20018054611ad890614df4565b80601f0160208091040260200160405190810160405280929190818152602001828054611b0490614df4565b8015611b4f5780601f10611b2657610100808354040283529160200191611b4f565b820191905f5260205f20905b815481529060010190602001808311611b3257829003601f168201915b505050505081526020019060010190611abb565b505050908252506020808201869052604080515f8082529281018252920191905081525f602091820181905283815287825260409020825181546001600160a01b0319166001600160a01b039091161781558282015180519192611bcf926001850192909101906143c2565b5060408201518051611beb916002840191602090910190614342565b5060608201518051611c07916003840191602090910190614412565b5060809190910151600490910180546001600160a01b0319166001600160a01b0392831617905560408051338152918c16602083015282918b917f40b442ee2bb535802063305b95f127b5101e5fce261a5dec9379683eaaad8cdb910160405180910390a3808a6001600160a01b03165f5160206157755f395f51905f5284604051611c9391906153a0565b60405180910390a39998505050505050505050565b5f611cb16131b3565b60020154905090565b60605f611cc56131b3565b5f8481526020829052604090208054919250906001600160a01b0316611cfd5760405162461bcd60e51b8152600401610a4d90614dcb565b80600201805480602002602001604051908101604052809291908181526020018280548015610c8457602002820191905f5260205f20905b815481526020019060010190808311611d3557505050505092505050919050565b33611d6083611718565b6001600160a01b031614611d865760405162461bcd60e51b8152600401610a4d90614da8565b6001600160a01b038116611dac5760405162461bcd60e51b8152600401610a4d9061521a565b5f8281525f5160206157f55f395f51905f526020526040812080545f5160206157d55f395f51905f52929190611de190614df4565b80601f0160208091040260200160405190810160405280929190818152602001828054611e0d90614df4565b8015611e585780601f10611e2f57610100808354040283529160200191611e58565b820191905f5260205f20905b815481529060010190602001808311611e3b57829003601f168201915b505050505090505f815111611e7f5760405162461bcd60e51b8152600401610a4d90615082565b5f825f0182604051611e9191906150bd565b908152604051908190036020018120546001600160a01b0316915084908490611ebb9085906150bd565b90815260405190819003602001812080546001600160a01b039384166001600160a01b0319909116179055858216918316907f7d83255ce44603fb701ee6f64038718c14f35b10cb3ea11dc6069599a3af9eba90611f1a9086906146be565b60405180910390a35050505050565b5f8281525f5160206157955f395f51905f52602081905260408220611f4e90846138e6565b949350505050565b5f9182525f5160206157b55f395f51905f52602090815260408084206001600160a01b0393909316845291905290205460ff1690565b5f5160206158155f395f51905f52611fa38161385e565b6001600160a01b038216611fc95760405162461bcd60e51b8152600401610a4d9061521a565b81611fd26131b3565b60070180546001600160a01b0319166001600160a01b03929092169190911790555050565b5f6120006131b3565b335f81815260018301602090815260408083206001600160a01b03891680855290835292819020805460ff1916881515908117909155905190815293945090927f17307eab39ab6107e8899845ad3d59bd9653f200f220920489ca2b5937696c31910160405180910390a3505050565b5f8181525f5160206157955f395f51905f526020819052604090912060609190612099906138f1565b9392505050565b5f5f6120aa6131b3565b905083861461210b5760405162461bcd60e51b815260206004820152602760248201527f4465736372697074696f6e7320616e642070726f6f6673206c656e677468206d6044820152660d2e6dac2e8c6d60cb1b6064820152608401610a4d565b6001600160a01b03831661211d573392505b600781015460405163c2a93e3760e01b81525f916001600160a01b03169063c2a93e3790612151908b908b90600401614ea4565b5f604051808303815f875af115801561216c573d5f5f3e3d5ffd5b505050506040513d5f823e601f3d908101601f191682016040526121939190810190614f2b565b90505f81516001600160401b038111156121af576121af614495565b6040519080825280602002602001820160405280156121d8578160200160208202803683370190505b5090505f5b82518110156122a3578281815181106121f8576121f8614ff2565b6020026020010151602001518184838151811061221757612217614ff2565b60200260200101515f0151604051602001612233929190615006565b604051602081830303815290604052906122605760405162461bcd60e51b8152600401610a4d91906146be565b5082818151811061227357612273614ff2565b60200260200101515f015182828151811061229057612290614ff2565b60209081029190910101526001016121dd565b50600283018054905f6122b583615388565b9190505593506040518060a00160405280866001600160a01b031681526020018888906122e291906153e1565b81526020808201849052604080515f8082529281018252920191905081525f602091820181905286815285825260409020825181546001600160a01b0319166001600160a01b039091161781558282015180519192612349926001850192909101906143c2565b5060408201518051612365916002840191602090910190614342565b5060608201518051612381916003840191602090910190614412565b5060809190910151600490910180546001600160a01b0319166001600160a01b0392831617905560405190861690339086907f531bd8ca2b17505aaa50d843fabe2dfd9a3bb9e20c511d2288b24bd484861b02906123e49086908d908d90615443565b60405180910390a450505095945050505050565b5f5f5160206157d55f395f51905f52600501838360405161241a929190614e2c565b9081526040519081900360200190205460ff16905092915050565b5f61244083836138fd565b6040515f5160206157d55f395f51905f52907f056fd9b766381751453e856e178e6a31bebc85b06c3346484e0fd5926790ce03906124819086908690614e2c565b9081526040519081900360200190205460ff16156124cf5760405162461bcd60e51b815260206004820152600b60248201526a2630b132b6103a30b5b2b760a91b6044820152606401610a4d565b8060050184846040516124e3929190614e2c565b9081526040519081900360200190205460ff16156125345760405162461bcd60e51b815260206004820152600e60248201526d131858995b081c995cd95c9d995960921b6044820152606401610a4d565b61254189898989896120a0565b91505f61254d83611718565b90506001826003018686604051612565929190614e2c565b908152604051908190036020018120805492151560ff1990931692909217909155819083906125979088908890614e2c565b90815260200160405180910390205f6101000a8154816001600160a01b0302191690836001600160a01b03160217905550828260010186866040516125dd929190614e2c565b9081526040805160209281900383019020929092555f858152600285019091522061260985878361510c565b50806001600160a01b0316837f7e3796573ec778f8a4d447235f2edceca26693bde8812914365bc7fbfcf2ebe687876040516126469291906151c5565b60405180910390a35050979650505050505050565b60605f6126666131b3565b905061267183613a8c565b6126b45760405162461bcd60e51b8152602060048201526014602482015273151bdad95b88191bd95cc81b9bdd08195e1a5cdd60621b6044820152606401610a4d565b80600501816006016040516020016126cd92919061552d565b604051602081830303815290604052915050919050565b5f8181525f5160206157955f395f51905f5260208190526040822061209990613ab5565b5f5160206158155f395f51905f5261271f8161385e565b815f5160206157d55f395f51905f526005018585604051612741929190614e2c565b908152604051908190036020018120805492151560ff199093169290921790915561276f9085908590614e2c565b6040519081900381208315158252907f33075105f03ee91118b8dfab6bf2d2998cf3616e308d053045e244d8bb6af3c09060200160405180910390a250505050565b5f5f5160206157d55f395f51905f52600301838360405161241a929190614e2c565b6127dc82610c92565b6127e58161385e565b610d2283836138ad565b6127fb84848484613abe565b610d22838561374d565b5f5f61280f6131b3565b90506001600160a01b0386166128375760405162461bcd60e51b8152600401610a4d9061521a565b5f858152602082905260409020546001600160a01b0388811691161461286f5760405162461bcd60e51b8152600401610a4d90614da8565b5f858152602082905260409020600401546001600160a01b03163314806128ab57505f858152602082905260409020546001600160a01b031633145b806128da57506001600160a01b0387165f908152600182016020908152604080832033845290915290205460ff165b6129155760405162461bcd60e51b815260206004820152600c60248201526b139bdd08185c1c1c9bdd995960a21b6044820152606401610a4d565b60078101546040516349e176d360e11b81525f916001600160a01b0316906393c2eda6906129499088908890600401614ea4565b5f604051808303815f875af1158015612964573d5f5f3e3d5ffd5b505050506040513d5f823e601f3d908101601f1916820160405261298b9190810190615240565b90505f81516001600160401b038111156129a7576129a7614495565b6040519080825280602002602001820160405280156129d0578160200160208202803683370190505b5090505f82516001600160401b038111156129ed576129ed614495565b604051908082528060200260200182016040528015612a16578160200160208202803683370190505b5090505f5b8351811015612ba157838181518110612a3657612a36614ff2565b6020026020010151608001518015612a9357505f898152602086905260409020600201805482908110612a6b57612a6b614ff2565b905f5260205f200154848281518110612a8657612a86614ff2565b60200260200101515f0151145b8015612acd5750896001600160a01b0316848281518110612ab657612ab6614ff2565b6020026020010151604001516001600160a01b0316145b81604051602001612ade9190615331565b60405160208183030381529060405290612b0b5760405162461bcd60e51b8152600401610a4d91906146be565b50838181518110612b1e57612b1e614ff2565b602002602001015160600151828281518110612b3c57612b3c614ff2565b60200260200101906001600160801b03191690816001600160801b03191681525050838181518110612b7057612b70614ff2565b602002602001015160200151838281518110612b8e57612b8e614ff2565b6020908102919091010152600101612a1b565b506002840180545f9182612bb483615388565b909155506040805160a0810182526001600160a01b038d1681525f8c8152602089815283822060010180548551818402810184019096528086529596509294818601949392909184015b82821015612ca6578382905f5260205f20018054612c1b90614df4565b80601f0160208091040260200160405190810160405280929190818152602001828054612c4790614df4565b8015612c925780601f10612c6957610100808354040283529160200191612c92565b820191905f5260205f20905b815481529060010190602001808311612c7557829003601f168201915b505050505081526020019060010190612bfe565b505050908252506020808201869052604080515f8082529281018252920191905081525f602091820181905283815287825260409020825181546001600160a01b0319166001600160a01b039091161781558282015180519192612d12926001850192909101906143c2565b5060408201518051612d2e916002840191602090910190614342565b5060608201518051612d4a916003840191602090910190614412565b5060809190910151600490910180546001600160a01b0319166001600160a01b0392831617905560408051338152918c16602083015282918b917f40b442ee2bb535802063305b95f127b5101e5fce261a5dec9379683eaaad8cdb910160405180910390a3808a6001600160a01b03165f5160206157755f395f51905f5284604051612dd691906153a0565b60405180910390a39a9950505050505050505050565b5f5f612df66131b3565b6001600160a01b039485165f90815260019190910160209081526040808320959096168252939093525050205460ff1690565b5f8181525f5160206157f55f395f51905f5260205260409020805460609190612e5190614df4565b80601f0160208091040260200160405190810160405280929190818152602001828054612e7d90614df4565b8015612ec85780601f10612e9f57610100808354040283529160200191612ec8565b820191905f5260205f20905b815481529060010190602001808311612eab57829003601f168201915b50505050509050919050565b5f612edd6131b3565b5f848152602082905260409020549091506001600160a01b03163314612f155760405162461bcd60e51b8152600401610a4d90614da8565b5f83815260208281526040808320600301805460018101825590845291832090910180546001600160a01b0319166001600160a01b0386169081179091559051859233917f8a1c60ca1a16acd72d841a74fa5905de3938132b0b2ff6cb385a7e69af345fc99190a4505050565b5f5160206158155f395f51905f52612f998161385e565b5f612fa26131b3565b905060058101612fb28582615585565b5060068101610be48482615585565b5f807ff0c57e16840df040f15088dc2f81fe391c3923bec73e23a9662efc9c229c6a006109df565b5f612ff2612fc1565b805490915060ff600160401b82041615906001600160401b03165f811580156130185750825b90505f826001600160401b031660011480156130335750303b155b905081158015613041575080155b1561305f5760405163f92ee8a960e01b815260040160405180910390fd5b845467ffffffffffffffff19166001178555831561308957845460ff60401b1916600160401b1785555b6001600160a01b0388166130af5760405162461bcd60e51b8152600401610a4d9061521a565b6130b7613e66565b6130c15f3361386b565b506130d95f5160206158155f395f51905f523361386b565b505f6130e36131b3565b9050600381016130f38c82615585565b50600481016131028b82615585565b50600581016131118982615585565b50600681016131208882615585565b5060070180546001600160a01b0319166001600160a01b038a1617905583156109af57845460ff60401b19168555604051600181527fc7f505b2f371ae2175ee4913f4499e1f2633a7b5936321eed1cdaeb6115181d2906020016109a6565b5f6001600160e01b03198216637965db0b60e01b14806109df57506301ffc9a760e01b6001600160e01b03198316146109df565b7f4aa80aaafbe0e5fe3fe1aa97f3c1f8c65d61f96ef1aab2b448154f4e0759460090565b5f6131e06131b3565b90506001600160a01b0385166132085760405162461bcd60e51b8152600401610a4d9061521a565b5f848152602082905260409020546001600160a01b038781169116146132405760405162461bcd60e51b8152600401610a4d90614da8565b5f848152602082905260409020600401546001600160a01b031633148061327c57505f848152602082905260409020546001600160a01b031633145b806132ab57506001600160a01b0386165f908152600182016020908152604080832033845290915290205460ff165b6132e65760405162461bcd60e51b815260206004820152600c60248201526b139bdd08185c1c1c9bdd995960a21b6044820152606401610a4d565b60078101546040516349e176d360e11b81525f916001600160a01b0316906393c2eda69061331a9087908790600401614ea4565b5f604051808303815f875af1158015613335573d5f5f3e3d5ffd5b505050506040513d5f823e601f3d908101601f1916820160405261335c9190810190615240565b90505f81516001600160401b0381111561337857613378614495565b6040519080825280602002602001820160405280156133a1578160200160208202803683370190505b5090505f82516001600160401b038111156133be576133be614495565b6040519080825280602002602001820160405280156133e7578160200160208202803683370190505b5090505f5b83518110156136965783818151811061340757613407614ff2565b60200260200101516080015161345f5760405162461bcd60e51b815260206004820152601f60248201527f496e76616c6964207472616e736665722076616c69646974792070726f6f66006044820152606401610a4d565b5f88815260208690526040902060020180548290811061348157613481614ff2565b905f5260205f20015484828151811061349c5761349c614ff2565b602002602001015160200151146134d38583815181106134be576134be614ff2565b6020026020010151602001515f1c6020613e70565b5f8a8152602088905260409020600201805461350c9190859081106134fa576134fa614ff2565b905f5260205f2001545f1c6020613e70565b60405160200161351d92919061563f565b6040516020818303038152906040529061354a5760405162461bcd60e51b8152600401610a4d91906146be565b50886001600160a01b031684828151811061356757613567614ff2565b6020026020010151604001516001600160a01b0316146135ae85838151811061359257613592614ff2565b6020026020010151604001516001600160a01b03166014613e70565b6135c28b6001600160a01b03166014613e70565b6040516020016135d39291906156a8565b604051602081830303815290604052906136005760405162461bcd60e51b8152600401610a4d91906146be565b5083818151811061361357613613614ff2565b60200260200101516060015183828151811061363157613631614ff2565b60200260200101906001600160801b03191690816001600160801b0319168152505083818151811061366557613665614ff2565b60200260200101516020015182828151811061368357613683614ff2565b60209081029190910101526001016133ec565b505f8781526020858152604090912080546001600160a01b0319166001600160a01b038b1617815582516136d292600290920191840190614342565b506040518781526001600160a01b0389169033907f0ea8df787dde63a7bdc34d17097adf25749a3521f660e92dabdff8d6ee91d18a9060200160405180910390a386886001600160a01b03165f5160206157755f395f51905f528460405161373a91906153a0565b60405180910390a3505050505050505050565b5f8281525f5160206157f55f395f51905f526020526040812080545f5160206157d55f395f51905f5292919061378290614df4565b80601f01602080910402602001604051908101604052809291908181526020018280546137ae90614df4565b80156137f95780601f106137d0576101008083540402835291602001916137f9565b820191905f5260205f20905b8154815290600101906020018083116137dc57829003601f168201915b5050505050905080515f0361380e5750505050565b5f825f018260405161382091906150bd565b908152604051908190036020019020546001600160a01b0390811691508416810361384c575050505050565b83835f0183604051611ebb91906150bd565b6138688133613fe1565b50565b5f5f5160206157955f395f51905f5281613885858561401e565b90508015611f4e575f8581526020839052604090206138a490856140bf565b50949350505050565b5f5f5160206157955f395f51905f52816138c785856140d3565b90508015611f4e575f8581526020839052604090206138a4908561414c565b5f6120998383614160565b60605f61209983614186565b5f82828080601f0160208091040260200160405190810160405280939291908181526020018383808284375f920191909152505082519293505050158015906139485750603f815111155b6139845760405162461bcd60e51b815260206004820152600d60248201526c131858995b081a5b9d985b1a59609a1b6044820152606401610a4d565b5f5b8151811015610d22575f8282815181106139a2576139a2614ff2565b01602001516001600160f81b03191690505f606160f81b82108015906139d65750603d60f91b6001600160f81b0319831611155b80613a085750600360fc1b6001600160f81b0319831610801590613a085750603960f81b6001600160f81b0319831611155b80613a435750602d60f81b6001600160f81b03198316148015613a2a57508215155b8015613a43575060018451613a3f919061570e565b8314155b905080613a825760405162461bcd60e51b815260206004820152600d60248201526c131858995b081a5b9d985b1a59609a1b6044820152606401610a4d565b5050600101613986565b5f80613a966131b3565b5f9384526020526040909220546001600160a01b031690911415919050565b5f6109df825490565b5f613ac76131b3565b90506001600160a01b038516613aef5760405162461bcd60e51b8152600401610a4d9061521a565b5f848152602082905260409020546001600160a01b03163314613b245760405162461bcd60e51b8152600401610a4d90614da8565b60078101546040516349e176d360e11b81525f916001600160a01b0316906393c2eda690613b589087908790600401614ea4565b5f604051808303815f875af1158015613b73573d5f5f3e3d5ffd5b505050506040513d5f823e601f3d908101601f19168201604052613b9a9190810190615240565b90505f81516001600160401b03811115613bb657613bb6614495565b604051908082528060200260200182016040528015613bdf578160200160208202803683370190505b5090505f82516001600160401b03811115613bfc57613bfc614495565b604051908082528060200260200182016040528015613c25578160200160208202803683370190505b5090505f5b8351811015613db057838181518110613c4557613c45614ff2565b6020026020010151608001518015613ca257505f888152602086905260409020600201805482908110613c7a57613c7a614ff2565b905f5260205f200154848281518110613c9557613c95614ff2565b60200260200101515f0151145b8015613cdc5750886001600160a01b0316848281518110613cc557613cc5614ff2565b6020026020010151604001516001600160a01b0316145b81604051602001613ced9190615331565b60405160208183030381529060405290613d1a5760405162461bcd60e51b8152600401610a4d91906146be565b50838181518110613d2d57613d2d614ff2565b602002602001015160600151838281518110613d4b57613d4b614ff2565b60200260200101906001600160801b03191690816001600160801b03191681525050838181518110613d7f57613d7f614ff2565b602002602001015160200151828281518110613d9d57613d9d614ff2565b6020908102919091010152600101613c2a565b505f8781526020858152604090912080546001600160a01b0319166001600160a01b038b161781558251613dec92600290920191840190614342565b506040518781526001600160a01b0389169033907f0ea8df787dde63a7bdc34d17097adf25749a3521f660e92dabdff8d6ee91d18a9060200160405180910390a386886001600160a01b03165f5160206157755f395f51905f5284604051613e5491906153a0565b60405180910390a35050505050505050565b613e6e6141de565b565b6060825f613e7f846002615721565b613e8a906002615738565b6001600160401b03811115613ea157613ea1614495565b6040519080825280601f01601f191660200182016040528015613ecb576020820181803683370190505b509050600360fc1b815f81518110613ee557613ee5614ff2565b60200101906001600160f81b03191690815f1a905350600f60fb1b81600181518110613f1357613f13614ff2565b60200101906001600160f81b03191690815f1a9053505f613f35856002615721565b613f40906001615738565b90505b6001811115613fb7576f181899199a1a9b1b9c1cb0b131b232b360811b83600f1660108110613f7457613f74614ff2565b1a60f81b828281518110613f8a57613f8a614ff2565b60200101906001600160f81b03191690815f1a90535060049290921c91613fb08161574b565b9050613f43565b508115611f4e5760405163e22e27eb60e01b81526004810186905260248101859052604401610a4d565b613feb8282611f56565b61401a5760405163e2517d3f60e01b81526001600160a01b038216600482015260248101839052604401610a4d565b5050565b5f5f5160206157b55f395f51905f526140378484611f56565b6140b6575f848152602082815260408083206001600160a01b03871684529091529020805460ff1916600117905561406c3390565b6001600160a01b0316836001600160a01b0316857f2f8788117e7eff1d82e926ec794901d17c78024a50270940304540a733656f0d60405160405180910390a460019150506109df565b5f9150506109df565b5f612099836001600160a01b038416614203565b5f5f5160206157b55f395f51905f526140ec8484611f56565b156140b6575f848152602082815260408083206001600160a01b0387168085529252808320805460ff1916905551339287917ff6391f5c32d9c69d2a47ea670b442974b53935d1edc7fd64eb21e047a839171b9190a460019150506109df565b5f612099836001600160a01b03841661424f565b5f825f01828154811061417557614175614ff2565b905f5260205f200154905092915050565b6060815f01805480602002602001604051908101604052809291908181526020018280548015612ec857602002820191905f5260205f20905b8154815260200190600101908083116141bf5750505050509050919050565b6141e6614329565b613e6e57604051631afcd79f60e31b815260040160405180910390fd5b5f81815260018301602052604081205461424857508154600181810184555f8481526020808220909301849055845484825282860190935260409020919091556109df565b505f6109df565b5f81815260018301602052604081205480156140b6575f61427160018361570e565b85549091505f906142849060019061570e565b90508082146142e3575f865f0182815481106142a2576142a2614ff2565b905f5260205f200154905080875f0184815481106142c2576142c2614ff2565b5f918252602080832090910192909255918252600188019052604090208390555b85548690806142f4576142f4615760565b600190038181905f5260205f20015f90559055856001015f8681526020019081526020015f205f9055600193505050506109df565b5f614332612fc1565b54600160401b900460ff16919050565b828054828255905f5260205f2090810192821561437b579160200282015b8281111561437b578251825591602001919060010190614360565b50614387929150614465565b5090565b50805461439790614df4565b5f825580601f106143a6575050565b601f0160209004905f5260205f20908101906138689190614465565b828054828255905f5260205f20908101928215614406579160200282015b8281111561440657825182906143f69082615585565b50916020019190600101906143e0565b50614387929150614479565b828054828255905f5260205f2090810192821561437b579160200282015b8281111561437b57825182546001600160a01b0319166001600160a01b03909116178255602090920191600190910190614430565b5b80821115614387575f8155600101614466565b80821115614387575f61448c828261438b565b50600101614479565b634e487b7160e01b5f52604160045260245ffd5b604080519081016001600160401b03811182821017156144cb576144cb614495565b60405290565b60405160a081016001600160401b03811182821017156144cb576144cb614495565b604051601f8201601f191681016001600160401b038111828210171561451b5761451b614495565b604052919050565b5f82601f830112614532575f5ffd5b81356001600160401b0381111561454b5761454b614495565b61455e601f8201601f19166020016144f3565b818152846020838601011115614572575f5ffd5b816020850160208301375f918101602001919091529392505050565b6001600160a01b0381168114613868575f5ffd5b5f5f5f5f5f60a086880312156145b6575f5ffd5b85356001600160401b038111156145cb575f5ffd5b6145d788828901614523565b95505060208601356001600160401b038111156145f2575f5ffd5b6145fe88828901614523565b945050604086013561460f8161458e565b925060608601356001600160401b03811115614629575f5ffd5b61463588828901614523565b92505060808601356001600160401b03811115614650575f5ffd5b61465c88828901614523565b9150509295509295909350565b5f60208284031215614679575f5ffd5b81356001600160e01b031981168114612099575f5ffd5b5f81518084528060208401602086015e5f602082860101526020601f19601f83011685010191505092915050565b602081525f6120996020830184614690565b5f602082840312156146e0575f5ffd5b5035919050565b5f5f604083850312156146f8575f5ffd5b82356147038161458e565b946020939093013593505050565b5f602082016020835280845180835260408501915060408160051b8601019250602086015f5b8281101561476857603f19878603018452614753858351614690565b94506020938401939190910190600101614737565b50929695505050505050565b5f5f83601f840112614784575f5ffd5b5081356001600160401b0381111561479a575f5ffd5b6020830191508360208260051b85010111156147b4575f5ffd5b9250929050565b5f5f5f5f5f608086880312156147cf575f5ffd5b85356147da8161458e565b945060208601356147ea8161458e565b93506040860135925060608601356001600160401b0381111561480b575f5ffd5b61481788828901614774565b969995985093965092949392505050565b602080825282518282018190525f918401906040840190835b818110156148685783516001600160a01b0316835260209384019390920191600101614841565b509095945050505050565b5f5f83601f840112614883575f5ffd5b5081356001600160401b03811115614899575f5ffd5b6020830191508360208285010111156147b4575f5ffd5b5f5f602083850312156148c1575f5ffd5b82356001600160401b038111156148d6575f5ffd5b6148e285828601614873565b90969095509350505050565b5f5f604083850312156148ff575f5ffd5b8235915060208301356149118161458e565b809150509250929050565b5f5f5f6040848603121561492e575f5ffd5b8335925060208401356001600160401b0381111561494a575f5ffd5b61495686828701614774565b9497909650939450505050565b5f5f5f5f5f60608688031215614977575f5ffd5b8535945060208601356001600160401b03811115614993575f5ffd5b61499f88828901614873565b90955093505060408601356001600160401b038111156149bd575f5ffd5b61481788828901614873565b5f5f5f5f604085870312156149dc575f5ffd5b84356001600160401b038111156149f1575f5ffd5b6149fd87828801614873565b90955093505060208501356001600160401b03811115614a1b575f5ffd5b614a2787828801614873565b95989497509550505050565b5f5f5f5f5f60608688031215614a47575f5ffd5b8535945060208601356001600160401b03811115614a63575f5ffd5b614a6f88828901614774565b90955093505060408601356001600160401b0381111561480b575f5ffd5b5f5f5f5f60608587031215614aa0575f5ffd5b8435614aab8161458e565b93506020850135925060408501356001600160401b03811115614acc575f5ffd5b614a2787828801614774565b5f8151808452602084019350602083015f5b82811015614b08578151865260209586019590910190600101614aea565b5093949350505050565b602081525f6120996020830184614ad8565b5f5f60408385031215614b35575f5ffd5b50508035926020909101359150565b5f60208284031215614b54575f5ffd5b81356120998161458e565b8015158114613868575f5ffd5b5f5f60408385031215614b7d575f5ffd5b8235614b888161458e565b9150602083013561491181614b5f565b5f5f5f5f5f60608688031215614bac575f5ffd5b85356001600160401b03811115614bc1575f5ffd5b614bcd88828901614774565b90965094505060208601356001600160401b03811115614beb575f5ffd5b614bf788828901614774565b9094509250506040860135614c0b8161458e565b809150509295509295909350565b5f5f5f5f5f5f5f6080888a031215614c2f575f5ffd5b87356001600160401b03811115614c44575f5ffd5b614c508a828b01614774565b90985096505060208801356001600160401b03811115614c6e575f5ffd5b614c7a8a828b01614774565b9096509450506040880135614c8e8161458e565b925060608801356001600160401b03811115614ca8575f5ffd5b614cb48a828b01614873565b989b979a50959850939692959293505050565b5f5f5f60408486031215614cd9575f5ffd5b83356001600160401b03811115614cee575f5ffd5b614cfa86828701614873565b9094509250506020840135614d0e81614b5f565b809150509250925092565b5f5f60408385031215614d2a575f5ffd5b8235614d358161458e565b915060208301356149118161458e565b5f5f60408385031215614d56575f5ffd5b82356001600160401b03811115614d6b575f5ffd5b614d7785828601614523565b92505060208301356001600160401b03811115614d92575f5ffd5b614d9e85828601614523565b9150509250929050565b6020808252600990820152682737ba1037bbb732b960b91b604082015260600190565b6020808252600f908201526e151bdad95b881b9bdd08195e1a5cdd608a1b604082015260600190565b600181811c90821680614e0857607f821691505b602082108103614e2657634e487b7160e01b5f52602260045260245ffd5b50919050565b818382375f9101908152919050565b81835281816020850137505f828201602090810191909152601f909101601f19169091010190565b5f5f8335601e19843603018112614e78575f5ffd5b83016020810192503590506001600160401b03811115614e96575f5ffd5b8036038213156147b4575f5ffd5b602080825281018290525f6040600584901b8301810190830185835b86811015614efd57858403603f19018352614edb8289614e63565b614ee6868284614e3b565b955050506020928301929190910190600101614ec0565b50919695505050505050565b5f6001600160401b03821115614f2157614f21614495565b5060051b60200190565b5f60208284031215614f3b575f5ffd5b81516001600160401b03811115614f50575f5ffd5b8201601f81018413614f60575f5ffd5b8051614f73614f6e82614f09565b6144f3565b8082825260208201915060208360061b850101925086831115614f94575f5ffd5b6020840193505b82841015614fe85760408488031215614fb2575f5ffd5b614fba6144a9565b845181526020850151614fcc81614b5f565b8060208301525080835250602082019150604084019350614f9b565b9695505050505050565b634e487b7160e01b5f52603260045260245ffd5b7f496e76616c696420707265696d6167652070726f6f6620617420696e64657820815260208101929092526f0103bb4ba34103230ba30903430b9b4160851b6040830152605082015260700190565b604081525f6150676040830185614ad8565b82810360208401526150798185614ad8565b95945050505050565b6020808252600a90820152694e6f207375626e616d6560b01b604082015260600190565b5f81518060208401855e5f93019283525090919050565b5f61209982846150a6565b601f821115610d5b57805f5260205f20601f840160051c810160208510156150ed5750805b601f840160051c820191505b81811015610be4575f81556001016150f9565b6001600160401b0383111561512357615123614495565b615137836151318354614df4565b836150c8565b5f601f841160018114615168575f85156151515750838201355b5f19600387901b1c1916600186901b178355610be4565b5f83815260208120601f198716915b828110156151975786850135825560209485019460019092019101615177565b50868210156151b3575f1960f88860031b161c19848701351681555b505060018560011b0183555050505050565b602081525f611f4e602083018486614e3b565b5f5f8335601e198436030181126151ed575f5ffd5b8301803591506001600160401b03821115615206575f5ffd5b6020019150368190038213156147b4575f5ffd5b6020808252600c908201526b5a65726f206164647265737360a01b604082015260600190565b5f60208284031215615250575f5ffd5b81516001600160401b03811115615265575f5ffd5b8201601f81018413615275575f5ffd5b8051615283614f6e82614f09565b80828252602082019150602060a084028501019250868311156152a4575f5ffd5b6020840193505b82841015614fe85760a084880312156152c2575f5ffd5b6152ca6144d1565b845181526020808601519082015260408501516152e68161458e565b604082015260608501516001600160801b031981168114615305575f5ffd5b6060820152608085015161531881614b5f565b6080820152825260a093909301926020909101906152ab565b7f496e76616c6964207472616e736665722076616c69646974792070726f6f6620815268030ba1034b73232bc160bd1b6020820152602981019190915260490190565b634e487b7160e01b5f52601160045260245ffd5b5f6001820161539957615399615374565b5060010190565b602080825282518282018190525f918401906040840190835b818110156148685783516001600160801b0319168352602093840193909201916001016153b9565b5f6153ee614f6e84614f09565b8381526020810190600585901b840136811115615409575f5ffd5b845b818110156148685780356001600160401b03811115615428575f5ffd5b61543436828901614523565b8552506020938401930161540b565b604081525f6154556040830186614ad8565b82810360208401528084825260208201905060208560051b830101865f5b878110156154b157848303601f1901845261548e828a614e63565b615499858284614e3b565b60209687019690955093909301925050600101615473565b509098975050505050505050565b5f81546154cb81614df4565b6001821680156154e257600181146154f757615524565b60ff1983168652811515820286019350615524565b845f5260205f205f5b8381101561551c57815488820152600190910190602001615500565b505081860193505b50505092915050565b6c3d9131b430b4b72aa926111d1160991b81525f61554e600d8301856154bf565b6f11161134b73232bc32b92aa926111d1160811b815261557160108201856154bf565b61227d60f01b815260020195945050505050565b81516001600160401b0381111561559e5761559e614495565b6155b2816155ac8454614df4565b846150c8565b6020601f8211600181146155e4575f83156155cd5750848201515b5f19600385901b1c1916600184901b178455610be4565b5f84815260208120601f198516915b8281101561561357878501518255602094850194600190920191016155f3565b508482101561563057868401515f19600387901b60f8161c191681555b50505050600190811b01905550565b7f4e657720646174612068617368206d69736d617463682c206861736820696e208152660383937b7b31d160cd1b60208201525f61568060278301856150a6565b7401610313aba103430b9b41034b7103a37b5b2b71d1605d1b815261507960158201856150a6565b7f5265636569766572206d69736d617463682c20726563656976657220696e207081526503937b7b31d160d51b60208201525f6156e860268301856150a6565b7201610313aba103a3930b739b332b9103a379d1606d1b815261507960138201856150a6565b818103818111156109df576109df615374565b80820281158282048414176109df576109df615374565b808201808211156109df576109df615374565b5f8161575957615759615374565b505f190190565b634e487b7160e01b5f52603160045260245ffdfe156aabbd131f533640c54a2c9d227cce945fa46b6e45df7a473d76203233b9b5c1f6fe24621ce81ec5827caf0253cadb74709b061630e6b55e8237170593200002dd7bc7dec4dceedda775e58dd541e08a116c6c53815c0bd028192f7b626800056fd9b766381751453e856e178e6a31bebc85b06c3346484e0fd5926790ce00056fd9b766381751453e856e178e6a31bebc85b06c3346484e0fd5926790ce02a49807205ce4d355092ef5a8a18f56e8913cf4a201fbe287825b095693c21775a26469706673582212201dfe9fe46ddd6f29c7d63db825b76c0ed7f15233abf095d3f05479fe0712019664736f6c634300081c0033",
  "linkReferences": {},
  "deployedLinkReferences": {},
  "immutableReferences": {},
  "inputSourceName": "project/contracts/MnemoAgentNFT.sol",
  "buildInfoId": "solc-0_8_28-8905d5503240ccd6e6bf770d9825f7525de3b2a5"
}