{
  "_format": "hh3-artifact-1",
  "contractName": "Verifier",
  "sourceName": "contracts/Verifier.sol",
  "abi": [
    {
      "inputs": [
        {
          "internalType": "address",
          "name": "_attestationContract",
          "type": "address"
        },
        {
          "internalType": "enum VerifierType",
          "name": "_verifierType",
          "type": "uint8"
        }
      ],
      "stateMutability": "nonpayable",
      "type": "constructor"
    },
    {
      "inputs": [
        {
          "internalType": "uint256",
          "name": "value",
          "type": "uint256"
        },
        {
          "internalType": "uint256",
          "name": "length",
          "type": "uint256"
        }
      ],
      "name": "StringsInsufficientHexLength",
      "type": "error"
    },
    {
      "inputs": [],
      "name": "attestationContract",
      "outputs": [
        {
          "internalType": "address",
          "name": "",
          "type": "address"
        }
      ],
      "stateMutability": "view",
      "type": "function"
    },
    {
      "inputs": [],
      "name": "verifierType",
      "outputs": [
        {
          "internalType": "enum VerifierType",
          "name": "",
          "type": "uint8"
        }
      ],
      "stateMutability": "view",
      "type": "function"
    },
    {
      "inputs": [
        {
          "internalType": "bytes[]",
          "name": "proofs",
          "type": "bytes[]"
        }
      ],
      "name": "verifyPreimage",
      "outputs": [
        {
          "components": [
            {
              "internalType": "bytes32",
              "name": "dataHash",
              "type": "bytes32"
            },
            {
              "internalType": "bool",
              "name": "isValid",
              "type": "bool"
            }
          ],
          "internalType": "struct PreimageProofOutput[]",
          "name": "",
          "type": "tuple[]"
        }
      ],
      "stateMutability": "pure",
      "type": "function"
    },
    {
      "inputs": [
        {
          "internalType": "bytes[]",
          "name": "proofs",
          "type": "bytes[]"
        }
      ],
      "name": "verifyTransferValidity",
      "outputs": [
        {
          "components": [
            {
              "internalType": "bytes32",
              "name": "oldDataHash",
              "type": "bytes32"
            },
            {
              "internalType": "bytes32",
              "name": "newDataHash",
              "type": "bytes32"
            },
            {
              "internalType": "address",
              "name": "receiver",
              "type": "address"
            },
            {
              "internalType": "bytes16",
              "name": "sealedKey",
              "type": "bytes16"
            },
            {
              "internalType": "bool",
              "name": "isValid",
              "type": "bool"
            }
          ],
          "internalType": "struct TransferValidityProofOutput[]",
          "name": "",
          "type": "tuple[]"
        }
      ],
      "stateMutability": "nonpayable",
      "type": "function"
    }
  ],
  "bytecode": "0x60c060405234801561000f575f5ffd5b50604051610db5380380610db583398101604081905261002e9161006c565b6001600160a01b03821660805280600181111561004d5761004d6100b2565b60a0816001811115610061576100616100b2565b8152505050506100c6565b5f5f6040838503121561007d575f5ffd5b82516001600160a01b0381168114610093575f5ffd5b6020840151909250600281106100a7575f5ffd5b809150509250929050565b634e487b7160e01b5f52602160045260245ffd5b60805160a051610cc96100ec5f395f81816053015261040c01525f60900152610cc95ff3fe608060405234801561000f575f5ffd5b506004361061004a575f3560e01c8063170227f71461004e57806387be6d4e1461008b57806393c2eda6146100ca578063c2a93e37146100ea575b5f5ffd5b6100757f000000000000000000000000000000000000000000000000000000000000000081565b604051610082919061096c565b60405180910390f35b6100b27f000000000000000000000000000000000000000000000000000000000000000081565b6040516001600160a01b039091168152602001610082565b6100dd6100d8366004610992565b61010a565b6040516100829190610a03565b6100fd6100f8366004610992565b610266565b6040516100829190610a87565b60605f8267ffffffffffffffff81111561012657610126610acc565b60405190808252806020026020018201604052801561017d57816020015b6040805160a0810182525f808252602080830182905292820181905260608201819052608082015282525f199092019101816101445790505b5090505f5b8381101561025c575f6101b78686848181106101a0576101a0610ae0565b90506020028101906101b29190610af4565b6103c0565b9050808383815181106101cc576101cc610ae0565b60200260200101819052505f6102478787858181106101ed576101ed610ae0565b90506020028101906101ff9190610af4565b61020e91607291604291610b3e565b8080601f0160208091040260200160405190810160405280939291908181526020018383808284375f920191909152506105d692505050565b9050610252816105e1565b5050600101610182565b5090505b92915050565b60605f8267ffffffffffffffff81111561028257610282610acc565b6040519080825280602002602001820160405280156102c657816020015b604080518082019091525f80825260208201528152602001906001900390816102a05790505b5090505f5b8381101561025c578484828181106102e5576102e5610ae0565b90506020028101906102f79190610af4565b905060201461034d5760405162461bcd60e51b815260206004820152601860248201527f496e76616c696420646174612068617368206c656e677468000000000000000060448201526064015b60405180910390fd5b5f85858381811061036057610360610ae0565b90506020028101906103729190610af4565b61037b91610b65565b90505f6001905060405180604001604052808381526020018215158152508484815181106103ab576103ab610ae0565b602090810291909101015250506001016102cb565b6040805160a0810182525f80825260208201819052918101829052606081018290526080810182905290838382816103fa576103fa610ae0565b9091013560f81c6080161591505f90507f0000000000000000000000000000000000000000000000000000000000000000600181111561043c5761043c610958565b148115151461048d5760405162461bcd60e51b815260206004820152601760248201527f496e636f727265637420766572696669657220747970650000000000000000006044820152606401610344565b5f84845f8181106104a0576104a0610ae0565b9091013560f81c604016151591505f90506104bf604260018789610b3e565b8080601f0160208091040260200160405190810160405280939291908181526020018383808284375f92018290525093945061050592506072915060429050888a610b3e565b8080601f0160208091040260200160405190810160405280939291908181526020018383808284375f9201919091525092935061054c92506092915060729050888a610b3e565b61055591610b65565b602086015282156105a05761056e60b26092888a610b3e565b61057791610b65565b855261058760be60b2888a610b3e565b61059091610b82565b6001600160801b03191660608601525b6105b48284838860200151895f015161064e565b6001600160a01b03166040860181905215156080860152509295945050505050565b805160209091012090565b5f8181526020819052604090205460ff16156106345760405162461bcd60e51b8152602060048201526012602482015271141c9bdbd988185b1c9958591e481d5cd95960721b6044820152606401610344565b5f908152602081905260409020805460ff19166001179055565b5f85516041146106ab5760405162461bcd60e51b815260206004820152602260248201527f496e76616c6964206163636573736962696c6974792070726f6f66206c656e676044820152610e8d60f31b6064820152608401610344565b6020860151604087015160608801515f90811a906106cb8988888b610737565b604080515f81526020810180835283905260ff851691810191909152606081018690526080810185905290915060019060a0016020604051602081039080840390855afa15801561071e573d5f5f3e3d5ffd5b5050604051601f1901519b9a5050505050505050505050565b5f5f85156107715784848460405160200161075493929190610bd7565b60405160208183030381529060405280519060200120905061079d565b8483604051602001610784929190610bf7565b6040516020818303038152906040528051906020012090505b5f6107a98260206107de565b9050806040516020016107bc9190610c08565b6040516020818303038152906040528051906020012092505050949350505050565b6060825f6107ed846002610c54565b6107f8906002610c6b565b67ffffffffffffffff81111561081057610810610acc565b6040519080825280601f01601f19166020018201604052801561083a576020820181803683370190505b509050600360fc1b815f8151811061085457610854610ae0565b60200101906001600160f81b03191690815f1a905350600f60fb1b8160018151811061088257610882610ae0565b60200101906001600160f81b03191690815f1a9053505f6108a4856002610c54565b6108af906001610c6b565b90505b6001811115610926576f181899199a1a9b1b9c1cb0b131b232b360811b83600f16601081106108e3576108e3610ae0565b1a60f81b8282815181106108f9576108f9610ae0565b60200101906001600160f81b03191690815f1a90535060049290921c9161091f81610c7e565b90506108b2565b5081156109505760405163e22e27eb60e01b81526004810186905260248101859052604401610344565b949350505050565b634e487b7160e01b5f52602160045260245ffd5b602081016002831061098c57634e487b7160e01b5f52602160045260245ffd5b91905290565b5f5f602083850312156109a3575f5ffd5b823567ffffffffffffffff8111156109b9575f5ffd5b8301601f810185136109c9575f5ffd5b803567ffffffffffffffff8111156109df575f5ffd5b8560208260051b84010111156109f3575f5ffd5b6020919091019590945092505050565b602080825282518282018190525f918401906040840190835b81811015610a7c57835180518452602080820151818601526040808301516001600160a01b0316908601526060808301516001600160801b031916908601526080918201511515918501919091529093019260a090920191600101610a1c565b509095945050505050565b602080825282518282018190525f918401906040840190835b81811015610a7c5783518051845260209081015115158185015290930192604090920191600101610aa0565b634e487b7160e01b5f52604160045260245ffd5b634e487b7160e01b5f52603260045260245ffd5b5f5f8335601e19843603018112610b09575f5ffd5b83018035915067ffffffffffffffff821115610b23575f5ffd5b602001915036819003821315610b37575f5ffd5b9250929050565b5f5f85851115610b4c575f5ffd5b83861115610b58575f5ffd5b5050820193919092039150565b80356020831015610260575f19602084900360031b1b1692915050565b80356001600160801b03198116906010841015610bb9576001600160801b03196001600160801b03198560100360031b1b82161691505b5092915050565b5f81518060208401855e5f93019283525090919050565b8381528260208201525f610bee6040830184610bc0565b95945050505050565b8281525f6109506020830184610bc0565b7f19457468657265756d205369676e6564204d6573736167653a0a36360000000081525f610c39601c830184610bc0565b9392505050565b634e487b7160e01b5f52601160045260245ffd5b808202811582820484141761026057610260610c40565b8082018082111561026057610260610c40565b5f81610c8c57610c8c610c40565b505f19019056fea264697066735822122051a56685fb66538665943ec33408c213f6217cc121bab8539ccebd84dd6945fb64736f6c634300081c0033",
  "linkReferences": {},
  "deployedLinkReferences": {},
  "immutableReferences": {
    "5966": [
      {
        "length": 32,
        "start": 144
      }
    ],
    "5969": [
      {
        "length": 32,
        "start": 83
      },
      {
        "length": 32,
        "start": 1036
      }
    ]
  },
  "inputSourceName": "project/contracts/Verifier.sol",
  "buildInfoId": "solc-0_8_28-6b086744f6cbdf1032552c15bc929fad2559c535"
}